S00F00006E63702D756172742E733337BB
S31508000000786A0020318E0208A98D0208AD8D020893
S31508000010A70B0000000000000000FFFF54000008C6
S3150800002004160300000000000000000000000000A5
S3150800003000000000000000000000000000000000B2
S315080000400000000000000000000000001001000091
S3150800005000000000786A0020318E0208A98D020887
S31508000060AD8D0208A70A080100010008041603ACB2
S315080000701110100100000000000000000000000040
S315080000800000000000000000000000000000000062
S31508000090000000000000000000000000FFFFFFFF56
S315080000A0FFFFFFFFFFFFFFFF00E00708000000005B
S315080000B000000000FFFFFFFFFFFFFFFFFFFFFFFF3E
S315080000C0FFFFFFFFFFFFFFFFFFFFFFFFFFFFFFFF32
S315080000D0FFFFFFFFF07F002000000000E27F002006
S315080000E0E27F0020786A002028B80208E09002081B
S315080000F0A05B002070170020000008080080002080
S31508000100786A0020318E0208A98D0208AD8D020892
S31508000110B58D0208B18D0208B98D0208308E020825
S31508000120308E0208308E0208308E0208308E0208A1
S31508000130BD8D0208308E0208308E0208CF0C0008EA
S31508000140308E0208308E020859480008308E0208A0
S315080001509BBA010875F10108308E0208308E020834
S31508000160313D0008BF190008EB140008910100088A
S31508000170308E0208308E0208308E0208308E020851
S3150800018047DC0008308E0208308E0208308E0208DE
S3150800019070B52C4C60782C4D2968490725D503285D
S315080001A023DA04EB4001A2888A810121A27801FAA8
S315080001B000F01043A0702078244A88B1002301FA81
S315080001C003F6064207D063707040207004EB4300C4
S315080001D0808A106009E05B1CDBB2032BEFD304E0D6
S315080001E0106000F0A7F8032060704FF6FF702860D3
S315080001F0BFF35F8F70BD1348002101700321417062
S315080002000021C17005210181002181700F4900225A
S315080002100A604A604FF400428A601022CA60001DD4
S315080002204861012088610320C860074804210164E9
S315080002304FF6FF71016006484FF40061016000F057
S31508000240B8B80000986D002010A8004004E00040EF
S3150800025000E100E02B480068C00701D42A4870472F
S315080002602A48704780B5FFF7F5FF2949096801B99B
S31508000270400802BD80B5FFF7EDFF400802BD00F05B
S3150800028015BC2448012181604EF6BE21416000E07C
S315080002902148012101607047A52805D11D484DF662
S315080002A0AD6141600221016070471A48006810F08C
S315080002B0010018BF0120704780B518481021016059
S315080002C0174800781749184A58B103280CBF002068
S315080002D00120106040F651000860002000F009FE79
S315080002E006E0022010604FF40060086000F09FFBF3
S315080002F00E4807210160002101640D4810210160A4
S31508000300002002BD1C400040001BB70000366E01ED
S3150800031020400040006000400860004080E100E0A6
S31508000320B37F00200C6000400800004014A0004085
S3150800033000E100E070477047DFF81C3533F810001D
S315080003401040C840704730B5DFF810350FF2CC546E
S3150800035034F810409C60DFF8004534F81050954397
S3150800036011402943D96002221A6000221A6024F833
S31508000370101058680028FCD130BDDFF8E404DFF817
S31508000380E414DFF8E42412780AB149780FE08956B4
S315080003906FF008029142B8BF302108DBC16D39B150
S315080003A040F24A31C26DB1FBF2F189B2C91E016051
S315080003B07047E0B50A237F22DFF8B00400F064F83E
S315080003C04FF6FF72BDF806100D20FFF7BCFF07BDFC
S315080003D0F8B50546DFF88C44B5F5004F19D1022368
S315080003E07F22DFF88C0400F04FF8BDF80000000A01
S315080003F0FF2814BF002818206070BDF8000000060A
S31508000400C00E10281CBF001D00F0B3F9BDF800008F
S31508000410C543DFF85464707808B1002005E0A08968
S31508000420ADB26840C00701D501207070A58105F0FE
S315080004300104C5F34007DFF83C04016841F40041B4
S3150800044001604FF440520FF2F84000EB4400407848
S31508000450010389B20220FFF776FF204600F0A2FDCD
S315080004604022B90100F024FA2D06A80E00F001007A
S3150800047038433070FFF781FF707818B1FFF799FF9E
S31508000480002070700020F2BD018800A800F000BEB0
S31508000490A0F10B0189B2A0F10B02D2B2102A01D346
S315080004A08A207047012202FA01F1DFF8CC2353882B
S315080004B00B43538001231370938819439180DFF807
S315080004C0BC1300220A7045E12DE9F04F87B0DFF82A
S315080004D0B043207804900B38C0B203900423039AE3
S315080004E00A2100A800F057FE9DF800008DF80A00C2
S315080004F09DF801008DF809009DF802008DF80800A6
S315080005009DF803008DF80500DFF8780300780128C8
S3150800051006BF607880F00107012701F0A8F8804639
S315080005209DF90200A8F10A0908F10A05A842B6BF12
S3150800053081454FF0010B4FF0000B012003998840CD
S31508000540ADF80600CC4E9DF80100000604D470886C
S31508000550BDF80610084201D04FF0010B01F004F96E
S315080005609DF8030000060AD4B088BDF806100842B4
S3150800057005D19DF90000A842B8BF814502DB4FF0BE
S31508000580010A01E04FF0000A4BEA07005AEA0000A8
S3150800059000F0A080BC480068400800F001008DF813
S315080005A00400DFF8E892D9F8000000F4E06005904E
S315080005B0B7484FF4E0610160002001F0D3FC00F079
S315080005C099FBB44DAFB1607858B1AF4800684008A0
S315080005D0400000F08AF801210170012000F06EFC4D
S315080005E007E0286840F400502860286820F4805006
S315080005F02860A448007801280CD101F020FEA24802
S31508000600006840F0010000F070F8002101706420D5
S3150800061000F054FC607880F001010F4203D0049882
S31508000620C0B201F0AEFE607838B1286820F4805078
S315080006302860286840F400502860BDF80600C743C3
S31508000640BBF1000F08D001F08AFF8DF801008DF884
S315080006500280708838407080BAF1000F08D002F026
S315080006602AF88DF803008DF80080B0883840B080ED
S315080006709DF900009DF90A10884202BF9DF8010005
S315080006809DF8091088420BD19DF902009DF90810C2
S31508000690884202BF9DF803009DF80510884206D0DF
S315080006A0042300AA0399C9B20A2000F085FD05981B
S315080006B0C9F8000000F0B6FD9DF8040001F052FCF0
S315080006C002F01DF9607828B148F26070286064204D
S315080006D000F0F4FB9DF8010001F0AAFE9DF8030066
S315080006E001F0E4FF07B0BDE8F08F67490860654888
S315080006F0704700F0B8BF70B50646A6F10B0401F0C6
S3150800070050FB0546A6F10B00C0B2102801D38A207B
S3150800071070BD61488168090702D40068C00701D521
S315080007208C2070BD564806705C4801680C290FD0AD
S31508000730A4B20FF2801131F82410594A92F9002018
S315080007405118C161FFF7C0FE012D08BF01F0CDFAAF
S31508000750002070BD10B5044600F085FF2046BDE8B0
S315080007601040C8E74648007870473E4890F90000B0
S3150800077070472DE9F04186B006466FF02A0086429A
S3150800078046DB14237F224748FFF77EFEBDF810009C
S315080007904FF6FF71884203D0400448BF012506D4AE
S315080007A03F2200211020FFF7C7FD044600252D48EB
S315080007B03D4906F12B02D2B22F2A1AD213220FF282
S315080007C0341300E0521ED2B213F91270BE42F9DB9E
S315080007D003EB420676780E6013F8121001700020BB
S315080007E0002680460327ADB14FF6BF72BDF810103C
S315080007F029E0092E0CDA325C0A60067014237F227F
S315080008002A48FFF741FE03200126B0462827EAE7D3
S315080008108B201DE04FF46052C10200F049F84FF4F6
S31508000820E062310200F044F880224FEAC81100F075
S315080008303FF884F020003C18A4B2402C28BF3F247F
S315080008403F2284F0200100F033F8FFF796FD0020E0
S3150800085006B0BDE8F0810000A4730020E81000404F
S31508000860641000406C6B0020B87F0020F0B40208CA
S31508000870FAB402081C100040226F0020B57E002042
S31508000880686B0020346C00208020004000E100E006
S3150800089080E100E0D010004060200040AC1000402D
S315080008A0B77F0020ECB40208C0100040EEB402087E
S315080008B00B2048E5AA2129005523290000252800F0
S315080008C0AA26270055282700002A2600AA2B260034
S315080008D0552D2500002F2400AA3024005532230068
S315080008E000342200AA35220055372100003920009D
S315080008F0AA3A2000D500E601EC02EF03F204F4055B
S31508000900F506F707F808F909FA0AFB0BFC0DFD0FBF
S31508000910FE11FF1300160119021C031F1000110017
S315080009202000300040004100500060007000800048
S315080009309000A000B000C000D000E000F000000069
S3150800094000000103DFF820045121016070472DE9FA
S31508000950F0410546FFF786FCDFF81014B0FBF1F608
S315080009604FF4F070B0FBF6F73FB21E2D01DBE81B23
S3150800097004D5A8B2BDE8F04100F0A0BA01F0FAFF2C
S31508000980804601F0FDFFDFF8E80301214170DFF83A
S31508000990E40307210160002141608160DFF8D81374
S315080009A04FF000720A60E91B09B27143C91C890835
S315080009B0491E416000F0ABF8DFF8AC733C68386854
S315080009C020F04000386001F0DDFF3C602E6001F049
S315080009D0DDFF01F0E3FF4046BDE8F04101F0E0BF6E
S315080009E038B50546FFF73EFCDFF88013B0FBF1F497
S315080009F04FF4F070B0FBF4F02D1A1E2D04DA98218E
S31508000A000FF2B83001F0D2FFDFF868030721016062
S31508000A10002141608160DFF860134FF000720A60C0
S31508000A2005FB04F1C91C8908491E416031BDDFF880
S31508000A304C03006800B970472DE9F0410024DFF83F
S31508000A4040532C60DFF83C6334604FF4A04070607C
S31508000A5041F29A084046FFF77AFF6F68FFF70AFCEB
S31508000A60000142F21071B0FBF1F000F5C870C01B2E
S31508000A7000B24FF4487190FBF1F000F303003060C8
S31508000A804046FFF764FF08274046FFF760FF68689F
S31508000A9004197F1EF8D1FFF7EDFB4001211DC90897
S31508000AA0B0FBF1F080B27060BDE8F081DFF8CC02EF
S31508000AB0006800B9704738B56FF00F04DFF8C85200
S31508000AC00120A8602C608020FFF741FFE868FF2816
S31508000AD002D8641C102CF5DB31BD70B5DFF8AC020A
S31508000AE0016841F0010101600121416001F042FF06
S31508000AF0044600F00CF8DFF87002512101602E6000
S31508000B0001F044FF2046BDE8704001F049BFDFF818
S31508000B1080522E68286840084000286001F036BFD9
S31508000B20002070472DE9F04140F2DC518846904D8F
S31508000B30984E994F914C2268012A17DA0221B980FA
S31508000B403160B16901F0030103295ED021680029EB
S31508000B5003D5B16941F00201B161FFF7E1FF5FEA30
S31508000B6000081BD1206800284FD54CE0B8884FF6FE
S31508000B70FF74A04220D102237F2288480188381DAD
S31508000B8000F086FAB888A04204BF0220B880B0698F
S31508000B90800703D4B06940F00200B0610120A87054
S31508000BA0B8883060012068700FFA88F42046FFF78D
S31508000BB017FFA0B2BDE8F081B2699207EAD5AA7814
S31508000BC00AB10846F6E7B16811F00101B26803D127
S31508000BD00F2809D2401C06E0920705D53A781AB1C3
S31508000BE0032801D3401EB8803970B88802283CBF54
S31508000BF00220B8803068B9888842CFD1B06900F041
S31508000C000300032801D0FFF768FF0020D2E72DE98B
S31508000C10F04780460024544D5D4E01F0ABFE8146F8
S31508000C2001F0AEFE4046FFF77DFF08B901240AE051
S31508000C3000F059F8D5F800A000F0BAF8C5F800A0F9
S31508000C40376001F0A3FE01F0A9FE484601F0A8FEB0
S31508000C50002CE2D0BDE8F0870220D8E710B5454859
S31508000C60002141608160016821F002010160404C69
S31508000C700020607040484FF000710160A07840B1D4
S31508000C800020A0700620FFF74BFF3C4800680128AB
S31508000C901CDBE078012814D1414801210160414953
S31508000CA00968C90748BF03200FD40221E170016C07
S31508000CB041F0010101643C48042101603B480160A0
S31508000CC010BDE078042801D10520E07010BD80B57C
S31508000CD02748407800281CBFBDE80140FFF7BEBF83
S31508000CE000F044FE01BD37683068400840003060B7
S31508000CF001F04CBE2DE9F8431D4C2078217981F08E
S31508000D00010108422CD01D480068012820DA40F26B
S31508000D10F7310FF2A80001F049FE19E001F02AFEAA
S31508000D20804601F02DFEE07805280CD0184EFFF716
S31508000D30DAFF0D4DD5F8009000F03AF8C5F80090A6
S31508000D40376001F023FE01F029FE404601F028FE37
S31508000D50E0780528E2D10020A0700520FFF757FFAC
S31508000D6000202070BDE8F1830080004090D0030089
S31508000D70C27F002010E000E004ED00E09C96020827
S31508000D80104000400C000040084000401C40004055
S31508000D9094ED00E004400040D46B0020FCB4020847
S31508000DA018A000400C40004080E200E000E100E0AE
S31508000DB0286820F04000286001F0E4BD636C6F638A
S31508000DC06B732E630000000010B56B4C002001F019
S31508000DD09CFD40F68C218842206834BF40F008000C
S31508000DE020F00800206010BD10B582B0044600F05F
S31508000DF060F800A800F04CF99DF801009DF8001075
S31508000E00FF2902BFFF280420002104B1801CC0B2BC
S31508000E10082828BF0720082928BF0721574A13682A
S31508000E2023F4607343EAC01010601068C00851EAE2
S31508000E30C00010605248047013BD00B583B0022389
S31508000E407F225048018800A800F022F9BDF800006A
S31508000E504FF6FF7188420EBF4FF4E1600A2190FBFE
S31508000E60F1F0ADF8000046480078F8B100F021F836
S31508000E7001A800F00DF99DF80500FF2808BF042019
S31508000E80811CC9B20829A8BF0721C1F12F02BDF8E4
S31508000E900030C0F12F0002EBD272521000FB032083
S31508000EA0C1F12F01B0FBF1F0ADF80000BDF800006C
S31508000EB00EBD02237F2234480188704770B5064666
S31508000EC0324C2568FFF7D6F93149B0FBF1F070438B
S31508000ED02F303021B0FBF1F0032809D3616D41F0C2
S31508000EE0010161652168491B0903090B8142F9D390
S31508000EF070BD10B5040004D110BD4FF47A70FFF729
S31508000F00DDFF2046441E80B20028F6D110BD38B554
S31508000F1004000D4605D0022C10D00FD3032C26D082
S31508000F2027E01C4C45B1FFF7A5F91B49B0FBF1F0CA
S31508000F30401EB0F5005F0CD2206018E04DB1FFF7F7
S31508000F4099F9690801EB4000B0FBF5F0B0F5003FF0
S31508000F5001D3202032BD410800F00100022C08BF51
S31508000F600E4A02D0012C02D10D4A506011600020B1
S31508000F7032BD212032BD000000BC004018000040F0
S31508000F80BA7F0020F4B40208F2B402083820004000
S31508000F9090D00300100004E020A1070068D80040A4
S31508000FA068C80040F0B589B004460020FFF71CFF6A
S31508000FB00A237F222548018800A800F069F84FF621
S31508000FC0FF75BDF80200A84204D1DC210FF2940097
S31508000FD001F0ECFC00260FF2A40701E02A4616B938
S31508000FE04FF47C4203E0022E08BF4EF23F0200A8EF
S31508000FF000F032F8761C052EF0D3012C03D1142309
S315080010007F22134802E014237F221248018803A88E
S3150800101000F03EF800260FF26C072A4608E02A463A
S31508001020012E08BF4FF6C07202D0082E08BF002254
S3150800103003A800F011F8761C0A2EF0D3012C04BF81
S315080010400120FFF7D1FE09B0F0BD0000F0B4020898
S31508001050EEB40208ECB4020830F81610F05DFFF79B
S3150800106072B90000616E616C6F6775652D63656C9A
S315080010706C2D626961732E630000000000100C0D70
S315080010800E000000010203040708090A0B0F0000FE
S3150800109030B583B0044610467F2808BF0020B1F556
S315080010A0004F1AD108237F2240F6120100A8FFF745
S315080010B0EFFF08220FF2380100A801F0E2FD30B96F
S315080010C008237F2240F2A27100A8FFF7E1FF082259
S315080010D000A9204601F06CFD37BD1A46034D294389
S315080010E000FB0311204601F063FD37BD0000080828
S315080010F0FFFFFFFFFFFFFFFF30B583B0002401A805
S315080011000FF214110A680260DFF8045101202870F2
S31508001110002001F0C5FD30B1002001F0C1FD10B17D
S315080011202C7049203EBD02237F22DFF8E8000188A3
S315080011300DF1020000F02FF802237F22002100A8FB
S3150800114000F029F8204601A931F81010BDF8022050
S31508001150914208BF0124401C0228F4D3002CBDF894
S31508001160000004D0B0F57F7F09D100203EBDB0F560
S315080011707F7F14BF04200620002129703EBD012070
S3150800118001F08EFD002001F08BFD0028EDD0002037
S3150800119028704A203EBD10B5B1F5807F07D21C4C99
S315080011A0247844B1C9B2BDE8104002F092B8BDE84F
S315080011B01040FFF76DBF10BD2DE9F04105460E46FC
S315080011C0174698460FF25400B5F5807F12D2104C98
S315080011D02178A1B1617811B1C02101F0E7FB0120A6
S315080011E06070434632463946E8B202F0CEF900202E
S315080011F0607004E0CB21BDE8F04101F0D7BBBDE843
S31508001200F08103490978002918BF02F0CDBA704762
S31508001210B57F0020F8B40208FE01FD02746F6B6505
S315080012206E2E630010B5DFF8E8441020206301F045
S31508001230A1FBDFF8E0140A6842F001020A6001F037
S31508001240AFFBDFF8D40460602060616889316160B3
S31508001250012121638A30E060A060E0688930E0609F
S3150800126002202063DFF8B4044FF6FF71016010BD59
S31508001270DFF8AC0445F26401C1601E2141625021C9
S315080012800162C821C1618165F021C16545F69001F9
S315080012904166882181660621C16644F206610160BD
S315080012A04FF6FF714160DFF87C04007838B1DFF84B
S315080012B0780448F2607101604FF4C1514160DFF86B
S315080012C06C04016841F004010160DFF86404002140
S315080012D0417070472DE9F84F0446DFF858248A21F3
S315080012E001FB002101F1080808F101014B78097892
S315080012F001EB0326B6B206F4404A002106F4406321
S315080013000425B3F5006F08BF082503D0B3F5406F71
S3150800131008BF0E255FEA0A0303D073065CBFAB1C41
S31508001320DDB2DFF814341B78537000EB020989F834
S31508001330021006F02700232867D1DFF80074786EBC
S31508001340000662D505EB0800DFF8F4B3BAF5404F9E
S3150800135002D102F0F9FA0AE0BAF5004F13D1407843
S3150800136015F8081001EB002080B202F0D1FA00212E
S31508001370FF2807D0DBF8002032F810004FF4567229
S31508001380104200D001214FF480604FF40062F9B199
S3150800139033071DD4BAF5004F08BFAB1C04D0BAF505
S315080013A0404F02D105F10803DDB26B08002C14BFCB
S315080013B07E683E689E421CD3002C14BF7E683E6839
S315080013C003F1010A5645F7D315F80830042B10D156
S315080013D079B1F96DC90608D4B96C04B11046014251
S315080013E003D0786C40F001007864012089F8020087
S315080013F00BE0F96DC90608D5B96C04B1104601426F
S3150800140003D0786C400840007864BDE8F18F2DE978
S31508001410FC4E0446DFF81C638A2000FB046000F1DA
S31508001420080BDFF81853002C0CBF28686868C1B28F
S31508001430052903D27068401C706054E040005FFACA
S3150800144080F909EB0B0010F8081D427802EB012120
S315080014501FFA81FA7178017000214170B94FF86B53
S3150800146020F48050F863686ED4B9386840051CD4F7
S315080014701AF4E45F0FD100F029FD10B15FEA4A4083
S3150800148009D59BF80000802805D2A019827849461C
S31508001490584602F08FFA002C0CBF0120022021E0EA
S315080014A0012CE5D138680005E2D5A748017889B14D
S315080014B000210170A54801681AF4E45F02D00022F1
S315080014C0402005E09BF80100000900F001028F208A
S315080014D002F0B1FB002C0CBF4FF480604FF40060A3
S315080014E03860D8E72861BDE8F38E2DE9F0478B4CC4
S315080014F02068216C01EA0005944E904FDFF850826F
S31508001500DFF84492DFF82CA219E038B14878C00613
S3150800151004D4002231688F2002F08DFB280605D5F9
S3150800152002F0D0FB25F0800580202060E80506D56E
S3150800153002F0C8FB25F480754FF480702060002DFA
S315080015405CD0280706D50020FFF7C4FE25F008055D
S3150800155008202060E80606D50120FFF7BBFE25F027
S3150800156010051020206005F06000602803D1B86CD3
S31508001570C0050AD401E0A80605D525F020052020D7
S315080015802060002006E0680606D525F040054020C4
S3150800159020600120FFF73BFFE80404D525F48055B9
S315080015A04FF480502060E807B8D56D086D0001201B
S315080015B020609AF800000028B0D000F0FCFB012853
S315080015C0ACD199F800000028A8D098F800000428A3
S315080015D0A4D1F868400800F001008A2101FB00A1A7
S315080015E00831002814BF7A683A6812B92268D2040A
S315080015F0F7D5002814BF7868386886E70020206089
S31508001600BDE8F087534800687047F0B589B00446CE
S315080016100D460021032001F01BF904AE1BE000274C
S3150800162001F031F926F8170001F02DF900A921F883
S3150800163017007F1C082FF3DB04A802F0E0FB00204C
S315080016402080218836F8102051402180401C082827
S31508001650F7DB6D1EA41CEDB2002DE0D101F04FF9A9
S31508001660012009B0F0BD0321022001F0F1B8F8B558
S3150800167029244FF6FF7501F006F9281A90FBF4F0B5
S3150800168000F13A06344F3878B8B90321032001F03F
S31508001690DFF802237F223148018800A8FFF7F8FC0B
S315080016A001F0F1F8BDF80010401880B2281A90FB36
S315080016B0F4F0253078700120387001F020F9787838
S315080016C0301A40B2F2BD80B50321022001F0C0F8FD
S315080016D0BDE80140CBE770B500242148007890B9F1
S315080016E0FFF7F1FF0546124E707848B13078401B77
S315080016F040B202F08DFB0B2805DB3570012402E0B1
S31508001700357001207070204670BD16480078704705
S3150800171000200040842000409C77002000A0004064
S315080017204C100040696B0020D0100040802000401B
S31508001730CE7F002094770020686B00202020004090
S31508001740AC6A002004A00040B0780020B8780020D9
S31508001750336C002038200040CC7F0020F6B4020805
S31508001760346C0020D07F002010B584B00A237F2275
S315080017700B48018800A8FFF78BFC4FF6FF74BDF8ED
S315080017800000A04204D14E210FF2180001F00EF914
S315080017902246BDF800100020FEF7D5FD1FBD00004B
S315080017A0F0B40208616E616C6F6775652D66696CC9
S315080017B07465722E63000000DFF81808007848B1D7
S315080017C0DFF814080179012904BF4079042801D1FA
S315080017D00120704700207047010603D54FF67F7138
S315080017E00840C00070478001491C89B2B0FBF1F07F
S315080017F080B2FF2888BFFF20C0F1FF00C0B2704743
S3150800180038B5DFF8D807C17809B1002032BDDFF84E
S31508001810D847617871B1E17800794518ADB2207979
S31508001820854228BF054602F00BFB0121A940491E47
S31508001830084000E0002061790818C0B232BD2DE9E1
S31508001840F0470446C00705D54FF4B8710FF62000D7
S3150800185001F0ACF8DFF89457286DC00748BF8C2014
S3150800186000F18280DFF8740700210170DFF87877CD
S31508001870417829B9397819B1A96F41F0010102E017
S31508001880A96F49084900A967DFF84C8798F8061038
S31508001890DFF85C97DFF85C677A7892B1002202710C
S315080018A0286D40F004002865012906D14FF6FF701F
S315080018B030604FF40070C9F80000FFF7A1FF8246B8
S315080018C00CE0286D20F0040028654FF0000A012975
S315080018D004D100F037FA6420FFF7F0FAA86F20F079
S315080018E00800A8671420E864C5F848A0787838B1D5
S315080018F098F80600002801BFA86C00280120A864F3
S31508001900B8790028286D14BF40F0080020F00800B8
S315080019102865FFF751FF18B1306C40F008003064B5
S31508001920202028626C602C6068687F30686004201C
S3150800193028624FF4E064DFF8C006046006E002F0AF
S315080019408FFA18B102F094FA01F014F8DFF8AC0631
S31508001950006800F003000328F1D0C9F80040286D9C
S3150800196040F0010028650020BDE8F087DFF8900602
S31508001970002141608160016821F002010160DFF801
S3150800198084064FF000710160DFF87C0601210170C2
S315080019907047A0F13301DFF87426914200D37047EF
S315080019A010B5DFF8644600212170FFF719F802E048
S315080019B0012002F061FA20780028F9D010BD2DE93F
S315080019C0F84FDFF83086D8F80000D8F8401001EA5A
S315080019D00004A4B2C8F80040DFF81076DFF8FC551A
S315080019E06878002840F0D580DFF82466DFF8F89597
S315080019F0E0074CD5D7F800A0386C796C41EA00416D
S31508001A00A96099F8000000283DD09AF801008006E0
S31508001A1039D501202870FFF7CFFEC0B31920FFF78C
S31508001A204DFADFF8F0B54FF44040CBF82800DBF864
S31508001A3000000090F06E40F40050F066F06E40F43E
S31508001A408050F066A8689AF800104901B83101EB91
S31508001A50000AFFF7D7FDAAEB00000003000BFFF70B
S31508001A6098FFF06E80098001F066F06E00A909887B
S31508001A700843F0660020CBF8280048F26070F0664C
S31508001A80E888306003E00022002002F0D4F820063F
S31508001A900ED5287830B1002028700022A968402089
S31508001AA002F0C9F8D8F83C0020F48050C8F83C0089
S31508001AB0600608D5687830B9FFF7A4FD002201460C
S31508001AC0892002F0B8F8E00654D5DFF80CA59AF894
S31508001AD00400DFF81CB5012804BF9AF8061001298E
S31508001AE01FD100F0ACFB386F40F0010038670020CA
S31508001AF08AF80600FFF796FB0A20FFF7DFF90024AD
S31508001B004FF6FF70C8F800004FF4E060CBF800000D
S31508001B100920B8660120B864B86F40F00800B867B5
S31508001B2018E02979491C297199F80220C9B291420D
S31508001B3015D2012808BF00F0D8F8B86F20F00800C1
S31508001B40B8671420B866FFF75BFEB8644FF40070F8
S31508001B50CBF80000386D40F0010038650AE001282E
S31508001B6008BF00F0C2F8FFF74DFD002201468D20A0
S31508001B7002F061F820070CD5FFF71EFE48B1306861
S31508001B80E88001203060D8F8400020F00800C8F846
S31508001B904000A0060AD520203862687830B9FFF7D9
S31508001BA031FD00220146882002F045F8687820B108
S31508001BB014F4407F04BF0120A870BDE8F18FDFF858
S31508001BC05C040088704770B582B00446FEF791FD44
S31508001BD0DFF84C0400210160DFF804541521E960A0
S31508001BE0092101651F21416001210166DFF82C04E6
S31508001BF00088FEF7EDFBFFF73BFB02F01BFC00F04D
S31508001C002BF9DFF8D463308900F053F9708900F0B6
S31508001C1058F900F0AFFE696841F04001696000F0CC
S31508001C20BFFE707800F0E9F8B07800F0FAF8DFF84F
S31508001C30F403007800F027F9DFF8EC0390F90000C8
S31508001C40FEF797FD307800F08DF996F9030000F05D
S31508001C5095F902237F22DFF8D403018800A8FFF74D
S31508001C6017FABDF80000C0054CBF0020BDF80000FB
S31508001C70DFF8BC130870DFF8BC030078FEF73BFDFD
S31508001C8028B140F2A6310FF2E83000F08FFE012CA1
S31508001C9005D12868C00711D500F027F80EE06CB901
S31508001CA02868C0070AD400F0CAFA286840F001007C
S31508001CB02860C820FFF702F90020B071DFF8344326
S31508001CC0F120206440F2F910E063FFF7ABFA2868C8
S31508001CD0C00707D54FF6FF702060DFF814034FF4EE
S31508001CE0E0610160FFF706F873BD70B5DFF8485389
S31508001CF02E68DFF8E442A079012822D000F03AFEE7
S31508001D00B6B22E60DFF8F0124FF4E0620A60DFF830
S31508001D1008130A6A520852000A620A6852085200F0
S31508001D200A600A6842F002020A604A6A42F0010240
S31508001D304A620121A17100F033FEBDE8704000F04F
S31508001D404ABA70BD70B5A44CA07948B300F077FACA
S31508001D5000F010FE0546DFF8E40201210160A14EFD
S31508001D60306D40F0010030650020A071FFF75AFA87
S31508001D7020203060306B40F002003063F06D40F098
S31508001D800800F065284600F00BFE0A20FFF796F8D3
S31508001D9098484FF6FF71016095484FF4E06101607D
S31508001DA070BD8D48807970478B480079012808BF37
S31508001DB0FFF79BBF704788480079704780B50228AF
S31508001DC001D3012002BD844908718979884205D06A
S31508001DD010B9FFF7B7FF01E0FFF787FF002002BD44
S31508001DE097480068800200149A386FF07F0201B2A3
S31508001DF09142B8BF104640B2704710B5044600F08D
S31508001E00B9FD9049002C0A6804D042F012020A6013
S31508001E10012103E022F012020A6000216E4A517085
S31508001E2040E038B5044600F0A5FD0546FFF76DFC11
S31508001E3040B98448002C016814BF41F0800121F0A4
S31508001E4080010160644884702846BDE8324000F08D
S31508001E50A7BD6148807870477B487C494A780B78EB
S31508001E6013EB02220260CA788B7813EB02224260D7
S31508001E704A790B7913EB02228260CA79897911EBC8
S31508001E800221C160704710B5044600F073FD6D4924
S31508001E90002C0A6814BF42F0200222F020020A60D1
S31508001EA060490C70BDE8104000F07ABD4A480089C8
S31508001EB0704749490881664908607047464840891D
S31508001EC07047454948816349086070476248007809
S31508001ED070475148816A41F002018162012101601F
S31508001EE070474D4800210160816A21F00201816234
S31508001EF05020FEF7E3BF38B5584C59482169018090
S31508001F00E1694180574DE96C818000202061FFF727
S31508001F10E0FF0120E0610020606220624CF25D0073
S31508001F20E864286840F4004028604FF400402060C8
S31508001F3048F20200206031BD80B5FFF7D2FF47485E
S31508001F404FF4004101600021016046490A6822F405
S31508001F5000420A60424A9388CB641188016151881D
S31508001F60C16101BD1E4900280A6814BF42F0020279
S31508001F7022F002020A6018490870704738B504460C
S31508001F807F2C0ED102237F223748018800A8FFF74D
S31508001F907FF8BDF80000C00554BFBDF800406FF0DB
S31508001FA04A0400F0E7FC0546FFF7AFFB30B964B218
S31508001FB004F19A008005000C2C4908600648C47094
S31508001FC0284600F0EDFC31BD034890F90300704740
S31508001FD000000000D27F00202E6C0020B078002080
S31508001FE08020004030200040C06B002010200040B8
S31508001FF000E100E004A0004080E100E0A8200040E5
S3150800200010E000E004ED00E0D37F0020CDFF0700DC
S3150800201064100040E410004060200040786B002007
S315080020205C100040D17F00206C6B0020FEB40208D3
S31508002030B77F0020686B00201C1000402810004065
S315080020400C1000408420004098200040F8760020BC
S3150800205094200040902000402C6C0020181000406E
S315080020600C7F0020C010004000B502085410004044
S315080020707068792D636F6D6D6F6E2E6300000000BA
S31508002080F8B50120FEF74EFD0020FEF7ADFE844CA4
S31508002090206840F008002060FEF7F3F8FEF794FE8B
S315080020A0804E81480178F16080494278CA60804A4A
S315080020B08378D3607F4BC578DD607F4D0779EF6005
S315080020C0078A3760478A7760868A0E60C68A4E60B6
S315080020D0018B1160418B5160818B1960C18B5960EE
S315080020E0008C286000F077F8206820F01000206047
S315080020F0FEF781F802F093FA02F08CFBFEF7ACFDCE
S31508002100FEF7BDF8BDE8F140FEF7D6B840F201602B
S3150800211002F082BB2DE9F04F00F055F80F200021A0
S315080021204FEA8A0202F03CFC204018EA010108BF87
S3150800213000281AD000254FF00F092046414605EB26
S315080021408A0202F03FFC10F001000BD0A80009FA41
S3150800215000F127EA01013BF81A2009FA00F01040BD
S3150800216040EA01076D1C042DE7D329E02DE9F04F5D
S3150800217000F029F8FF2000214FEACA0202F010FCFD
S31508002180204018EA010108BF002819D000254FF0A1
S3150800219001092046414605EBCA0202F013FC10F07D
S315080021A001000AD009FA05F027EA00001AF80B1010
S315080021B009FA05F2114041EA00076D1C082DE8D31B
S315080021C03760BDE8F08F83460E4692463768364834
S315080021D0D0E90E48704710B5334CD4E90E010029F2
S315080021E008BF002824D00022354900F022F8012231
S315080021F0344900F01EF80222334900F01AF800228A
S31508002200284900F019F801222C4900F015F8022295
S31508002210264900F011F803222C4900F00DF8042293
S31508002220234900F009F80522294904F1240054E05D
S3150800223010BD04F1080099E704F124006AE710B517
S31508002240194CD4E90E01002908BF002827D000221E
S315080022501B492046FFF78AFF01221A492046FFF745
S3150800226085FF022218492046FFF780FF00220D4904
S3150800227000F030F80122114900F02CF802220B492F
S3150800228000F028F80322114900F024F8042208492E
S3150800229000F020F805220E4904F110001DE010BDDB
S315080022A000BC004000B00040D86A002000B20040E0
S315080022B000B4004000B6004000B8004004B000403A
S315080022C00CB000400CB200400CB4004004B2004010
S315080022D004B4004004F110001CE7BDE8104019E7FB
S315080022E080B502F0BDFB0FF24C0101EB800002BD88
S315080022F010B502F0B5FB044602F0B6FBC0B208B949
S31508002300012C07D1072C11D8DFE804F004100608C1
S31508002310080A0C0E002010BD092010BD022010BDB1
S31508002320032010BD0B2010BD062010BD44F0800010
S3150800233010BD0000554E4B004649420042544C0021
S3150800234045585400505752005744470020535700E9
S31508002350435253004653480042414400464C5400F9
S315080023602A490A68920992010A600A6810430860B5
S3150800237027484FF400410160002101606420FEF700
S315080023809DBD2DE9F0478046224DD5F80090286876
S3150800239040F4004028601D4F386820F480503860AB
S315080023A01D4C207868B11D48A178627800EB82023E
S315080023B012F82A2C891A00EB880010F82A0C4618FD
S315080023C002E0202601202070B0B2FFF7C9FF0FF205
S315080023D0500A02E0B0B2FFF7C3FF386B042805D0F5
S315080023E0386B400754BF761E761CF3E7F86A38B197
S315080023F084F80180A6701FFA89F02860BDE8F08786
S3150800240040F22111504600F0D1FAE6E7D01000401C
S31508002410181000401C100040B57E0020B4080008C3
S31508002420616E616C6F6775652D76636F2E6300004C
S315080024304FF4FE52810189B20C20FDF784BF2DE9C5
S31508002440F84F8C4CA568ADB200264FF00A08012754
S31508002450B94620681FFA80FA00F051FAB0202063C6
S31508002460DFF814B2DBF800000120FEF727FDB9F10A
S31508002470000F11D0AAF10300874202DAF81C87B2CE
S3150800248013E057460AF5004020600621092000F0AF
S31508002490DFF94FF000090BE0DBF80000000707D56D
S315080024A0042FA6BFF81E87B2002707F50040206054
S315080024B01A2EA8BF6FF0090804DA16F1190FB8BF6B
S315080024C04FF00A08464436B27019A060DBF80000DF
S315080024D00007C9D5012FC7DAB9F1000FC4D1A56025
S315080024E0C4F800A00820CBF800006448006880B251
S315080024F0BDE8F28F80B562494FF0FF325C4B1B781E
S315080025006BB1002819BF4A605E48486041F2111055
S3150800251008605D4841880088BDE804408FE70028C8
S3150800252019BF4A600A604860086000F0E8F90621A9
S315080025300920BDE8044000F0DCB938B50120FFF7F2
S31508002540D9FF04460020FFF7D5FF05460120FFF70F
S31508002550D1FF4042001B00EB450000B232BD2DE919
S31508002560F04F83B0494CA06AADF804002068ADF876
S315080025700200474D2868ADF800003D4E307858B146
S315080025804FF6FF7200210820FDF7D6FE8146C022CD
S31508002590C0210820FDF7D7FEDFF8F8803E4800780E
S315080025A018B148F26070C8F80000708840F44040DE
S315080025B040F04C00C8F83C000220A06201202060D0
S315080025C040F24C40FEF77AFC0120E86028602E4F66
S315080025D00020388040207880307800B12020FFF72E
S315080025E027FFFFF7AAFF8346402038807F207880A0
S315080025F0FFF71EFFFFF7A1FF00F050F8FE2101FBD1
S3150800260000FAABEB070B307850B1384601F000FC06
S3150800261000F044F880B20AEB8711B1FBF0F004E051
S3150800262000F03DF880B2BAFBF0F080B2401CC70358
S31508002630BDF8000028600020E86002202060BDF890
S3150800264002002060BDF80400A0620020C8F83C0023
S31508002650307830B14FF6FF721FFA89F10820FDF77E
S3150800266072FE40F24C40FEF729FC380CBDE8FE8F9E
S31508002670286C0020C010004018A0004000700040E0
S3150800268038100040EEEEFFFF087F00206020004073
S3150800269028100040D0100040696B002007465846B5
S315080026A001F0B6BB3F22410089B201E03F22014654
S315080026B00220FDF748BE2DE9F04F93B0564CE06C6A
S315080026C0ADF808002068ADF80600544DE86AADF884
S315080026D004004FF6FF7200210120FDF72DFEADF82C
S315080026E002004FF6FF7200210B20FDF725FEADF81C
S315080026F000004FF40040206000202861686148F21D
S31508002700020000F08DF84CF68C30E06448F2F000D8
S31508002710E8624FF4805211460120FDF714FE4FF689
S31508002720FF7200210B20FDF70EFE0621062000F0A1
S31508002730E0F8804600F087F883464CF69C30E06463
S315080027400020FFF7AFFF0621084600F081F80026B3
S31508002750B0B2FFF7A7FF0621062000F079F800F0CF
S3150800276092F803A921F81600761C202EF0DB00F05B
S315080027708AF81020FFF796FF00F065F8A0EB0B002B
S31508002780BDF82C10A1EB0801404301FB01094FF0ED
S31508002790100A112700F050F800F055F800F045F837
S315080027A005DB81461FFA87FA7F1C202FF2DB50468D
S315080027B010280ED10F2700F03FF800F044F800F07B
S315080027C034F806DB81461FFA87FA781E07B2002F0F
S315080027D0F1D5BDF80800E064BDF806002060BDF834
S315080027E00400E8624FF6FF72BDF802100120FDF7FB
S315080027F0AAFD4FF6FF72BDF800100B20FDF7A3FDEA
S3150800280001202861002000F00BF84FEA4A00C0B208
S3150800281013B0BDE8F08F0000C0100040181000404B
S31508002820286040F24C40FEF749BBA0EB0B00404342
S3150800283006FB06004845704703A830F81700A0EBCA
S315080028400806B8B22EE70621072000F052B80000A5
S3150800285070B505460E4600F093F83F4C206C20F004
S315080028600800206400F09AF800F084F8310341EA81
S31508002870C51141F00101394A116008212160BDE8FE
S31508002880704000F08DB82DE9F041354C354D324E8B
S3150800289025E000F075F8344804210160306C40F0FA
S315080028A0080030642F68286840084000286000F057
S315080028B06DF8D4F80080206820F04000206000F011
S315080028C061F8C4F800802F6000F060F8306C20F0E2
S315080028D00800306425480421016000F05FF830687C
S315080028E00007D6D5082030602148006880B2BDE8C8
S315080028F0F08180B5FFF7ACFFBDE80140C3E7174894
S3150800290001684908490001607047F8B50746FEF7AF
S3150800291094FA044639460320FFF7EBFF0546394685
S315080029200120FFF7E6FF0646FDF705FD39460020BC
S31508002930FFF7DFFF0746FDF7FDFC08480168490871
S3150800294049000160781B0004711BB0FBF1F060437D
S315080029504000000CF2BD000018A0004004700040C2
S315080029600080004094ED00E000E100E080E200E035
S3150800297000700040EFF31180602181F311887047E1
S3150800298072B6704700BF30BF00BF7047BFF35F8F96
S31508002990BFF34F8FBFF36F8F7047000062B6704763
S315080029A080F311887047000042DE704738B5044648
S315080029B00D46FDF76DFCFFF7DDFF2946204602F0C0
S315080029C069F82B4622460FF2D411012002F0BCF911
S315080029D029462046BDE83440E6E72DE9F8434FF49A
S315080029E02065664E371D664801687965016AB965CE
S315080029F064490968F965416A3966816A7966C16A0E
S31508002A00B966016BF966806B386797F8340040073A
S31508002A104CBFFC6BBC6BA04601F090FF01463965C4
S31508002A200022FA64584A594BA646DFF864C186451F
S31508002A3024BFACF12009F1451DD354F8180F3864AA
S31508002A4054F8040F7864786DC005C00D062816D1B1
S31508002A50386C984213D3904211D200884DF64264DE
S31508002A60A0420CD106F18C00746844607C688460CE
S31508002A7040F2017503E000243C647C6480464548C6
S31508002A80814202D2014600E0091D614503D20C6865
S31508002A90B4F1CD3FF8D0ACEB0100B86400200024B7
S31508002AA006EB80018C67401C0628F9D3002003E05A
S31508002AB0C0B206EB8004A167E04523D25CF8041D8A
S31508002AC09942F9D39142F7D2CC07F5D5002406EB03
S31508002AD0840EDEF878E08E4502D0641C062CF6DB00
S31508002AE0062CE9D1002814BF401E0520E0E7796FBF
S31508002AF0002406EB8402D36F9367641C052CF8DB6D
S31508002B00C6F88C100146481EC9B20029EFD1786D67
S31508002B10C005C00D02280AD0032815D0042816D0EF
S31508002B20052817D0062818D00C281CD01EE01A48ED
S31508002B300168890748BF40F602151CD40068C0071B
S31508002B4019D540F2025516E040F6012513E040F685
S31508002B50022510E040F603250DE0B5F5206F0AD1F1
S31508002B6040F6042507E040F6052504E018B12428B8
S31508002B7038BF40F607252846BDE8F2830000002046
S31508002B8004ED00E000E300E0E09002089001000890
S31508002B90786A0020980000201CA000400D0A5B41BE
S31508002BA053534552543A25703A25645D0D0A000080
S31508002BB0814233D21018401E5118491E10E0121FC8
S31508002BC011F8013900F8013911F8013900F801390D
S31508002BD011F8013900F8013911F8013900F80139FD
S31508002BE092B2042AEBD292B2002A1EBF11F801391A
S31508002BF000F80139521EF6D17047121F11F8013B31
S31508002C0000F8013B11F8013B00F8013B11F8013BC4
S31508002C1000F8013B11F8013B00F8013B92B2042A87
S31508002C20EBD292B2002A1EBF11F8013B00F8013B15
S31508002C30521EF6D1704710E0121F11F8013B00F83A
S31508002C40013B11F8013B00F8013B11F8013B00F884
S31508002C50013B11F8013B00F8013B92B2042AEBD282
S31508002C6092B2002A1EBF11F8013B00F8013B521E22
S31508002C70F6D17047130003D00A46194602F08EB8FB
S31508002C80704710B500E0521E92B23AB110F8013BF7
S31508002C9011F8014BA342F6D0181B10BD002010BD39
S31508002CA02DE9FE4F80460B250B22FF2100A8FFF7D2
S31508002CB0E1FFDFF8A8A03622FF215046FFF7DAFF2A
S31508002CC00027274CDFF89C90274EB85D401C00EB88
S31508002CD0D070401017F809B0395D01B11930401CA1
S31508002CE000FB0BF292B2214830F817100FF2800061
S31508002CF001F00EFFBBF1010F1CBF2AF817505D4407
S31508002D007F1C0B2FE1DB0B2340F21C42F3210FF251
S31508002D107C0001F0FDFE0FF2A4054FF4E04000F040
S31508002D200EF918B1CA212846FFF740FE4FF4804035
S31508002D3000F005F918B1CC212846FFF737FE4FF405
S31508002D40805000F0FCF818B1CE212846FFF72EFE79
S31508002D5000A9404600F020F9BDE8FE8F98720020D1
S31508002D60589C0208709C0208649C0208409C020851
S31508002D7043726561746F723A2030782532582C2078
S31508002D80576F7264733A2025640A000053696D45CB
S31508002D904520646174613A20256420776F726473F4
S31508002DA0206F66202564206D61782C20746F6B6512
S31508002DB06E436F756E743A2025640A0073696D2D2B
S31508002DC0656570726F6D2E630000000010B5DFF840
S31508002DD0D43ADFF8D44A2488001B06E010B5DFF899
S31508002DE0C43ADFF8C84A24681B1B03EB40000023DB
S31508002DF004E030F8134021F813405B1C9342F8DBDB
S31508002E00002010BD2DE9F04182B004460D46164655
S31508002E100027DFF8908A01E0B81CC7B2B7421ADA71
S31508002E2078194078795D01EB0020ADF800000122A1
S31508002E3000A907EBD77004EB6000DFF86C3A1B8833
S31508002E40C01A08EB400002F028F80028E4D002F087
S31508002E506AF8002000E00120BDE8F681F8B50446CE
S31508002E600E46154600270DE000F019F8761C04EB0F
S31508002E704700BDF80010090A4170BDF8000004F8C3
S31508002E8017007F1CB7EB550FEEDBE80706D500F0F9
S31508002E9006F82819BDF8001000F8011CF1BD01223A
S31508002EA000A9B0B292E7DFF8FC19DFF8FC2912880E
S31508002EB0801A01EB4001022001F0B6BFDFF8F019D5
S31508002EC0415CDFF8F029825CDFF8EC39C05C10B1B0
S31508002ED002F5997292B241EAC21080B2704710B5F3
S31508002EE0DFF8D83903EB4002DFF8C449005D012852
S31508002EF001D1104610BD1088081803EB400010BD1C
S31508002F0038B50C46DFF8B8190D782A462146FFF77A
S31508002F105DFF208800281CBF4FF6FF7188420AD043
S31508002F20012000E0401CC0B2A84206D234F81010B6
S31508002F3022889142F6D0002032BD012032BDF0B57C
S31508002F4087B0DFF8681908600C2200A90020FFF78F
S31508002F5045FF00A98A89C88A0346040A0120002574
S31508002F604FF6FF7731F81560BDF800C0B44503D1B8
S31508002F70BE4218BF002E00D100206D1C062DF1DBC5
S31508002F80BA1A944518BF0020DBB2C4F1FF018B4280
S31508002F9018BF002007B0F0BD2DE9F04F9DB0894657
S31508002FA00446DFF82079002038707880DFF81809A1
S31508002FB00088ADF8000008A9FFF7A2FF82460120A5
S31508002FC07870DFF808090588DFF80409B0F800808A
S31508002FD0BDF80060DFF8D0080088ADF80400834625
S31508002FE00AA9FFF78DFFD0B1BAF1000F43D04FF60B
S31508002FF0FE70BDF82010814204D1BDF828000128D2
S3150800300006D10FE0012904BFBDF82810814232D04D
S31508003010BDF82000BDF8281088422CD202E0BAF18B
S31508003020000F27D0002078703046CDF808B00795F5
S31508003030CDF81480DFF8881809788DF80610081876
S31508003040ADF8100000F05FFABDF81000FFF7BEFEFD
S31508003050DFF8800800880690BDF80200000B4FF6DE
S31508003060FF789DF80610884218BF0F2800D114B3C0
S31508003070002515E0012478780028D5D05846029610
S31508003080CDF81C800595D5E7069805FB00F4BDF834
S31508003090040000F02DFCBDF8000000F029FC6D1CB2
S315080030A09DF806008542EFDB012038704D2001F0BF
S315080030B03AFF0025FDE0BDF8105000F024FA284636
S315080030C0FFF784FE6E1CBDF80200C043C0B2ADF81F
S315080030D00200DFF804080588BDF80200A84218BFF8
S315080030E001244FF0000A1FE0401CC1B2A94217D2C2
S315080030F0C0B28346DFF8E41731F81B10BDF80E207E
S315080031009142F1D1FFF7DAFE4FF680710840BDF81B
S315080031100C104FF680721140884208BF0BF809A0C0
S315080031200AF101001FFA80FABDF80200824507DAA3
S31508003130022203A9B0B2FFF749FEB61C0020D4E765
S31508003140002100E0491CA94219DA11F80900884251
S31508003150F8D0012413E02AF81160012201A9BDF86C
S31508003160103003EB4000401C00F0D1FABDF8040013
S31508003170C0F3C710401C00EBD07006EB6006DFF802
S315080031803CA7B6B20598864213DA012200A9304652
S31508003190FFF71CFEBDF8000040450AD0761C000A61
S315080031A0BDF8001001F07F02BDF80210884202DB6C
S315080031B0012400252DE0002100E0491CA942CCDAB3
S315080031C011F809308342F8D1C9B2FF29C5D07F2A40
S315080031D00CBF4FF0000C9446DFF8D436CB5C9C4508
S315080031E00BDABDF800C04FEA0C6C4FEADC7CDFF85E
S315080031F0C8E611F80EE0F44501D00124ADE7012B2D
S31508003200A9D07F2A08BF00223AF811105118A2E760
S315080032106D1CDFF8CC060088854204DA3AF81500FA
S315080032204045F5D101247E80B5B2059885420ADA73
S31508003230012200A92846FFF7C9FD6E1CBDF800004B
S315080032404045F1D032E7002CFCD101220CA90298A6
S3150800325000F05DFABDF8300040450DD105E0401C90
S3150800326080B2202813D32034A4B20799029A891A67
S315080032708C4205DB0120387000201DB0BDE8F08FB8
S31508003280A51820220CA9A8B2FFF7A0FD00200CA9BA
S3150800329031F810104145E2D0A8B2FFF704FE203CF1
S315080032A0A4B2E0E70298069905FB010000F021FBAD
S315080032B06D1C9DF806008542F4DB012038704146F6
S315080032C000F043F818B100F022F90028D4D1012003
S315080032D0D3E72DE9F84504460D4616469A46314683
S315080032E02846FFF7FCFDB0F80080DFF8C875DFF860
S315080032F0E81509888D420AD27F2E08BF0026DFF816
S31508003300B005285C864202DAE85D824503D040F2C1
S31508003310DA4100F0F8F9DFF8A005285C68B1414603
S31508003320284600F027FAE95D012908BF20700AD06F
S31508003330022914BF2060208005E0524641462046F7
S31508003340BDE8F8458AE5BDE8F1852DE9F34F83B078
S31508003350DFF854050488DFF86C05407800281ABFA2
S31508003360DFF8640500882046DFF8541509780D183B
S31508003370ADB2DFF864050088ADF80800C043C0B2F6
S3150800338000EB013000F55060ADF8020000F0C9F915
S315080033902B1B00F0C2F96E1CB6B2002832D10025EC
S315080033A0DFF8387510E0E8B2FFF788FDADF80400DD
S315080033B037F81500ADF80600022200F0ABF9002830
S315080033C020D1B61CB6B26D1CBDF808008542EADBF2
S315080033D0002500E06D1CBDF80800854280F28E804D
S315080033E04FF0000A1AE000F08EF81FFA89F0FFF78E
S315080033F0EDFC09F1010900F094F9BB191B1B00F05B
S315080034008CF9002874D17F1CFFB25F45EBDBDFF82F
S31508003410D404285C8619B6B20AF1010ADFF89004CA
S3150800342015F800B05FFA8AFADA45D3D25146E8B2FF
S31508003430FFF755FD8046B8F80090DFF87C042F5C4E
S31508003440F80140EA0520ADF80000BBF1010FBDF810
S3150800345000000CBF40F07F004AEA0000ADF800000B
S31508003460DFF84004311B00EB4100711C89B2019161
S315080034704FF6FF7189451EBFBDF80010BDF8102034
S31508003480914218D19DF80C100029C5D0012200A937
S3150800349001F003FD019E58BBA8F80060DFF814048C
S315080034A02A5CDFF8440450F82510B0B2FFF7AAFCEE
S315080034B00028ACD11FE0DFF8FC13695C491C01EB5E
S315080034C0D171C9054FEA116B012200A901F0E5FC8B
S315080034D0019E68B9A8F80060002F95D04946E8B261
S315080034E000F048F901905A4600F014F900288ED0E9
S315080034F001F019FD002005B0BDE8F08FDFF8C40320
S3150800350046800120F7E701220DF1020170472DE9F7
S31508003510F04182B0DFF8B0030688DFF88C03048830
S31508003520DFF8A0536878002812BF204630462646A2
S31508003530012200A9FFF74AFCBDF8000001280CBFCC
S315080035404FF6FE70401EADF80000DFF874030778EA
S31508003550DFF850833846471E70B1012200A9BFB272
S31508003560B819001B08EB400001F097FC0028F1D0C1
S3150800357001F0D9FC002006E0687880F00100687048
S31508003580002028700120BDE8F6812DE9FE4F83460C
S315080035900C4617469A4600208DF804000125394640
S315080035A05846FFF79CFC81465E46CB4909888B4501
S315080035B00AD27F2F08BF0027BD48305C874203DA4E
S315080035C0BC48305C824503D040F2FD5100F09BF8C0
S315080035D0BC4F787820B1BD48B0F80080B24803E007
S315080035E0BB48B0F80080B8480088397849B9798866
S315080035F0081ABE4909888842B4BF4320442001F00E
S3150800360092FCB9F80010AC48305C78B1584600F026
S31508003610B1F8BAF1010F08BF217804D0BAF1020F48
S315080036200CBF2188216881426BD02BE002914FF0B4
S31508003630000B23E0012200A902980BEBDB7300EBD9
S31508003640630000F064F80BEB040040781BF80410E4
S3150800365001EB002080B2AAF101018B4505D1C0B269
S31508003660BDF80010C9B2ADF80010BDF800108842C8
S3150800367018BF00250BF102005FFA80FBD345D9DBA2
S31508003680002D3ED1FFF73FFFB9F80000401E00F0BD
S315080036903EF89448355C7888A8F10101491B8142B7
S315080036A000DB60B9387808B945201CE0BDF802107F
S315080036B00020FFF74AFE20B301208DF80400788821
S315080036C0401C78807B49725C214680B2FFF79AFBE2
S315080036D0B8B100F026F87B885B1E734C24881B1B48
S315080036E000F01BF810B101F01EFC0AE09DF804007A
S315080036F010B1FFF70CFF20B17888A9F80000281848
S315080037007880BDE8F78F0FF2F010FFF74FB980B257
S31508003710FFF75CBB01A96348331B00EB430001F0CC
S31508003720BCBB01220DF102015E48704770B582B03C
S31508003730044600251926012200A9A0B2FFF746FB78
S31508003740641CBDF8000048B14FF47F41401A02D00E
S31508003750FF3806D007E0681C40B276BDAD1C761E61
S31508003760E9D168B276BDBDF80000C0B200B96D1CDB
S31508003770E843F1E738B50C46002100914D49455C10
S315080037802A46214600A8FFF769FB681C00EBD070A3
S3150800379004EB600080B2FFF7C9FF002848BFC043AA
S315080037A0009940B2401832BDF0B583B004462546AC
S315080037B0424830F81560484909888C4202D23E488A
S315080037C0285C18B94FF4E761FFF79DFF39482D5C6F
S315080037D0681C00EBD07006EB6007B8B2FFF7A6FFCF
S315080037E0322814D2C1074CBF00214FF47F41ADF8EF
S315080037F00410012201A92B4BBFB207EB60002A4F28
S315080038003F88C01B03EB400001F047FB60B131461F
S315080038102046FFF7AFFF0090401C00902B467F2202
S3150800382000A92046FFF7B1FEF7BDF8B50027254CDD
S315080038302078002832D11C480588607800281ABFED
S31508003840214806882E461E4807783846471E02280D
S315080038501DD3012200A9FFB2B819FFF758FFBDF81A
S3150800386000000028F1D01B48008807FB006000F024
S3150800387040F80020ADF80000012200A90948BB194C
S315080038805B1BFFF74AFF48B101F04DFB06E03046E7
S31508003890FFF709FBFFB20FB9012020703846F2BDC9
S315080038A00000000000E00708C49602080077002020
S315080038B0709C0208649C0208589C020898720020B2
S315080038C0C0960208047F0020C8960208C696020819
S315080038D0CA960208C2960208CE960208409C0208BA
S315080038E0D0960208D4960208009D0208CC960208D3
S315080038F0201880B2FFF7D7BA73696D2D65657072A7
S315080039006F6D2D696E7465726E616C2E63000000B2
S31508003910F8B50600244C276814D0FFF72BF8234D7A
S315080039202978226822F8116037F8021BB142FBD1C8
S31508003930FFF736F8B81E2168401AC0052978000E28
S31508003940884200D1FF20F2BD2DE9F8438146184C84
S315080039502668164D287806EBC007FFF70BF8804651
S31508003960082249463846FFF723F9F88800E0083662
S31508003970F188814202BF31883A889142F7D171882D
S315080039807A88914202BFB188BA889142EFD14046FF
S31508003990FFF706F82068301A40052978000E884295
S315080039A008BFFF20BDE8F283B06A0020A86A00209D
S315080039B0B46A002070B504460D461646804801785C
S315080039C019B14188491C418070BD204601F009FBA8
S315080039D080B1FEF73EFA38B1A078002E14BF40F049
S315080039E0010000F0FE00A0702E2229462046BDE800
S315080039F0704000E070BDF8B506460C461546701CCA
S31508003A0001F0F2FA10F0070F1ABF41F64901884291
S31508003A1000250121281980B201F07BFF0746012104
S31508003A20002002F054F93078411C89B2022002F0D5
S31508003A304EF927B962488188491C8180F1BD38460C
S31508003A4001F067FE22463146FFF7B2F8384601F024
S31508003A5060FE2A4600212018FFF70CF9384601F0C7
S31508003A60DAFFBDE8F14002F003BC2DE9FE4301F0A0
S31508003A70E1FF8046524E70880FF25C1548B10090FF
S31508003A800FF268138B222946072003F037F9002026
S31508003A907080B18869B10D2002F019F9B0880090DC
S31508003AA00FF2541391222946072003F027F9002024
S31508003AB0B080B8F1000F6CD0404601F02AFE0546EA
S31508003AC095F80090681C01F08FFA10F0070F1BBFDD
S31508003AD041F64901884200242E24404601F02FFE73
S31508003AE00822614240190818A0F1080101A8FFF749
S31508003AF05FF801AFF878FDF76FFE4946FDF773FEEC
S31508003B00044697F9020000F166072E48007848B186
S31508003B10B06800283DD07BB222464946404600F0B0
S31508003B203AF836E0404603F0DAFB90B30521404602
S31508003B3001F0E1FF8146032001F00FF8224E09F05B
S31508003B40070030702148FF2101706C70AF709DF836
S31508003B500400E870404603F080FF0328404602D17F
S31508003B6005F0CEF815E003F069FF00F0050004281B
S31508003B7006D03078032803D1404605F076FE40B9D2
S31508003B8000224146124805F01EFF1248007806F04A
S31508003B9018F9BDE8F78330B5A1B014461D460022D2
S31508003BA000924B1CDBB2014601A801F063FF2A46CE
S31508003BB0214601A8024B9B68984721B030BD0000FA
S31508003BC0C07E0020B1780020D77F0020D87F002053
S31508003BD01A7E0020C875002069702D6D61632D72EC
S31508003BE06563656976652E6300000000666C61672B
S31508003BF020782575000000006D656D207825750014
S31508003C0038B504465348002912BF00210178491CDB
S31508003C1001700121012002F05AF84F4D2878411C05
S31508003C2089B2032002F053F84C4844702846BDE890
S31508003C303240FDF704BE10B5144688B3402820D09C
S31508003C40882818BF89282FD08D2830D08F2832D1C0
S31508003C504348007804280DD144B142480221017036
S31508003C6040F63540BDE8104006F0C0B8FEF79CF8AF
S31508003C7031201CE0FEF798F8002C0CBF31200020FC
S31508003C8015E03448007838490978884204D200217A
S31508003C900120BDE81040B3E7FEF786F8402006E0AD
S31508003CA0FEF782F8002002E0FEF77EF88D20BDE8D8
S31508003CB0104005F09ABD9A210FF2BC00BDE81040ED
S31508003CC0FEF774BE27480078022800D0704780B5F2
S31508003CD026480078012807D003280ED12448007802
S31508003CE0022818BF7C2808D106F09BF8FEF75CF876
S31508003CF00020BDE8024005F078BD01BD38B50024B6
S31508003D00FEF738FE05461748007810B9FDF7E3FCBC
S31508003D1004462846FEF744FE002C1CBFBDE8314089
S31508003D2001F047B931BDD6210FF24C00FEF73EBE71
S31508003D3038B5104C2068216C01EA0005ADB2680759
S31508003D4005D5206C20F00400206406F0DBF8256019
S31508003D5031BD0000D67F00202E7F0020C06B0020DA
S31508003D60336C0020E07F0020C56C0020D77F002040
S31508003D70D87F002008A000406D61632D656D32353F
S31508003D80302E63000649026812BACA60426812BA3F
S31508003D908A60826812BA4A60C06800BA08607047CA
S31508003DA038300040024980220A60024A04E000BF17
S31508003DB00030004010A000400623136007230B6064
S31508003DC013689B07FCD503681BBA8B6243681BBA4A
S31508003DD08B6283681BBA8B62C3681BBA8B621368D3
S31508003DE05B07FCD50A6B12BA02600A6B12BA42600C
S31508003DF00A6B12BA8260096B09BAC160704710B5BE
S31508003E0004460846FFF7BEFF2046BDE81040C9E74E
S31508003E10002848BF4042704781B209B94BF6EF61A6
S31508003E200E4A1180000C08BF4FF6CE20508070470E
S31508003E300288130448BF4A40510001801046704763
S31508003E4038B5064C62212046FFF7F2FF054641F2D7
S31508003E500B01A01CFFF7ECFF684032BD646B002025
S31508003E60EFF3118060288041C043C00F70470000FF
S31508003E70002181F3118870472DE9F04F93B007466A
S31508003E80DFF85C4560681190072F08BF032702D04A
S31508003E90082F08BF0227DFF84C5528686A68A96802
S31508003EA0EB6850EA022050EA014050EA03622969A9
S31508003EB0CDE902216868400703D5E06940F00200B1
S31508003EC0E0612868400703D5E06940F00400E06136
S31508003ED0DDE902230120E96988401040002118B174
S31508003EE0E06940F00800E061DFF8F084C8E90011F5
S31508003EF0DFF8F4A4012F00F03F82C0F06582032F9B
S31508003F001DD004D3042F40F05F82616017E0DAF811
S31508003F104000C00703D5E06940F04000E061DAF8E8
S31508003F204000400703D5E06940F02000E061DAF878
S31508003F304000800703D5E06940F01000E061FEF715
S31508003F4019FDFCF7B2F98DF8400000270120DFF8CB
S31508003F509C14C1F50041090B8840401EDFF89064A7
S31508003F60B063000A07D1DFF88C04007818B1606CDA
S31508003F7040F020006064DAF840000F90DAF8440058
S31508003F800E90DFF87404C06C0D90DFF86C04006DB9
S31508003F900C90DFF86404406D0B90DFF85C04806DCC
S31508003FA00A90306809907068089070690790706A7E
S31508003FB00690706B0590DFF84404D0F800E0DFF84F
S31508003FC040040068049002202060DFF83804006886
S31508003FD08DF80000DFF8300400688DF80100DFF87E
S31508003FE02C0400688DF80200DFF8240400688DF8B8
S31508003FF00300DFF8200400688DF804004FF0FF3056
S315080040006062DFF814040068C0040CD56868C0074D
S3150800401009D5E069C00706D50127D8E9000140F4AB
S315080040208070C8E90001DFF8F003006880040CD549
S315080040306868400609D5E069C00706D50127D8E9AA
S31508004040000140F48040C8E90001DFF8CC030068AD
S31508004050400412D5DDE902230120A96988401040F1
S315080040600BD0E069C00708D50127D8E90023A9695C
S3150800407007FA01F01043C8E90003DFF89C0300685B
S31508004080000415D5DDE902230120E96988401040BE
S315080040900ED0E069C00702D4E069000708D50127F9
S315080040A0D8E90023E96907FA01F01043C8E90003D3
S315080040B0DFF864030068C00309D5E069000606D581
S315080040C0012798F8050040F0080088F805004FF029
S315080040D0000C6868C00748BF4FF4805C68684006F3
S315080040E048BF4CF4005CDDE902230120A969884039
S315080040F0104018BF4CF4804C0120E96988401040F4
S3150800410018BF4CF4004CE069C00605D4E069800687
S3150800411002D4E069400601D54CF0100CE0690006AF
S3150800412048BF4CF4803C0CEA0E09A520FCF7B4F80D
S315080041300120E063E069A16B11B1616A0142FAD01E
S31508004140616A014200F0EE800020E06398F80500FD
S3150800415040F0400088F80500FEF712FC05987063E9
S315080041600720CAF80000A4480F21016005F032FFB5
S31508004170119860600F98CAF840000E98CAF8440073
S315080041809D480D99C1640C9901650B9941650A9979
S31508004190816509983060089870600798706106987C
S315080041A070629648C0F800909548049901609B484B
S315080041B04FF0FF3101609348006888F80000924884
S315080041C0006888F801009148006888F8020090485D
S315080041D0006888F803008F48006888F80400606A59
S315080041E00021E2691040EF69D8E90069DDE900239A
S315080041F0564089EA0309DDE90223164009EA03095C
S315080042000206520E02F001029202164349EAE279C8
S315080042100206920E02F001029200164349EAE2797A
S315080042200206D20E02F00102BA40D31746EA020786
S3150800423049EA030600F47C70242200F0B1FB3843F7
S315080042403143C8E90001FEF795FBFEF7A7FB0020FE
S3150800425020609DF8400008B1FCF713F898F805703F
S3150800426066480068C00303D5380744BF202020628B
S31508004270DAF84000800704D5F80744BF0220CAF8D8
S315080042800C00DAF84000400704D5B80744BF0420FC
S31508004290CAF80C00DAF84000C00704D5780744BF0E
S315080042A00120CAF80C00D8E900235348C06C10F066
S315080042B0E00F18BF12F4807003D057484FF48051AE
S315080042C001604D48006D10F0E00F18BF12F48040F1
S315080042D003D051484FF4005101604748406D10F033
S315080042E0E00F08D00120A9698840104003D04A4849
S315080042F04FF4804101604048806D10F0E00F08D00F
S315080043000120E9698840104003D043484FF4004132
S31508004310016047F0800088F8050013B0BDE8F04F4B
S31508004320FFF7A6BD002F7FF411AFB0694008400023
S31508004330B0613348806840F0040031498860DFF88E
S31508004340E0B0BBF8000040F20721884202BFBBF884
S3150800435002004FF20F01884204D14CF23C30ABF810
S3150800436002000127012005F06FFE002F03D04FF24F
S315080043700F00ABF80200F1E6FBF797FF0446A5200D
S31508004380FBF78AFFFEF7FCFAFFF772FD254DD5F815
S3150800439000802868400840002860FEF7F7FA224F98
S315080043A03E68386820F040003860FEF7EBFA3E6059
S315080043B0C5F80080FEF7EAFA0CB1FBF762FF13B006
S315080043C0BDE8F04FFEF7EABA40F24A410FF25C0048
S315080043D013B0BDE8F04FFEF7E9BA0000906D002073
S315080043E00400004008BC004014A000400000000083
S315080043F0044000409807080814A8004000E100E0BF
S3150800440008ED00E008B0004008B2004008B40040DB
S3150800441008B6004008B8004000E200E080E200E08C
S315080044200000002094ED00E000800040736C656594
S31508004430702E630010B50F4C207840B908237F22F0
S315080044400D480188201DFCF723FE0120207010BDB1
S3150800445010B5084C08220146201DFEF7A9FB0120CD
S315080044602070FDF7F9FC05F015FEBDE8104005F0D3
S3150800447042BE0000F476002002B5020838B501F005
S31508004480FCFE044601F00EFF054601F046FF0094C7
S315080044902B4602460FF21421012006F0A1F8BDE8CA
S315080044A0314001F02CBF012006F033BF30B599B07A
S315080044B00446206800F0E5FDC5B200A8642107F0AF
S315080044C041F92168642D31BF2A4663226818A0F194
S315080044D0630100A8FEF76CFB616800A807F003FDFE
S315080044E019B030BD1FB5044600A95C4805F09EFE0C
S315080044F000A807F0E7FE204607F0A7FC1FBD054603
S31508004500574C04F18C0007F0AAFF204608F04FF933
S3150800451008F0A6FC01F01FFE524801F085FE08F0DF
S31508004520D0FC514804F008FB504835B150492A7868
S315080045300A7069780170A87802E0012101700020EC
S315080045404C49087007F0BFFF04F1080007F07FFF29
S3150800455000F08DFA016809B1FFF7A8FFFBF798FE8E
S3150800456008F085FC01F064FE0FF2DC1005F0EAFBAA
S31508004570204608F0A4F9F1E7F0B583B0FDF780FD11
S31508004580FFF776FC012300220F21012000F0D6FB5D
S31508004590364801210170374800210170364807F076
S315080045A056FF0FF2FC0422460FF22C11012006F0EA
S315080045B017F801F077FE054601F05FFE064601F0A2
S315080045C0ACFE074601F0A9FE019500963B46024659
S315080045D00FF21411012006F003F822460FF23811E3
S315080045E0012005F0F5FF0020FFF789FF0020FEBD3A
S315080045F000B583B001910090204B0FF264121E495A
S31508004600002007F00DFF48B10FF294020FF20811CF
S31508004610012003B05DF804EB05F0DABF07BD70476B
S31508004620704770470020704710B50FF2F40000F08D
S31508004630DFFD08F02EFA0FF2F40000F0D9FD104C59
S31508004640204600F01FFE0FF2F00000F0D1FDA01C7E
S3150800465000F018FEBDE8104000F0CEBDE87400205A
S315080046601871002033E30108E54400082874002087
S31508004670BC7F00202974002020710020E1E2010897
S31508004680FC7E002010B5144630B1002208F080FDEB
S31508004690204609F0C5F90120BDE8104004F0B4BE73
S315080046A069702D6D6F64656D000000006368616E4A
S315080046B06E656C2025752C2070616E20696420302B
S315080046C0782532782C2073686F72742069642030DC
S315080046D0782532780000000025732D6170702072ED
S315080046E065616479000000006368616E6E656C2020
S315080046F02575202830782578292C206E6F6465204A
S3150800470069642030782532782C2070616E206964BF
S31508004710203078253278000025733E2000000000FE
S3150800472055415254206C696E6B0000006B65792008
S31508004730746F6B656E0000006D666753656E645036
S3150800474061636B65740000002C720020AD5C000884
S315080047508C720020FF5C00080000000000000000CA
S315080047604096020800000000499002084896020890
S31508004770489602084C960208000000005D6E000884
S31508004780509602084896020854960208000000004F
S315080047905D6E000850960208489602085C96020864
S315080047A0000000005D6E0008689602084896020838
S315080047B06C960208000000008390020848960208DA
S315080047C04896020880960208000000007D4400080A
S315080047D048960208489602088896020800000000D3
S315080047E0A7440008489602084896020894960208C4
S315080047F000000000AB6700084896020848960208C1
S31508004800000000000000000000000000000000009A
S31508004810000000007047000010B50446FEF7AAF82D
S315080048204B48302101604B4801604B4801604B48BA
S3150800483010210160200A08BF2402494804804FF26B
S315080048400F014180BFF35F8F464800210160416038
S3150800485045484649016010BD45480168C90708D55D
S31508004860444903220A70016C490849000164012180
S3150800487001600168090703D5016C21F0080101648C
S31508004880704780B5002000F009F830B9FC210FF216
S31508004890FC00BDE80440FEF789B801BD2DE9FC44DB
S315080048A0354C414222688D1815F01F0108D00028A2
S315080048B002D44842451903E04842401900F1200550
S315080048C0A5F120062D48A84224BF2D48864203D3C9
S315080048D0EFF30880854201D300202DE0FEF74AF861
S315080048E082462848006810F0010718BF05F08AFBC1
S315080048F0206801468D4206D2A84224BFCD2100F881
S315080049000119F9D206E02038002201E000F8012B4F
S315080049108842FBD32560304605F079FBE22001E0AA
S3150800492006F8010BAE42FBD30FB105F053FB504618
S31508004930FEF736F820682038BDE8F6840E48006889
S3150800494070470D480068203870470F4870470000C8
S315080049503020004030C8004030C0004010E0004021
S31508004960000000201C4000400CED00E00400FA05A1
S3150800497018A00040C57F00207C6B0020A05B0020AB
S315080049807017002094ED00E0000000206D69637246
S315080049906F2D696E7465726E616C2E63000000007F
S315080049A0D2B2203A22BF00FA02F1002070475242E2
S315080049B0D041D2F1200291404140D0409040414040
S315080049C070470000D2B2203A22BF21FA02F0002135
S315080049D070472032D141D04048409140D1404840AC
S315080049E07047000030B523480168002000220124E2
S315080049F09440CBB2234212D00FF2880030F812004E
S31508004A004CF23C314FF20F021B4B06281CD158883A
S31508004A10904215D11888020A0B2A11D212E0521CAC
S31508004A2092B2082AE3D315490881088940F201722F
S31508004A30904204D11248D0E90023C1E9002330BDD1
S31508004A404FF4C0605980EEE740F20724A04201BF48
S31508004A505D8895421A88A242E5D159802046E2E748
S31508004A6006480089000A70470448008970470348C9
S31508004A70704700002C00004000000020186F00203E
S31508004A809000002001040204010301050600070244
S31508004A900309010903460A469DA10420FFE70CB451
S31508004AA080B502AA00F060F801BC5DF80CFB21B1E4
S31508004AB003460A4697A11120F1E7704700B589B069
S31508004AC0FDF716FC002107910691059104910391C3
S31508004AD00291019190490091002302460FF2482164
S31508004AE00120FFF7DCFF8D48C178039181680291A8
S31508004AF08188019181780091437802780FF23421F8
S31508004B004320FFF7CCFF09B000BD85490870704700
S31508004B100EB430B58AB00446814D2878A0B109F0A4
S31508004B200CF888B100A8686028206870022100A8DF
S31508004B3009F00BF8A8700DAB224600210FF275108C
S31508004B4005F06FFC00F0D9F80AB030BC5DF810FB30
S31508004B500C2200217348FEF78DB8724931F81020EF
S31508004B60521C21F8102070472DE9F0418CB00746F9
S31508004B700D46904600266A4C207890B9002F18BF3B
S31508004B80012F0ED0042F18BF052F0AD0312F18BFBA
S31508004B90332F06D0372F1EBF3B2F4FF6FF708742A5
S31508004BA07BD108F0CAFF002877D002A860602820C9
S31508004BB06070394602A808F0C8FFA070002D6AD0B8
S31508004BC007E08DF80400012201A9002000F072F820
S31508004BD06D1C287800285ED0A0F13001C9B20A29D8
S31508004BE005D20A2101FB0600A0F13006F0E74228AB
S31508004BF018BF44280CD0462827D0572808D0622842
S31508004C0036D0662821D06C281CD070281DD0D8E74D
S31508004C10422807D158F8042B00A9012000F0F5F91D
S31508004C2001220DE0572858F8042B00A904D10120C9
S31508004C3000F0EBF9022203E0012000F0E6F9042275
S31508004C4000A9C2E758F8046BC2E758F8041B4628BF
S31508004C5007D10026705C00281EBF761CF6B2FF2E10
S31508004C60F8D1F2B2002000F025F8A0B90026AFE787
S31508004C7058F8047BBFB2002FAAD0384600F05FFD73
S31508004C800446384600F045FDE2B20146002000F031
S31508004C9011F800289CD000F030F80CB0BDE8F0817F
S31508004CA00B461146122804BF1846FFF7A1BC7047E9
S31508004CB000000000F8B50C461500194E1BD0B07858
S31508004CC071780F1AFFB2BD42B8BF2F463A46214641
S31508004CD07368C018FDF76CFFB0783818B070ED1B14
S31508004CE03C19EDB23DB1B11C706808F09FFF002871
S31508004CF0E5D00120F2BD0020F2BD10B5084CA11C7C
S31508004D00606808F093FF08B1012010BDA07010BDBF
S31508004D10574600006C700000F876002034960208AA
S31508004D20EC730020F473002042423870424242423B
S31508004D305742420042424257444200000020704710
S31508004D4026207047002070470CB480B502AA00F0F0
S31508004D5005F802BC5DF80CFB80B50DE080B513467E
S31508004D600A460146034805F05CFB401E8041C00F19
S31508004D7002BD0000594D000808461146FFF797FE88
S31508004D80002002BD10B50C46204600F07AF9C1B2E3
S31508004D902046FFF78CFE002010BD000062F30F22AC
S31508004DA062F31F42401810F0030308D0C91A1FD334
S31508004DB0DB0748BF00F8012D28BF20F8022D130095
S31508004DC030B414461546103928BF20E93C00FAD8F5
S31508004DD0490728BF20E90C0048BF40F8042D890080
S31508004DE028BF20F8022D48BF00F8012D30BC7047B7
S31508004DF0C91818BF00F8012DCB0728BF00F8012DE8
S31508004E00704700004148018A40F6A772914202BFE6
S31508004E10418A4FF47F40014204D102298041C043B0
S31508004E20C00F7047002070472DE9F84F8246884624
S31508004E30FDF7A0FD0446364D2F6828684008400057
S31508004E402860FDF7A3FDDFF8C0B001208BF800004D
S31508004E50FFF7D8FF20B9FF210FF2B800FDF7A6FD2E
S31508004E602A48D0F8289041464AF48070C847064632
S31508004E702F60FDF78BFD2046FDF792FD00208BF88D
S31508004E8000000FF298040EB1305D04E041464AF482
S31508004E900070C847005DBDE8F28F2DE9F84F8046DF
S31508004EA089464FEA420AFDF765FD0546184E3768FA
S31508004EB03068400840003060FDF768FDFFF7A2FF44
S31508004EC028B94FF4A1710FF24C00FDF76FFD0F489A
S31508004ED0D0F824B00023524649464046D8470446EF
S31508004EE03760FDF753FD2846FDF75AFD0FF22C05EE
S31508004EF00CB1605D05E05346002249464046D84756
S31508004F00405DBDE8F28F0000C17F00200000080860
S31508004F1094ED00E0666C6173682E6300000202027D
S31508004F204B4B4647704770B504460FF29405433815
S31508004F3008D0401E012809D9801E01280ED9C01F95
S31508004F4030D029E0BDE87040FEF76FBC002600E0CF
S31508004F500126FEF76AFC0028FAD11EBB124E3078ED
S31508004F6000BB012030700020FDF79AFE452C10D0BA
S31508004F700BD3472C01D003D307E040F6010001E02C
S31508004F8040F60200FFF748FC03E097212846FDF7A4
S31508004F900DFD0020307070BDA9212846BDE870407F
S31508004FA0FDF704BD70BD0000B47F00207047704750
S31508004FB070477047704770477047704770470000E2
S31508004FC07468726561642D63616C6C6261636B2DD4
S31508004FD073747562732E630070470020704708F07B
S31508004FE0AEBE0120704700004178007801E00178E4
S31508004FF0407800EB012080B270470170090A4170C1
S3150800500070470A0A02704170704710B500230028DD
S3150800501014BF1C46C3F10304E4B26254120A5B1CB3
S31508005020042BF4D310BD30B54A788B78CC78097840
S3150800503018B120461D460C4602E0084615461A4693
S3150800504045EA002044EA022141EA004030BD10B595
S31508005050002300E05B1CDBB28B4205D210F8014B43
S315080050609442F7D0002010BD012010BD10B50023D2
S3150800507004E0541EE41A645C1C545B1C9342F8DB7F
S3150800508010BD10B5002480B14FF6FF7102E08C42C6
S3150800509006D0641CA4B2225C002AF8D18C4204D142
S315080050A05A210FF26800FDF781FC204610BD10F862
S315080050B0012B11F8013B0AB19A42F8D0D01A40B236
S315080050C0704730B5994228BF1946002303E0401CB3
S315080050D0521C08339BB203F10804A14203DB04788F
S315080050E01578AC42F3D08B420DDA8024007812781A
S315080050F05040C043C0B202E064085B1C9BB28B42BE
S3150800510001DA0442F8D1184630BD000062797465A8
S315080051102D7574696C69746965732E6300000000E7
S3150800512010B5DFF84449FFF710FCE060FFF709FC0B
S315080051302061E068606118B100F00AF8652806D2B7
S315080051407C210FF63030BDE81040FDF72FBC10BDAE
S3150800515010B5DFF8144920696169884202D28821AE
S3150800516000F055FC20696169401A4FF6FE71084047
S3150800517010BDDFF8F418CA68904203D3496988421B
S3150800518000F069BC00207047002818BFFFF7F1BF80
S315080051900120704730B1DFF8D018C968401A4010AE
S315080051A0401C80B2704728B1DFF8BC18C96801EB0B
S315080051B04000801E70474088C004C00CC01C000414
S315080051C0800C4000001D80B2704710B50446FFF7FA
S315080051D0F2FF04EB40004FF6FF7200E0801CDFF898
S315080051E088184969884202D201889142F6D010BDD2
S315080051F0DFF8781808607047DFF870080FF668213E
S31508005200016070472DE9F8430446DFF85C58E888E2
S31508005210B0B36088000433D40FF65828DFF84C780A
S315080052200FF64421386808F0A9FF20B940F2511159
S315080052304046FDF7BBFB002601E0701C86B2E888F5
S31508005240864204DB40F253114046FDF7AFFBD5F822
S31508005250189059F83600396810B949F8361003E03D
S3150800526008F08CFF0028E8D109EBC605A888401C81
S31508005270A8802046FFF79FFFE98801EB4000E880F9
S31508005280BDE8F18370B50446DFF8DC07007801282D
S315080052901AD12088FFF787FF04002DD0022526465D
S315080052A03046FFF7AFFF708840F40040708036F84C
S315080052B01500FFF778FF060002D070880004EFD5C6
S315080052C06D1C042D18DAEAE7022815D1FDF752FB02
S315080052D005462088FFF767FF48B14188890402D54B
S315080052E081688C4203D000884004400C2080284600
S315080052F0BDE87040FDF754BB70BD00B5ADF2B44DC6
S315080053004FF4966200A900F05FF80DF2B44D00BDA7
S31508005310F8B504460D46FFF74EFF46006088800440
S31508005320800C6080800411D5FDF724FB0746B2B2D5
S3150800533021462846FDF73CFCA06821884904490C0B
S3150800534001803846BDE8F240FDF72ABBB2B22146D5
S315080053502846BDE8F840FDF72BBC10B50C4601E021
S31508005360FFF733FFA04202D241880904F8D510BDE1
S3150800537070B50446DFF8F0562878012804BFE869B6
S3150800538000281CD1204604F006FB022817D300216A
S31508005390204604F011FB0DE0012100F057FA70B920
S315080053A03046FFF700FF0088000408D4314620463F
S315080053B004F02FFB0600EFD1EC61012070BD2046FA
S315080053C0FFF760FF002070BD2DE9F74F92B0DFF8B8
S315080053D098460020A080E061FDF7CCFA6188ADF818
S315080053E002100021618061690191FDF7D9FAE08810
S315080053F0C20092B20021A069FDF73CFC012000F032
S3150800540080F9129848B1002501E080476D1CEDB27D
S31508005410129850F825000100F7D10027D4F80C900F
S3150800542001250DF1080B0198814501D3012F34DBC5
S31508005430012F04DB7F1EFFB25BF8278004E0C84615
S315080054404846FFF7C2FE8146B8F8020000F440411C
S31508005450B1F5004FE7D140F48040A8F802004FF0BC
S31508005460020A38F81A00FFF79EFE06000FD0708869
S3150800547001040CD440F4004070803046FFF7C2FEA9
S31508005480102FBDBF4BF827607F1CFFB200250AF11D
S31508005490010ABAF1040FE4D3C5E7002DBDD0E569CA
S315080054A055B12888FFF77FFE4088000447BF0020D3
S315080054B0E0612846FFF7E6FE00202070ADF8000000
S315080054C000258346E06990B30021008800F0BEF904
S315080054D0ADF80000294600F0B9F90746BDF8000006
S315080054E000F02DF90546384600F029F98346BDF83F
S315080054F05000584518DB384600F021F9064638466C
