S01B00005468726561645F53616D706C655F436C69656E742E73333702
S31508004000E8E00020C1D6020829CD02082DCD020815
S31508004010A70A080100410008040803AC11101001A2
S315080040200000000000000000000000000000000082
S315080040300000000000000000000000000000000072
S315080040400000000000000000FFFFFFFFFFFFFFFF6A
S31508004050FFFFFFFF00E00708000000000000000067
S31508004060FFFFFFFFFFFFFFFFFFFFFFFFFFFFFFFF52
S31508004070FFFFFFFFFFFFFFFFFFFFFFFFFFFFFFFF42
S31508004080F0FF002000000000E9FF0020E9FF002003
S31508004090E8E00020C80003085AD9020810D2002018
S311080040A07017002000000808000001202E
S31508004100E8E00020C1D6020829CD02082DCD020814
S3150800411035CD020831CD020839CD02088CCF020808
S315080041208CCF02088CCF02088CCF02088CCF0208ED
S315080041303DCD02088CCF02088CCF0208C952000870
S315080041400DC602088CCF0208A57300088CCF02089A
S315080041507BEC0008F59000088CCF02088CCF02088B
S315080041609D860008AF5E0008DB59000891410008EB
S315080041708CCF02086B920008B3920008A9CC0208FB
S31508004180139500088CCF02088CCF02081BCB0208B7
S3150800419070B5A44CA44D60782968490726D503282C
S315080041A024DAA18804EB400291810121A27801FA60
S315080041B000F01043A0709D4A207890B1002320FAA1
S315080041C003F6F60708D5994063704840207014EB4B
S315080041D04300808A106009E05B1CDBB2032BEEDB30
S315080041E004E0106000F0A2F9032060704FF6FF703B
S315080041F02860BFF35F8F70BD38B500F099F90446A3
S3150800420000F095F987480178F9B1884A1368DB0701
S315080042101BD4002521FA05F3DB0711D50123AB4092
S3150800422045705940017000EB45007F49808A10604F
S315080042304FF6FF7008604FF400607D49086005E09E
S315080042406D1CEDB2032DE5DB00E00325204600F0EA
S3150800425075F9284632BD73480021017000220321F2
S3150800426041700021C1700521018100218170001D66
S315080042706E490A604A604FF400428A601022CA609A
S315080042804861012088610320C860042166480164EA
S315080042904FF6FF7101604FF400606549086000F051
S315080042A08EB970B52A29044601D0012070BD5D4D2E
S315080042B02989D00040EA4330084305EB4401888247
S315080042C0012000FA04F6287830420FD100F030F9C0
S315080042D0297831432970A978B143A97000F02EF9DD
S315080042E0FFF78AFFA04201D1812070BD822070BDF0
S315080042F02DE9F843044688464E4F4D4D00F00AFC1A
S3150800430048B92868000506D53868800800F0010015
S3150800431080F0010600E0012600F00AF981463EB168
S315080043202868000504D53868400748BFFFF730FFFE
S315080043303C498A780120A04022FA04F3DB0708D515
S3150800434001EB440350409B89A8F80030887080240C
S3150800435009E00A78024218BF822404D14878A042AC
S315080043600CBF81248424484600F0E8F82046BDE8BE
S31508004370F28338B504460D4629462046FFF7B8FFAE
S31508004380842818BF8028F7D132BD38B504460723DC
S3150800439089222A21FFF785FF224D05F11C012046B7
S315080043A0FFF7E7FF802809D10723B9222A212046EB
S315080043B0FFF777FFA91D2046FFF7DBFF802805D109
S315080043C0E988AA8B891AE980012101E000210120E8
S315080043D0E97032BD38B5134D0446E87808B9FFF7D9
S315080043E0D4FFE878D8B1B5F9060028B94FF480713A
S315080043F00FF2480000F098FBB5F90600B5F91C1055
S3150800440000EBD072611A521002EB014191FBF0F4F5
S3150800441000F0C1FC604300EB8000001432BD064882
S3150800442032BD000060EA002010A8004004E0004009
S3150800443000E100E050A800400080FFFF6164632EA1
S31508004440630000002D480068C00701D42C48704757
S315080044502C48704780B5FFF7F5FF2B49096801B965
S31508004460400802BD80B5FFF7EDFF400802BD00F029
S31508004470F1BD2648012181604EF6BE214160012129
S31508004480016070472249012008607047A52805D1B8
S315080044901E484DF6AD6141600221016070471B4818
S315080044A00068C00701D5012070470020704780B515
S315080044B01849194A1020086018491948007858B14F
S315080044C003280CBF00200120106040F65100086048
S315080044D0002000F0BCFC06E0022010604FF40060EB
S315080044E0086000F078FD07210E480160002101648C
S315080044F010200D490860002002BD00001C40004045
S31508004500001BB70000366E012040004000600040E6
S315080045100860004080E100E0080000400C600040B0
S31508004520B9FF002014A0004000E100E07047704782
S31508004530EFF31180602181F31188704780F31188A9
S3150800454070470000DFF8E43433F810001040C84024
S31508004550704730B5DFF8D8340FF2905434F810406D
S315080045609C60DFF8C84434F810509543114029433D
S31508004570D96002221A6000221A6024F810105868BE
S315080045800028FCD130BDDFF8AC04DFF8AC14DFF846
S31508004590AC2412780AB149780FE089566FF0080200
S315080045A09142B8BF302108DBC16D39B140F24A31BA
S315080045B0C26DB1FBF2F189B2C91E01607047E0B560
S315080045C00A237F22DFF8780400F064F84FF6FF72BA
S315080045D0BDF806100D20FFF7BCFF07BDF8B5054668
S315080045E0DFF85444B5F5004F19D102237F22DFF8CE
S315080045F0540400F04FF8BDF80000000AFF2814BF65
S31508004600002818206070BDF800000006C00E1028AB
S315080046101CBF001D00F097F9BDF80000C543DFF880
S315080046201C64707808B1002005E0A089ADB2684026
S31508004630C00701D501207070A58105F00104C5F3F6
S315080046404007DFF80404016841F4004101604FF4B3
S3150800465040520FF2BC4000EB44004078010389B297
S315080046600220FFF776FF204600F022FF4022B9011C
S3150800467000F006FA2D06A80E00F001003843307047
S31508004680FFF781FF707818B1FFF799FF0020707067
S315080046900020F2BD018800A800F080BF2DE9F04F88
S315080046A087B0DFF8AC43207804900B38C0B203908B
S315080046B00423039A0A2100A800F0E7FF9DF80000EA
S315080046C08DF80A009DF801008DF809009DF8020092
S315080046D08DF808009DF803008DF80500DFF87403CF
S315080046E00078012806BF607880F00107012701F0ED
S315080046F036FA80469DF90200A8F10A0908F10A056A
S31508004700A842B6BF81454FF0010B4FF0000B0120C0
S3150800471003998840ADF80600CC4E9DF801000006C6
S3150800472004D47088BDF80610084201D04FF0010B7A
S3150800473001F092FA9DF8030000060AD4B088BDF885
S315080047400610084205D19DF90000A842B8BF814568
S3150800475002DB4FF0010A01E04FF0000A4BEA0700BE
S315080047605AEA000000F0A080BB480068400800F044
S3150800477001008DF80400DFF8E492D9F8000000F48F
S31508004780E0600590B6484FF4E0610160002001F052
S3150800479014FE00F01EFEB34DAFB1607858B1AE48B6
S315080047A000684008400000F08AF8012101700120E5
S315080047B000F032FB07E0286840F4005028602868BB
S315080047C020F480502860A348007801280CD101F015
S315080047D053FFA148006840F0010000F070F800217E
S315080047E00170642000F018FB607880F001010F4228
S315080047F003D00498C0B201F0FEFF607838B128688B
S3150800480020F480502860286840F400502860BDF8DD
S315080048100600C743BBF1000F08D002F0DAF88DF89E
S3150800482001008DF80280708838407080BAF1000F58
S3150800483008D002F07AF98DF803008DF80080B08868
S315080048403840B0809DF900009DF90A10884202BFE1
S315080048509DF801009DF8091088420BD19DF90200C8
S315080048609DF90810884202BF9DF803009DF80510BF
S31508004870884206D0042300AA0399C9B20A2000F088
S3150800488014FF0598C9F8000000F044FF9DF80400DD
S3150800489001F093FD02F06DFA607828B148F2607075
S315080048A02860642000F0B8FA9DF8010001F0FAFFCC
S315080048B09DF8030002F034F907B0BDE8F08F6649A9
S315080048C008606448704701F046B970B50646A6F117
S315080048D00B0401F0DAFC0546A6F10B00C0B210285D
S315080048E001D38A2070BD60488168090702D4006830
S315080048F0C00701D58C2070BD554806705B48016815
S315080049000C290FD0A4B20FF27C1131F82410584AA2
S3150800491092F900205118C161FFF7C0FE012D08BFAA
S3150800492001F057FC002070BD10B5044601F013F9DC
S315080049302046BDE81040C8E74548007870473E481D
S3150800494090F9000070472DE9F04186B006466FF0F1
S315080049502A00864246DB14237F224648FFF79AFE42
S31508004960BDF810004FF6FF71884203D0400448BFD7
S31508004970012506D43F2200211020FFF7E3FD044657
S3150800498000252D483C4906F12B02D2B22F2A1AD20D
S3150800499013220FF2301300E0521ED2B213F912702E
S315080049A0BE42F9DB03EB420676780E6013F8121066
S315080049B001700020002680460327ADB14FF6BF726E
S315080049C0BDF8101029E0092E0CDA325C0A60067070
S315080049D014237F222948FFF75DFE03200126B046EF
S315080049E02827EAE78B201DE04FF46052C10200F049
S315080049F047F84FF4E062310200F042F880224FEAAD
S31508004A00C81100F03DF884F020003C18A4B2402CF0
S31508004A1028BF3F243F2284F0200100F031F8FFF739
S31508004A20B2FD002006B0BDE8F0810000E0F30020EA
S31508004A30E81000406410004044E20020BFFF002058
S31508004A402CFD020836FD02081C100040FCFE002062
S31508004A5040E20020E8E200208020004000E100E07B
S31508004A6080E100E0D010004060200040AC1000401B
S31508004A70BEFF002028FD0208C01000402AFD0208DB
S31508004A800B2066E5AA2129005523290000252800C0
S31508004A90AA26270055282700002A2600AA2B260022
S31508004AA0552D2500002F2400AA3024005532230056
S31508004AB000342200AA35220055372100003920008B
S31508004AC0AA3A2000D500E601EC02EF03F204F40549
S31508004AD0F506F707F808F909FA0AFB0BFC0DFD0FAE
S31508004AE0FE11FF1300160119021C031F1000110006
S31508004AF02000300040004100500060007000800037
S31508004B009000A000B000C000D000E000F000000057
S31508004B1000000103EFF3118060288041C043C00FF5
S31508004B207047000042DE704738B504460D46FFF769
S31508004B30A9FCFFF7FDFC2946204602F055F92B464D
S31508004B4022460FF2CC11012002F0C6FB2946204668
S31508004B50BDE83440E6E72DE9F84F6548654D01683C
S31508004B602E1D4FF4206A7165016AB16562490968AC
S31508004B70F165416A3166816A7166C16AB166016B1F
S31508004B80F166806B306796F8340040074CBFF76BC8
S31508004B90B76BBB4602F078FC0022584CDFF8608100
S31508004BA0DFF86091F2648742014624BFA4F120032E
S31508004BB0BB4231651DD357F8180F306457F8040FF8
S31508004BC07064706DC005C00D062815D1306C484557
S31508004BD012D3404510D200884DF6426290420BD15E
S31508004BE005F18C006A68426040F2017A7268826058
S31508004BF002E03264726483464348814202D2014627
S31508004C0000E0091DA14203D20B68B3F1CD3FF8D0ED
S31508004C10601AB064182105F1780002F067FC0020DC
S31508004C2003E0C0B205EB80029167A34523D254F88E
S31508004C30041D4945F9D34145F7D2CA07F5D50022DF
S31508004C4005EB82039B6F8B4203D0521CD2B2062A15
S31508004C50F6DB062AE9D1002814BF401E0520E0E746
S31508004C60716F002205EB8203521CDF6F9F67052ACE
S31508004C70F8DBC5F88C100146481EC9B20029EFD1E9
S31508004C80706DC005C00D02280AD0032815D0042867
S31508004C9016D0052817D0062818D00C281CD01EE0D8
S31508004CA01A480168890748BF40F6021A1CD40068EA
S31508004CB0C00719D540F2025A16E040F6012A13E059
S31508004CC040F6022A10E040F6032A0DE0BAF5206FF6
S31508004CD00AD140F6042A07E040F6052A04E018B18E
S31508004CE0242838BF40F6072A5046BDE8F28F000050
S31508004CF004ED00E00000002000E300E0E8E000200A
S31508004D005AD9020890410008980000201CA00040CB
S31508004D100D0A5B4153534552543A25703A25645D52
S31508004D200D0A000010B5674C002002F028F840F67E
S31508004D308C218842206834BF40F0080020F0080023
S31508004D40206010BD10B582B0044600F060F800A8D7
S31508004D5000F024FC9DF801009DF80010FF2902BF11
S31508004D60FF280420002104B1801CC0B2082828BFEF
S31508004D700720082928BF0721534A136823F46073BC
S31508004D8043EAC01010601068C00851EAC0001060FD
S31508004D904E48047013BD00B583B002237F224C48E9
S31508004DA0018800A800F0FAFBBDF800004FF6FF7175
S31508004DB088420EBF4FF4E1600A2190FBF1F0ADF88E
S31508004DC0000042480078F8B100F021F801A800F088
S31508004DD0E5FB9DF80500FF2808BF0420811CC9B221
S31508004DE00829A8BF0721C1F12F02BDF80030C0F17C
S31508004DF02F0002EBD272521000FB0320C1F12F01E3
S31508004E00B0FBF1F0ADF80000BDF800000EBD0223BE
S31508004E107F2230480188704770B506462E4C2568B3
S31508004E20FFF720FB2D49B0FBF1F070432F303021FE
S31508004E30B0FBF1F0032809D3616D41F0010161650A
S31508004E402168491B0903090B8142F9D370BD10B5C6
S31508004E50040004D110BD4FF47A70FFF7DDFF204639
S31508004E60441E80B20028F6D110BD38B50C4620B1D4
S31508004E7001280FD0032820D021E0194D44B1FFF7AF
S31508004E80F1FA1849B0FBF1F0401EB0F5005F0CD2FC
S31508004E90286012E04CB1FFF7E5FA610801EB400023
S31508004EA0B0FBF4F0B0F5003F01D3202032BD0E4927
S31508004EB000F001024A6040080860002032BD212047
S31508004EC032BD000000BC004018000040C1FF0020B1
S31508004ED030FD02082EFD02083820004090D003005D
S31508004EE0100004E020A1070068C80040DFF8580554
S31508004EF05121016070472DE9F0410546FFF7AAFAEE
S31508004F00DFF84815B0FBF1F64FF4F070B0FBF6F792
S31508004F103FB21E2D01DBE81B04D5A8B2BDE8F0415F
S31508004F20FFF77ABFFFF704FB804602F0E3FADFF8E3
S31508004F30200501214170DFF81C05072101600021C9
S31508004F4041608160DFF810154FF000720A60E91BB6
S31508004F5009B27143C91C8908491E416000F0ABF8C3
S31508004F60DFF8E4743C68386820F04000386002F0E6
S31508004F70C3FA3C602E6002F0C3FA02F0C9FA404652
S31508004F80BDE8F041FFF7DABA38B50546FFF762FA29
S31508004F90DFF8B814B0FBF1F44FF4F070B0FBF4F09E
S31508004FA02D1A1E2D04DA98210FF2F840FFF7BCFDE2
S31508004FB0DFF8A00407210160002141608160DFF865
S31508004FC098144FF000720A6005FB04F1C91C8908A1
S31508004FD0491E416031BDDFF88404006800B9704796
S31508004FE02DE9F0410024DFF878542C60DFF874646A
S31508004FF034604FF4A040706041F29A084046FFF7CB
S315080050007AFF6F68FFF72EFA000142F21071B0FBC3
S31508005010F1F000F5C870C01B00B24FF4487190FB60
S31508005020F1F000F3030030604046FFF764FF0827FD
S315080050304046FFF760FF686804197F1EF8D1FFF73E
S3150800504011FA4001211DC908B0FBF1F080B2706069
S31508005050BDE8F081DFF80404006800B9704738B588
S315080050606FF00F04DFF800540120A8602C60802040
S31508005070FFF741FFE868FF2802D8641C102CF5DB0F
S3150800508031BD70B5DFF8E403016841F00101016044
S3150800509001214160FFF74CFA044600F00CF8DFF8EE
S315080050A0A803512101602E6002F02AFA2046BDE8C5
S315080050B07040FFF743BADFF8B8532E6828684008EF
S315080050C04000286002F01CBA0020704710B5DFF8CF
S315080050D08C0300680128BCBF032000F020F8DFF825
S315080050E070430120207000202071DFF88803816951
S315080050F001F00301032907D10020A070042000F065
S3150800510083F80120207110BD0F2101600221816101
S315080051100120E07060706420BDE8104034E72DE996
S31508005120F04140F2DC518846C94DD24ED24FCB4CA5
S315080051302268012A17DA0221B9803160B16901F0C3
S31508005140030103295ED02168002903D5B16941F01E
S315080051500201B161FFF7B8FF5FEA00081BD12068BA
S3150800516000284FD54CE0B8884FF6FF74A04220D1EE
S3150800517002237F22C1480188381D00F00FFAB8883B
S31508005180A04204BF0220B880B069800703D4B06982
S3150800519040F00200B0610120A870B8883060012094
S315080051A068700FFA88F42046FFF7EEFEA0B2BDE855
S315080051B0F081B2699207EAD5AA780AB10846F6E7F5
S315080051C0B16811F00101B26803D10F2809D2401C59
S315080051D006E0920705D53A781AB1032801D3401E8E
S315080051E0B8803970B88802283CBF0220B880306879
S315080051F0B9888842CFD1B06900F00300032801D0EE
S31508005200FFF73FFF0020D2E72DE9F047804600244C
S315080052108D4D974EFFF78CF9814602F06BF94046A3
S31508005220FFF77DFF08B901240AE000F0CBF8D5F8AE
S3150800523000A000F031F9C5F800A0376002F060F967
S3150800524002F066F94846FFF779F9002CE2D0BDE886
S31508005250F0870220D8E710B57E48002141608160BA
S31508005260016821F002010160794C002060707A48DB
S315080052704FF000710160A07840B10020A0700620B0
S31508005280FFF722FF7548006801281CDBE078012833
S3150800529014D17B48012101607A490968C90748BFCA
S315080052A003200FD40221E170016C41F00101016471
S315080052B07548042101607548016010BDE07804282E
S315080052C001D10520E07010BD80B5614840780028FE
S315080052D01CBFBDE80140FFF7BEBF00F0BFFD01BD22
S315080052E02DE9F8435D480068012803DA0420BDE883
S315080052F0F24389E7564C2079002861D15C4EDFF8E5
S3150800530048811DE0FFF714F9054602F0F3F8E07846
S31508005310032810D000F056F8D8F80090D8F8000006
S3150800532020F04000C8F8000002F0E6F8C8F800903F
S31508005330376002F0E5F802F0EBF82846FFF7FEF8CA
S31508005340E0780328DED14B4D4B4EB08828604FF6E7
S31508005350FF777088B8420CD102237F224C48018817
S31508005360B01C00F01BF97088B84202D16420708026
S3150800537001E07088C8B1FFF775F87188334AB0FB49
S31508005380F2F048432F303021B0FBF1F041494A6D25
S3150800539042F001024A650A68AB68DB07FBD50B6871
S315080053A09B1A1B031B0B8342F6D3FFF76AFE0420E6
S315080053B0E070012060704FF4C870BDE8F243E3E581
S315080053C0BDE8F1833768306840084000306002F075
S315080053D097B82DE9F8431E4C2078217981F0010110
S315080053E008422CD01D480068012820DA40F2F7311F
S315080053F00FF2B000FFF798FB19E0FFF799F880461F
S3150800540002F078F8E07805280CD0194EFFF7DAFF95
S315080054100D4DD5F8009000F03FF8C5F800903760BC
S3150800542002F06EF802F074F84046FFF787F8E07865
S315080054300528E2D10020A0700520FFF7E5FE002030
S315080054402070BDE8F18300000080004090D0030082
S31508005450C8FF002010E000E004ED00E0E0DE0208EE
S31508005460104000400C000040084000401C4000402E
S3150800547094ED00E00440004096E2002038FD020862
S3150800548018A000400C40004080E200E000E100E087
S315080054903CFD020838200040286820F040002860BB
S315080054A002F02AB8636C6F636B732E63000000000A
S315080054B0F0B589B004460020FFF744FC0A237F2292
S315080054C02548018800A800F069F84FF6FF75BDF871
S315080054D00200A84204D1DC210FF29400FFF724FB56
S315080054E000260FF2A40701E02A4616B94FF47C42BB
S315080054F003E0022E08BF4EF23F0200A800F032F881
S31508005500761C052EF0D3012C03D114237F221348D1
S3150800551002E014237F221248018803A800F03EF80F
S3150800552000260FF26C072A4608E02A46012E08BF15
S315080055304FF6C07202D0082E08BF002203A800F05A
S3150800554011F8761C0A2EF0D3012C04BF0120FFF7B0
S31508005550F9FB09B0F0BD00002CFD02082AFD02087F
S3150800556028FD020830F81610F05DFEF7F2BF0000BD
S31508005570616E616C6F6775652D63656C6C2D62690C
S3150800558061732E630000000000100C0D0E00000071
S31508005590010203040708090A0B0F000030B5044688
S315080055A010467F2808BF0020B1F5004F83B01AD1F6
S315080055B008237F2240F6120100A8FFF7EFFF082212
S315080055C00FF2380100A802F00EF830B908237F223E
S315080055D040F2A27100A8FFF7E1FF082200A92046C1
S315080055E001F098FF37BD044D294300FB03111A4605
S315080055F0204601F08FFF37BD00000808FFFFFFFFB8
S31508005600FFFFFFFF30B50FF20811DFF8F4500A6804
S3150800561083B001A80024026001202870002001F050
S31508005620F5FF30B1002001F0F1FF10B12C704920D0
S315080056303EBD3448018802237F220DF1020000F0A6
S3150800564024F802237F22002100A800F01EF8204635
S3150800565001A9BDF8022031F81010914208BF0124B3
S31508005660401C0228F4D3BDF8000024B1B0F57F7FB2
S3150800567007D100203EBDB0F57F7F0CBF0620042071
S3150800568000E00720002129703EBD10B5FF2907DC80
S315080056901B4C247844B1BDE81040C9B202F0CFBA19
S315080056A0BDE81040FFF77ABF10BD2DE9F041054669
S315080056B0FF2D0E46174698460FF24C0012DC104C8A
S315080056C02178A1B1617811B1C021FFF72DFA012027
S315080056D06070434632463946E8B202F00CFC0020B8
S315080056E0607004E0BDE8F041CB21FFF71DBABDE8C4
S315080056F0F08103490978002918BF02F00BBD7047ED
S31508005700BCFF002034FD0208746F6B656E2E6300C3
S31508005710FE01FD0210B5DFF8E84410202063FEF70D
S3150800572007FFDFF8E0140A6842F001020A60FEF794
S3150800573005FFDFF8D4046060206061688931616024
S31508005740012121638A30E060A060E0688930E0606A
S3150800575002202063DFF8B4044FF6FF71016010BD24
S31508005760DFF8AC0445F26401C1601E214162502194
S315080057700162C821C1618165F021C16545F69001C4
S315080057804166882181660621C16644F20661016088
S315080057904FF6FF714160DFF87C04007838B1DFF816
S315080057A0780448F2607101604FF4C1514160DFF836
S315080057B06C04016841F004010160DFF8640400210B
S315080057C0417070472DE9F84F0446DFF858248A21BE
S315080057D001FB002101F1080808F101014B7809785D
S315080057E001EB0326B6B206F4404A002106F44063EC
S315080057F00425B3F5006F08BF082503D0B3F5406F3D
S3150800580008BF0E255FEA0A0303D073065CBFAB1C0C
S31508005810DDB2DFF814341B78537000EB020989F8FF
S31508005820021006F02700232867D1DFF80074786E87
S31508005830000662D505EB0800DFF8F4B3BAF5404F69
S3150800584002D102F037FD0AE0BAF5004F13D14078CD
S3150800585015F8081001EB002080B202F00FFD0021B8
S31508005860FF2807D0DBF8002032F810004FF45672F4
S31508005870104200D001214FF480604FF40062F9B164
S3150800588033071DD4BAF5004F08BFAB1C04D0BAF5D0
S31508005890404F02D105F10803DDB26B08002C14BF96
S315080058A07E683E689E421CD3002C14BF7E683E6804
S315080058B003F1010A5645F7D315F80830042B10D121
S315080058C079B1F96DC90608D4B96C04B1104601421C
S315080058D003D0786C40F001007864012089F8020052
S315080058E00BE0F96DC90608D5B96C04B1104601423A
S315080058F003D0786C400840007864BDE8F18F2DE944
S31508005900FC4E0446DFF81C638A2000FB046000F1A5
S31508005910080BDFF81853002C0CBF28686868C1B25A
S31508005920052903D27068401C706054E040005FFA95
S3150800593080F909EB0B0010F8081D427802EB0121EB
S315080059401FFA81FA7178017000214170B94FF86B1E
S3150800595020F48050F863686ED4B9386840051CD4C2
S315080059601AF4E45F0FD100F025FD10B15FEA4A4052
S3150800597009D59BF80000802805D2A01982784946E7
S31508005980584602F0CDFC002C0CBF0120022021E075
S31508005990012CE5D138680005E2D5A748017889B118
S315080059A000210170A54801681AF4E45F02D00022BC
S315080059B0402005E09BF80100000900F001028F2055
S315080059C002F0EFFD002C0CBF4FF480604FF400602E
S315080059D03860D8E72861BDE8F38E2DE9F0478B4C8F
S315080059E02068216C01EA0005944E904FDFF850823A
S315080059F0DFF84492DFF82CA219E038B14878C006DF
S31508005A0004D4002231688F2002F0CBFD280605D584
S31508005A1002F00EFE25F0800580202060E80506D5F8
S31508005A2002F006FE25F480754FF480702060002D84
S31508005A305CD0280706D50020FFF7C4FE25F0080528
S31508005A4008202060E80606D50120FFF7BBFE25F0F2
S31508005A5010051020206005F06000602803D1B86C9E
S31508005A60C0050AD401E0A80605D525F020052020A2
S31508005A702060002006E0680606D525F0400540208F
S31508005A8020600120FFF73BFFE80404D525F4805584
S31508005A904FF480502060E807B8D56D086D000120E6
S31508005AA020609AF800000028B0D000F0F8FB012822
S31508005AB0ACD199F800000028A8D098F8000004286E
S31508005AC0A4D1F868400800F001008A2101FB00A172
S31508005AD00831002814BF7A683A6812B92268D204D5
S31508005AE0F7D5002814BF7868386886E70020206054
S31508005AF0BDE8F087534800687047F0B589B004469A
S31508005B000D460021032001F0DDF804AE1BE0002756
S31508005B1001F0F3F826F8170001F0EFF800A921F8CC
S31508005B2017007F1C082FF3DB04A802F01EFE0020D6
S31508005B302080218836F8102051402180401C0828F2
S31508005B40F7DB6D1EA41CEDB2002DE0D101F011F9B2
S31508005B50012009B0F0BD0321022001F0B3B8F8B561
S31508005B6029244FF6FF7501F0C8F8281A90FBF4F0BF
S31508005B7000F13A06344F3878B8B90321032001F00A
S31508005B80A1F802237F223148018800A8FFF706FD05
S31508005B9001F0B3F8BDF80010401880B2281A90FB3F
S31508005BA0F4F0253078700120387001F0E2F8787842
S31508005BB0301A40B2F2BD80B50321022001F082F806
S31508005BC0BDE80140CBE770B500242148007890B9BC
S31508005BD0FFF7F1FF0546124E707848B13078401B42
S31508005BE040B202F0CBFD0B2805DB3570012402E03C
S31508005BF0357001207070204670BD164800787047D1
S31508005C00002000408420004058F7002000A00040F3
S31508005C104C10004041E20020D01000408020004097
S31508005C20D5FF002050F7002040E200202020004049
S31508005C3064E1002004A000406CF8002074F80020FD
S31508005C40E7E2002038200040D3FF002032FD02089A
S31508005C50E8E20020D7FF002010B584B00A237F228F
S31508005C600B48018800A8FFF799FC4FF6FF74BDF8AA
S31508005C700000A04204D14E210FF21800FEF754FF8F
S31508005C802246BDF800100020FEF763FC1FBD000089
S31508005C902CFD0208616E616C6F6775652D66696C0F
S31508005CA07465722E63000000DFF87407007848B147
S31508005CB0DFF870070179012904BF4079042801D16A
S31508005CC00120704700207047010603D54FF67F7103
S31508005CD00840C00070478001491C89B2B0FBF1F04A
S31508005CE080B2FF2888BFFF20C0F1FF00C0B270470E
S31508005CF038B5DFF83407C17809B1002032BDDFF8BE
S31508005D003447617871B1E17800794518ADB22079E8
S31508005D10854228BF054602F049FD0121A940491ED2
S31508005D20084000E0002061790818C0B232BD2DE9AC
S31508005D30F0470446C00705D54FF4B8710FF27070E6
S31508005D40FEF7F2FEDFF8F056286DC00748BF8C2034
S31508005D5000F18280DFF8D00600210170DFF8D476E2
S31508005D60417829B9397819B1A96F41F0010102E0E2
S31508005D70A96F49084900A967DFF8A88698F80610A8
S31508005D80DFF8B896DFF8B8667A7892B10022027121
S31508005D90286D40F004002865012906D14FF6FF70EA
S31508005DA030604FF40070C9F80000FFF7A1FF824683
S31508005DB00CE0286D20F0040028654FF0000A012940
S31508005DC004D100F033FA6420FFF726F8A86F20F014
S31508005DD00800A8671420E864C5F848A0787838B1A0
S31508005DE098F80600002801BFA86C00280120A864BE
S31508005DF0B8790028286D14BF40F0080020F0080084
S31508005E002865FFF751FF18B1306C40F00800306480
S31508005E10202028626C602C6068687F3068600420E7
S31508005E2028624FF4E064DFF81C06046006E0FEF71B
S31508005E3071FE18B102F0CAFCFEF77AFBDFF8080615
S31508005E40006800F003000328F1D0C9F80040286D67
S31508005E5040F0010028650020BDE8F087DFF8EC0572
S31508005E60002141608160016821F002010160DFF8CC
S31508005E70E0054FF000710160DFF8D80501210170D7
S31508005E807047A0F13301DFF8D025914200D370475F
S31508005E9010B5DFF8C04500212170FFF775F802E05C
S31508005EA0012002F097FC20780028F9D010BD2DE9D2
S31508005EB0F84FDFF88C85D8F80000D8F8401001EACA
S31508005EC00004A4B2C8F80040DFF86C75DFF858552E
S31508005ED06878002840F0D580DFF88065DFF85495AB
S31508005EE0E0074CD5D7F800A0386C796C41EA004138
S31508005EF0A96099F8000000283DD09AF801008006AC
S31508005F0039D501202870FFF7CFFEC0B31920FEF758
S31508005F1083FFDFF84CB54FF44040CBF82800DBF898
S31508005F2000000090F06E40F40050F066F06E40F409
S31508005F308050F066A8689AF800104901B83101EB5C
S31508005F40000AFFF7D7FDAAEB00000003000BFFF7D6
S31508005F5098FFF06E80098001F066F06E00A9098846
S31508005F600843F0660020CBF8280048F26070F06617
S31508005F70E888306003E00022002002F012FB2006C9
S31508005F800ED5287830B1002028700022A968402054
S31508005F9002F007FBD8F83C0020F48050C8F83C0013
S31508005FA0600608D5687830B9FFF7A4FD00220146D7
S31508005FB0892002F0F6FAE00654D5DFF868A49AF8C4
S31508005FC00400DFF878B4012804BF9AF806100129FE
S31508005FD01FD100F051FB386F40F0010038670020F0
S31508005FE08AF80600FFF796FB0A20FEF715FF00243D
S31508005FF04FF6FF70C8F800004FF4E060CBF80000D9
S315080060000920B8660120B864B86F40F00800B86780
S3150800601018E02979491C297199F80220C9B29142D8
S3150800602015D2012808BF00F0D4F8B86F20F0080090
S31508006030B8671420B866FFF75BFEB8644FF40070C3
S31508006040CBF80000386D40F0010038650AE00128F9
S3150800605008BF00F0BEF8FFF74DFD002201468D206F
S3150800606002F09FFA20070CD5FFF71EFE48B13068EC
S31508006070E88001203060D8F8400020F00800C8F811
S315080060804000A0060AD520203862687830B9FFF7A4
S3150800609031FD00220146882002F083FA687820B193
S315080060A014F4407F04BF0120A870BDE8F18F70B5D5
S315080060B082B00446FEF707FCDFF8B0030021016052
S315080060C0DFF868531521E960092101651F21416040
S315080060D001210166DFF890030088FEF77FFAFFF7D3
S315080060E03FFB02F037FE00F02BF9DFF83863308902
S315080060F000F053F9708900F058F9FEF719FA696843
S3150800610041F040016960FEF719FA707800F0E9F885
S31508006110B07800F0FAF8DFF85803007800F027F9AD
S31508006120DFF8500390F90000FEF70DFC307800F018
S3150800613044F996F9030000F04CF902237F22DFF8B0
S315080061403803018800A8FFF729FABDF80000C00542
S315080061504CBF0020BDF80000DFF820130870DFF8F8
S3150800616020030078FEF7B1FB28B140F2A6310FF202
S315080061704030FEF7D9FC012C05D12868C00711D597
S3150800618000F027F80EE06CB92868C0070AD400F0BA
S3150800619073FA286840F001002860C820FEF73CFE24
S315080061A00020B071DFF89842F120206440F2F9101F
S315080061B0E063FFF7AFFA2868C00707D54FF6FF7008
S315080061C02060DFF878024FF4E0610160FFF701F91B
S315080061D073BD70B5DFF8AC522E68DFF84842A07977
S315080061E0012822D0FEF7A4F9B6B22E60DFF85412C1
S315080061F04FF4E0620A60DFF86C120A6A520852002D
S315080062000A620A68520852000A600A6842F00202E4
S315080062100A604A6A42F001024A620121A171FEF748
S315080062208DF9BDE8704000F020BA70BD70B57D4CA0
S31508006230A07948B300F020FAFEF77AF90546DFF8A8
S315080062404802012101607A4E306D40F00100306548
S315080062500020A071FFF75EFA20203060306B40F016
S3150800626002003063F06D40F00800F0652846FEF73E
S3150800627065F90A20FEF7D0FD71484FF6FF710160F7
S315080062806E484FF4E061016070BD664880797047DA
S3150800629064480079012808BFFFF79BBF704761482B
S315080062A00079704780B5022801D3012002BD5D49F7
S315080062B008718979884205D010B9FFF7B7FF01E060
S315080062C0FFF787FF002002BD7048006880020014AF
S315080062D09A386FF07F0201B29142B8BF104640B2B9
S315080062E0704710B50446FEF723F96949002C0A6879
S315080062F004D042F012020A60012103E022F01202E1
S315080063000A600021474A517040E038B50446FEF756
S315080063100FF90546FFF771FC40B95D48002C016886
S3150800632014BF41F0800121F0800101603D4884706E
S315080063302846BDE83240FEF701B93A4880787047EA
S31508006340544855494A780B7813EB02220260CA78FA
S315080063508B7813EB022242604A790B7913EB0222FF
S315080063608260CA79897911EB0221C160704710B53C
S315080063700446FEF7DDF84649002C0A6814BF42F0C9
S31508006380200222F020020A6039490C70BDE810404C
S31508006390FEF7D4B8234800897047224908813F4947
S315080063A0086070471F48408970471E4948813C4924
S315080063B0086070473B48007870471C4900280A68FF
S315080063C014BF42F0020222F002020A601549087060
S315080063D0704738B504467F2C0ED102237F223248F7
S315080063E0018800A8FFF7DAF8BDF80000C00554BF19
S315080063F0BDF800406FF04A04FEF79AF80546FFF725
S31508006400FCFB30B964B204F19A008005000C2749F8
S3150800641008600448C4702846FEF790F831BD0000AD
S31508006420D9FF0020E2E200206CF80020802000401E
S315080064303020004080E200201020004000E100E00B
S3150800644004A0004080E100E0A820004010E000E041
S3150800645004ED00E0DAFF0020CDFF070064100040DD
S31508006460E41000406020004050E200205C1000402C
S31508006470D8FF002044E200203AFD0208BEFF0020B3
S3150800648040E200201C100040281000400C1000407C
S3150800649084200040982000407CF80020942000408A
S315080064A090200040E0E200203EFD02085410004023
S315080064B07068792D636F6D6D6F6E2E630000000036
S315080064C038B50120FEF72BFE0020FEF73BFC824C78
S315080064D0206840F008002060FDF7CBFFFEF722FC9D
S315080064E07E4900F03CF88D787D4BDD608D8805602F
S315080064F0CD88456000F02AF800F0B7F8206820F04B
S3150800650010002060FDF7A7FE02F0F3FD02F068FE1A
S31508006510FEF79FFEFDF7ABFFBDE83140FDF7C7BFAD
S3150800652040F2016000F01EBF10B502F011FF02F044
S31508006530C3FD6C4900F013F88C78694BDC608C88D5
S315080065400460CC88446000F001F810BD088910602A
S315080065504889506088891860C889586070476248B9
S315080065600A78C2604B78614AD360704710B5FEF767
S31508006570ADFDFEF7D7FB00F020F800F017F8FEF7A0
S31508006580AFFE02F0A2FDBDE8104002F00BBF10B549
S31508006590FEF79CFDFEF7C6FB00F00FF800F006F8C4
S315080065A0FEF79EFEBDE8104002F08FBD4A4801681E
S315080065B021F010010160FDF74EBE48494A480A78A5
S315080065C0C2604B78494AD3608C78454BDC608C882E
S315080065D00460CC88446008891060488950608889BE
S315080065E01860C889586040E0F0B50B68414C0F2523
S315080065F02468960005FA06F6344215D0002606EBFE
S31508006600820724FA07F7FF070BD5B70005FA07FC38
S3150800661023EA0C0330F812C005FA07F707EA0C0755
S315080066203B43761C042EEADB0B60F0BDF0B50B6825
S31508006630304CFF252468D600B5402C4213D00025DF
S31508006640012605EBC20724FA07F7FF0708D506FA5D
S3150800665005F7BB43175C06FA05FC0CEA07073B433C
S315080066606D1C082DEDDB0B60F0BD10B521480068E8
S3150800667008B11C4C07E010BD10B51E48006808B1EB
S31508006680164C00E010BD1C4900222046FFF7CEFF3D
S3150800669001221A492046FFF7C9FF02221849204657
S315080066A0FFF7C4FF0022104900F030F80122104914
S315080066B000F02CF802220D4900F028F803221149AF
S315080066C000F024F80422064900F020F8201DBDE851
S315080066D0104005220C4987E700BC004090E10020E5
S315080066E000B40040A0E1002000B0004000B2004025
S315080066F004B0004034F000200CB000400CB200405A
S315080067000CB4004004B2004004B40040201D6BE7FE
S3150800671080B502F0A6FF0FF2640109E080B502F029
S31508006720A4FF0FF284010204120E51F82210C0B21F
S3150800673001EB800002BD000010B502F092FF04468E
S3150800674002F093FFC0B208B9012C07D1072C11D863
S31508006750DFE804F004100608080A0C0E002010BD35
S31508006760092010BD022010BD032010BD0B2010BD4E
S31508006770062010BD44F0800010BD0000554E4B00A9
S315080067804649420042544C0045585400505752005E
S315080067905744470020535700435253004653480076
S315080067A042414400464C5400E4DE0208E8DE020892
S315080067B040DF020860DF020868DF020874DF0208AB
S315080067C080DF02088CDF020894DF0208A0DF0208D7
S315080067D0B0DF02082A490A68920992010A600A6823
S315080067E01043086027484FF400410160002101600A
S315080067F06420FEF711BB2DE9F0478046224DD5F8F7
S315080068000090286840F4004028601D4F386820F43E
S31508006810805038601D4C207868B11D48A178627890
S3150800682000EB820212F82A2C891A00EB880010F86D
S315080068302A0C461802E0202601202070B0B2FFF785
S31508006840C9FF0FF2500A02E0B0B2FFF7C3FF386B78
S31508006850042805D0386B400754BF761E761CF3E72C
S31508006860F86A38B184F80180A6701FFA89F02860A2
S31508006870BDE8F08740F221115046FEF755F9E6E7E4
S31508006880D0100040181000401C100040F5F80020F9
S31508006890844A0008616E616C6F6775652D76636F53
S315080068A02E6300004FF4FE52810189B20C20FDF7D9
S315080068B050BE2DE9F84F8C4CA568ADB200264FF0B6
S315080068C00A080127B94620681FFA80FA00F051FA2B
S315080068D0B0202063DFF814B2DBF800000120FEF7D1
S315080068E09BFAB9F1000F11D0AAF10300874202DA28
S315080068F0F81C87B213E057460AF5004020600621C7
S31508006900092000F0DFF94FF000090BE0DBF8000082
S31508006910000707D5042FA6BFF81E87B2002707F57C
S31508006920004020601A2EA8BF6FF0090804DA16F195
S31508006930190FB8BF4FF00A08464436B27019A0605E
S31508006940DBF800000007C9D5012FC7DAB9F1000F37
S31508006950C4D1A560C4F800A00820CBF8000064489C
S31508006960006880B2BDE8F28F80B562494FF0FF3209
S315080069705C4B1B786BB1002819BF4A605E484860BB
S3150800698041F2111008605D4841880088BDE804405E
S315080069908FE7002819BF4A600A604860086000F05F
S315080069A0E8F906210920BDE8044000F0DCB938B54D
S315080069B00120FFF7D9FF04460020FFF7D5FF05465B
S315080069C00120FFF7D1FF4042001B00EB450000B253
S315080069D032BD2DE9F04F83B0494CA06AADF80400EA
S315080069E02068ADF80200474D2868ADF800003D4E16
S315080069F0307858B14FF6FF7200210820FDF7A2FD46
S31508006A008146C022C0210820FDF7A3FDDFF8F880E3
S31508006A103E48007818B148F26070C8F800007088DF
S31508006A2040F4404040F04C00C8F83C000220A06208
S31508006A300120206040F24C40FEF7EEF90120E860A4
S31508006A4028602E4F0020388040207880307800B1AA
S31508006A502020FFF727FFFFF7AAFF8346402038804C
S31508006A607F207880FFF71EFFFFF7A1FF00F050F8A0
S31508006A70FE2101FB00FAABEB070B307850B1384624
S31508006A8001F07CFE00F044F880B20AEB8711B1FBF6
S31508006A90F0F004E000F03DF880B2BAFBF0F080B206
S31508006AA0401CC703BDF8000028600020E8600220EB
S31508006AB02060BDF802002060BDF80400A062002036
S31508006AC0C8F83C00307830B14FF6FF721FFA89F1EA
S31508006AD00820FDF73EFD40F24C40FEF79DF9380CC4
S31508006AE0BDE8FE8FDCE20020C010004018A0004080
S31508006AF00070004038100040EEEEFFFF0EFF002049
S31508006B006020004028100040D010004041E20020DC
S31508006B100746584601F032BE3F22410089B201E0DD
S31508006B203F2201460220FDF714BD2DE9F04F93B030
S31508006B30564CE06CADF808002068ADF80600544DD8
S31508006B40E86AADF804004FF6FF7200210120FDF750
S31508006B50F9FCADF802004FF6FF7200210B20FDF795
S31508006B60F1FCADF800004FF40040206000202861D9
S31508006B70686148F2020000F08DF84CF68C30E0644B
S31508006B8048F2F000E8624FF4805211460120FDF702
S31508006B90E0FC4FF6FF7200210B20FDF7DAFC062118
S31508006BA0062000F0E0F8804600F087F883464CF6A9
S31508006BB09C30E0640020FFF7AFFF0621084600F08E
S31508006BC081F80026B0B2FFF7A7FF0621062000F0DD
S31508006BD079F800F092F803A921F81600761C202E01
S31508006BE0F0DB00F08AF81020FFF796FF00F065F852
S31508006BF0A0EB0B00BDF82C10A1EB0801404301FBEC
S31508006C0001094FF0100A112700F050F800F055F866
S31508006C1000F045F805DB81461FFA87FA7F1C202F0E
S31508006C20F2DB504610280ED10F2700F03FF800F08F
S31508006C3044F800F034F806DB81461FFA87FA781E16
S31508006C4007B2002FF1D5BDF80800E064BDF80600CC
S31508006C502060BDF80400E8624FF6FF72BDF8021026
S31508006C600120FDF776FC4FF6FF72BDF800100B20E9
S31508006C70FDF76FFC01202861002000F00BF84FEAB1
S31508006C804A00C0B213B0BDE8F08F0000C010004043
S31508006C9018100040286040F24C40FEF7BDB8A0EB43
S31508006CA00B00404306FB06004845704703A830F82A
S31508006CB01700A0EB0806B8B22EE70621072000F059
S31508006CC052B8000070B505460E4600F013FC3F4C5E
S31508006CD0206C20F00800206400F01AFCFDF728FC60
S31508006CE0310341EAC51141F00101394A1160082111
S31508006CF02160BDE87040FDF721BC2DE9F041354C17
S31508006D00354D324E25E000F0F5FB3448042101608C
S31508006D10306C40F0080030642F682868400840004E
S31508006D20286000F0EDFBD4F80080206820F04000D1
S31508006D30206000F0E1FBC4F800802F6000F0E0FB63
S31508006D40306C20F00800306425480421016000F00A
S31508006D50DFFB30680007D6D5082030602148006878
S31508006D6080B2BDE8F08180B5FFF7ACFFBDE8014011
S31508006D70C3E7174801684908490001607047F8B534
S31508006D800746FEF708F8044639460320FFF7EBFFE7
S31508006D90054639460120FFF7E6FF0646FDF7C7FB1D
S31508006DA039460020FFF7DFFF0746FDF7BFFB084817
S31508006DB00168490849000160781B0004711BB0FB93
S31508006DC0F1F060434000000CF2BD000018A000403E
S31508006DD0047000400080004094ED00E000E100E00F
S31508006DE080E200E00070004003460A469DA10420A8
S31508006DF0FFE70CB480B502AA00F060F801BC5DF8A4
S31508006E000CFB21B103460A4697A11120F1E770470A
S31508006E1000B589B0FFF790FC00210791069105910E
S31508006E200491039102910191904900910023024631
S31508006E300FF248210120FFF7DCFF8D48C178039146
S31508006E40816802918188019181780091437802785E
S31508006E500FF234214320FFF7CCFF09B000BD854966
S31508006E60087070470EB430B58AB00446814D28784C
S31508006E70A0B102F0C8FA88B100A868602820687036
S31508006E80022100A802F0C7FAA8700DAB224600211D
S31508006E900FF2751002F03DFC00F0D9F80AB030BCCC
S31508006EA05DF810FB0C220021734800F095BB72496F
S31508006EB031F81020521C21F8102070472DE9F041B6
S31508006EC08CB007460D46904600266A4C207890B945
S31508006ED0002F18BF012F0ED0042F18BF052F0AD078
S31508006EE0312F18BF332F06D0372F1EBF3B2F4FF633
S31508006EF0FF7087427BD102F086FA002877D002A875
S31508006F00606028206070394602A802F084FAA070F2
S31508006F10002D6AD007E08DF80400012201A900209F
S31508006F2000F072F86D1C287800285ED0A0F13001B8
S31508006F30C9B20A2905D20A2101FB0600A0F13006CA
S31508006F40F0E7422818BF44280CD0462827D05728EF
S31508006F5008D0622836D0662821D06C281CD0702824
S31508006F601DD0D8E7422807D158F8042B00A90120DC
S31508006F7002F0BDFC01220DE0572858F8042B00A9A1
S31508006F8004D1012002F0B3FC022203E0012002F042
S31508006F90AEFC042200A9C2E758F8046BC2E758F809
S31508006FA0041B462807D10026705C00281EBF761CE5
S31508006FB0F6B2FF2EF8D1F2B2002000F025F8A0B9FB
S31508006FC00026AFE758F8047BBFB2002FAAD0384690
S31508006FD003F027F80446384603F00DF8E2B20146F6
S31508006FE0002000F011F800289CD000F030F80CB012
S31508006FF0BDE8F0810B461146122804BF184601F079
S31508007000BDBF704700000000F8B50C461500194EC4
S315080070101BD0B07871780F1AFFB2BD42B8BF2F46A1
S315080070203A4621467368C01800F074FAB0783818E2
S31508007030B070ED1B3C19EDB23DB1B11C706802F0A1
S315080070405BFA0028E5D00120F2BD0020F2BD10B59C
S31508007050084CA11C606802F04FFA08B1012010BD67
S31508007060A07010BD574600006C7000007CF8002028
S31508007070D4DE020804F400200CF4002042423870E2
S31508007080424242425742420042424257444200006C
S315080070902DE9F0470446884691469A4600F041F99C
S315080070A0002801BF25460FF2A420285C012823D119
S315080070B0DFF8606256F82570FDF73AFA0021B980C4
S315080070C039807980FDF73AFA06EB85000669FDF7FF
S315080070D02FFADFF844220021B18031807180A9544B
S315080070E0FDF72CFA02F005F853464A464146204673
S315080070F0BDE8F04701F050BE2120BDE8F08710B585
S31508007100044601F0BBFFDFF80C0200EB84000069BF
S31508007110808810BD2DE9F84381464C46DFF8F40116
S3150800712000EB840088460669484600F0FAF808B17C
S31508007130012037E0DFF8E051605D05EB440760B1F8
S31508007140B8887188884208D1FDF7F2F9665D002192
S315080071506155FDF7F3F9304624E0484601F08EFF05
S31508007160B088F0B1FDF7E4F971880FF2EC128919CD
S31508007170897988F800104FF6FF78718832F814205C
S3150800718000F030F87180B1884144B180FDF7D6F936
S31508007190605D20B1B888404504BF3088B8800020BB
S315080071A000E02620BDE8F2830FF2A011415C012918
S315080071B00AD10FF29011574A31F8101052F82000F0
S315080071C08088081A80B270470020704780880FF2BE
S315080071D0741333F81110891A884201DA01207047AE
S315080071E000207047491C91FBF2F302FB131170470C
S315080071F010B50FF25813C35C0024012B08D11346AF
S315080072000A4601460FF2110002F083FA00B901247A
S31508007210204610BD000000002DE9F84F804647467D
S31508007220042F8B46164605DB40F20E310FF2081086
S31508007230FDF77AFC0FF21410385C012838D135486E
S315080072400FF21C1950F827400FF2041A002514E013
S31508007250FDF76EF9A18801B9012522881BF8011BE3
S315080072601219917121883AF81720FFF7BBFF218080
S31508007270A188491CA180FDF761F93046461EC0B2B7
S3150800728088B1002241462046FFF7A0FF0028DFD13B
S315080072901DB1404601F005FE002517F80900002833
S315080072A0EFD1222005E0404601F0FBFD002000E07A
S315080072B00120BDE8F28F80B501460FF290028A5C84
S315080072C0012A05D1134A52F821108A88002AFCD1CE
S315080072D001F049FE002002BD0CB438B504460D463F
S315080072E001F013FE04AB2A4621460C4802F011FAB7
S315080072F00FF258012046415C012907D1054951F88A
S315080073002000808810B1204601F0CBFD32BC002059
S315080073105DF80CFBF4E1002068F300201B8F0008E1
S315080073207047042806DA0FF22401415C481E8041A2
S31508007330C00F70470120704773657269616C2E63D0
S3150800734000000000800080000000800001010001AC
S31508007350800080000000800080008000000080001F
S315080073600101000110B50446FDF7E2F84B4830214B
S3150800737001604B4801604B4801604B481021016091
S31508007380200A08BF2402494804804FF20F014180B1
S31508007390BFF35F8F46480021016041604548464972
S315080073A0016010BD45480168C90708D5444903224C
S315080073B00A70016C490849000164012101600168ED
S315080073C0090703D5016C21F008010164704780B5EF
S315080073D0002000F009F830B9FC210FF2FC00BDE8E6
S315080073E00440FDF7A1BB01BD2DE9FC44354C4142E3
S315080073F022688D1815F01F0108D0002802D44842CB
S31508007400451903E04842401900F12005A5F1200678
S315080074102D48A84224BF2D48864203D3EFF308809F
S31508007420854201D300202DE0FDF782F882462848E0
S31508007430006810F0010718BF03F0B0F8206801468D
S315080074408D4206D2A84224BFCD2100F80119F9D2EF
S3150800745006E02038002201E000F8012B8842FBD321
S315080074602560304603F09FF8E22001E006F8010B9C
S31508007470AE42FBD30FB103F079F85046FDF75EF83C
S3150800748020682038BDE8F6840E48006870470D4825
S315080074900068203870470F487047000030200040C9
S315080074A030C8004030C0004010E000400000002016
S315080074B01C4000400CED00E00400FA0518A000404E
S315080074C0CBFF002054E2002010D2002070170020C5
S315080074D094ED00E0000000206D6963726F2D696EFF
S315080074E07465726E616C2E6300000000002203F062
S315080074F077B8000072B6704700BF30BF00BF70474C
S31508007500BFF35F8FBFF34F8FBFF36F8F70470000D6
S3150800751062B67047814233D210185118401E491E70
S3150800752010E011F8013900F80139121F11F8013974
S3150800753000F8013911F8013900F8013911F8013953
S3150800754000F8013992B2042AEBDA92B2002A1EBF79
S3150800755011F8013900F80139521EF6D1704711F8B1
S31508007560013B00F8013B121F11F8013B00F8013BF3
S3150800757011F8013B00F8013B11F8013B00F8013B0B
S3150800758092B2042AEBDA92B2002A1EBF11F8013B26
S3150800759000F8013B521EF6D1704710E011F8013B86
S315080075A000F8013B121F11F8013B00F8013B11F8E6
S315080075B0013B00F8013B11F8013B00F8013B92B290
S315080075C0042AEBDA92B2002A1EBF11F8013B00F832
S315080075D0013B521EF6D17047130003D00A461946DE
S315080075E003F018B8704710B500E0521E92B222B1E7
S315080075F000F005F8F9D0181B10BD002010BD10F8D2
S31508007600013B11F8014BA342704700002DE9FE4FDC
S3150800761080460B250B22FF2100A8FFF7DDFFDFF8C8
S31508007620A8A03622FF215046FFF7D6FF0027274C91
S31508007630DFF89C90274EB85D17F809B0395D401CF5
S3150800764000EBD070401001B11930401C00FB0BF262
S31508007650214830F817100FF2840092B2FFF702FCA7
S31508007660BBF1010F1CBF2AF817505D447F1C0B2F76
S31508007670E1DB0FF284000B2340F21C42F321FFF7F3
S31508007680F1FB0FF2A4054FF4E04000F00EF918B133
S31508007690CA212846FDF748FA4FF4804000F005F95C
S315080076A018B1CC212846FDF73FFA4FF4805000F078
S315080076B0FCF818B1CE212846FDF736FA00A940464F
S315080076C000F020F9BDE8FE8F74F30020ECE4020810
S315080076D004E50208F8E40208D4E402084372656186
S315080076E0746F723A2030782532582C20576F72649E
S315080076F0733A2025640A000053696D454520646184
S3150800770074613A20256420776F726473206F66204F
S315080077102564206D61782C20746F6B656E436F75D8
S315080077206E743A2025640A0073696D2D656570725A
S315080077306F6D2E630000000010B5DFF8D43ADFF84D
S31508007740D44A2488001B06E010B5DFF8C43ADFF8EF
S31508007750C84A24681B1B03EB4000002304E030F8EA
S31508007760134021F813405B1C9342F8DB002010BD40
S315080077702DE9F04182B004460D4616460027DFF88B
S31508007780908A01E0B81CC7B2B7421ADA781940786D
S31508007790795D01EB0020ADF80000012200A907EB96
S315080077A0D77004EB6000DFF86C3A1B88C01A08EB48
S315080077B0400002F0AEFF0028E4D002F0F9FF0020F6
S315080077C000E00120BDE8F681F8B504460E461546E8
S315080077D000270DE000F019F8761C04EB4700BDF809
S315080077E00010090A4170BDF8000004F817007F1C54
S315080077F0B7EB550FEEDBE80706D500F006F82819B3
S31508007800BDF8001000F8011CF1BD012200A9B0B2B4
S3150800781092E7DFF8FC19DFF8FC291288801A01EBD9
S315080078204001022002F03CBFDFF8F019415CDFF8A6
S31508007830F029825CDFF8EC39C05C10B102F5997268
S3150800784092B241EAC21080B2704710B5DFF8D83953
S3150800785003EB4002DFF8C449005D012801D1104658
S3150800786010BD1088081803EB400010BD38B50C464B
S31508007870DFF8B8190D782A462146FFF75DFF2088FC
S3150800788000281CBF4FF6FF7188420AD0012000E08D
S31508007890401CC0B2A84206D234F810102288914281
S315080078A0F6D0002032BD012032BDF0B587B0DFF832
S315080078B0681908600C2200A90020FFF745FF00A9F7
S315080078C08A89C88A0346040A012000254FF6FF77ED
S315080078D031F81560BDF800C0B44503D1BE4218BFE3
S315080078E0002E00D100206D1C062DF1DBBA1A944536
S315080078F018BF0020DBB2C4F1FF018B4218BF00207D
S3150800790007B0F0BD2DE9F04F9DB089460446DFF873
S315080079102079002038707880DFF818090088ADF8DB
S31508007920000008A9FFF7A2FF824601207870DFF859
S3150800793008090588DFF80409B0F80080BDF800607A
S31508007940DFF8D0080088ADF8040083460AA9FFF7D7
S315080079508DFFD0B1BAF1000F43D04FF6FE70BDF8D7
S315080079602010814204D1BDF82800012806D10FE075
S31508007970012904BFBDF82810814232D0BDF8200085
S31508007980BDF8281088422CD202E0BAF1000F27D0A1
S31508007990002078703046CDF808B00795CDF81480E9
S315080079A0DFF8881809788DF806100818ADF8100061
S315080079B000F05FFABDF81000FFF7BEFEDFF880089A
S315080079C000880690BDF80200000B4FF6FF789DF878
S315080079D00610884218BF0F2800D114B3002515E0F9
S315080079E0012478780028D5D058460296CDF81C8010
S315080079F00595D5E7069805FB00F4BDF8040000F0E8
S31508007A002DFCBDF8000000F029FC6D1C9DF8060051
S31508007A108542EFDB012038704D2002F0C9FE0025B3
S31508007A20FDE0BDF8105000F024FA2846FFF784FE62
S31508007A306E1CBDF80200C043C0B2ADF80200DFF804
S31508007A4004080588BDF80200A84218BF01244FF0B3
S31508007A50000A1FE0401CC1B2A94217D2C0B2834631
S31508007A60DFF8E41731F81B10BDF80E209142F1D16A
S31508007A70FFF7DAFE4FF680710840BDF80C104FF696
S31508007A8080721140884208BF0BF809A00AF101006C
S31508007A901FFA80FABDF80200824507DA022203A916
S31508007AA0B0B2FFF749FEB61C0020D4E7002100E07B
S31508007AB0491CA94219DA11F809008842F8D00124AC
S31508007AC013E02AF81160012201A9BDF8103003EB72
S31508007AD04000401C00F0D1FABDF80400C0F3C710FE
S31508007AE0401C00EBD07006EB6006DFF83CA7B6B288
S31508007AF00598864213DA012200A93046FFF71CFED4
S31508007B00BDF8000040450AD0761C000ABDF80010F2
S31508007B1001F07F02BDF80210884202DB012400252D
S31508007B202DE0002100E0491CA942CCDA11F8093001
S31508007B308342F8D1C9B2FF29C5D07F2A0CBF4FF0BE
S31508007B40000C9446DFF8D436CB5C9C450BDABDF8BE
S31508007B5000C04FEA0C6C4FEADC7CDFF8C8E611F887
S31508007B600EE0F44501D00124ADE7012BA9D07F2A08
S31508007B7008BF00223AF811105118A2E76D1CDFF869
S31508007B80CC060088854204DA3AF815004045F5D156
S31508007B9001247E80B5B2059885420ADA012200A939
S31508007BA02846FFF7C9FD6E1CBDF800004045F1D018
S31508007BB032E7002CFCD101220CA9029800F05DFAEC
S31508007BC0BDF8300040450DD105E0401C80B22028A4
S31508007BD013D32034A4B20799029A891A8C4205DB7A
S31508007BE00120387000201DB0BDE8F08FA5182022AE
S31508007BF00CA9A8B2FFF7A0FD00200CA931F81010B7
S31508007C004145E2D0A8B2FFF704FE203CA4B2E0E763
S31508007C100298069905FB010000F021FB6D1C9DF8F2
S31508007C2006008542F4DB01203870414600F043F82F
S31508007C3018B100F022F90028D4D10120D3E72DE9A4
S31508007C40F84504460D4616469A4631462846FFF735
S31508007C50FCFDB0F80080DFF8C875DFF8E81509887C
S31508007C608D420AD27F2E08BF0026DFF8B005285CB1
S31508007C70864202DAE85D824503D040F2DA4100F036
S31508007C80F8F9DFF8A005285C68B14146284600F0F7
S31508007C9027FAE95D012908BF20700AD0022914BF16
S31508007CA02060208005E0524641462046BDE8F8455A
S31508007CB08AE5BDE8F1852DE9F34F83B0DFF8540571
S31508007CC00488DFF86C05407800281ABFDFF86405D9
S31508007CD000882046DFF8541509780D18ADB2DFF88C
S31508007CE064050088ADF80800C043C0B200EB013057
S31508007CF000F55060ADF8020000F0C9F92B1B00F042
S31508007D00C2F96E1CB6B2002832D10025DFF83875E4
S31508007D1010E0E8B2FFF788FDADF8040037F8150063
S31508007D20ADF80600022200F0ABF9002820D1B61CF7
S31508007D30B6B26D1CBDF808008542EADB002500E0F6
S31508007D406D1CBDF80800854280F28E804FF0000A4F
S31508007D501AE000F08EF81FFA89F0FFF7EDFC09F13A
S31508007D60010900F094F9BB191B1B00F08CF90028D7
S31508007D7074D17F1CFFB25F45EBDBDFF8D404285CC7
S31508007D808619B6B20AF1010ADFF8900415F800B0B0
S31508007D905FFA8AFADA45D3D25146E8B2FFF755FDBB
S31508007DA08046B8F80090DFF87C042F5CF80140EABA
S31508007DB00520ADF80000BBF1010FBDF800000CBFAF
S31508007DC040F07F004AEA0000ADF80000DFF8400402
S31508007DD0311B00EB4100711C89B201914FF6FF710E
S31508007DE089451EBFBDF80010BDF81020914218D174
S31508007DF09DF80C100029C5D0012200A902F089FCC3
S31508007E00019E58BBA8F80060DFF814042A5CDFF866
S31508007E10440450F82510B0B2FFF7AAFC0028ACD1EC
S31508007E201FE0DFF8FC13695C491C01EBD171C90539
S31508007E304FEA116B012200A902F06BFC019E68B99A
S31508007E40A8F80060002F95D04946E8B200F048F936
S31508007E5001905A4600F014F900288ED002F0A8FCCA
S31508007E60002005B0BDE8F08FDFF8C4034680012086
S31508007E70F7E701220DF1020170472DE9F04182B0C2
S31508007E80DFF8B0030688DFF88C030488DFF8A05310
S31508007E906878002812BF204630462646012200A9E7
S31508007EA0FFF74AFCBDF8000001280CBF4FF6FE702C
S31508007EB0401EADF80000DFF874030778DFF850833A
S31508007EC03846471E70B1012200A9BFB2B819001B77
S31508007ED008EB400002F01DFC0028F1D002F068FC17
S31508007EE0002006E0687880F001006870002028709D
S31508007EF00120BDE8F6812DE9FE4F83460C4617465C
S31508007F009A4600208DF80400012539465846FFF7A1
S31508007F109CFC81465E46CB4909888B450AD27F2F51
S31508007F2008BF0027BD48305C874203DABC48305C8E
S31508007F30824503D040F2FD5100F09BF8BC4F78789B
S31508007F4020B1BD48B0F80080B24803E0BB48B0F89D
S31508007F500080B8480088397849B97988081ABE492E
S31508007F6009888842B4BF4320442002F021FCB9F8AE
S31508007F700010AC48305C78B1584600F0B1F8BAF158
S31508007F80010F08BF217804D0BAF1020F0CBF21886F
S31508007F90216881426BD02BE002914FF0000B23E061
S31508007FA0012200A902980BEBDB7300EB630000F0DB
S31508007FB064F80BEB040040781BF8041001EB002072
S31508007FC080B2AAF101018B4505D1C0B2BDF80010F7
S31508007FD0C9B2ADF80010BDF80010884218BF0025D8
S31508007FE00BF102005FFA80FBD345D9DB002D3ED1A9
S31508007FF0FFF73FFFB9F80000401E00F03EF894482E
S31508008000355C7888A8F10101491B814200DB60B91B
S31508008010387808B945201CE0BDF802100020FFF7A3
S315080080204AFE20B301208DF804007888401C788029
S315080080307B49725C214680B2FFF79AFBB8B100F023
S3150800804026F87B885B1E734C24881B1B00F01BF8E4
S3150800805010B102F0ADFB0AE09DF8040010B1FFF77D
S315080080600CFF20B17888A9F8000028187880BDE8A8
S31508008070F78F0FF2F010FCF757BD80B2FFF75CBB25
S3150800808001A96348331B00EB430002F042BB0122FF
S315080080900DF102015E48704770B582B004460025AE
S315080080A01926012200A9A0B2FFF746FB641CBDF8F9
S315080080B0000048B14FF47F41401A02D0FF3806D07D
S315080080C007E0681C40B276BDAD1C761EE9D168B2E1
S315080080D076BDBDF80000C0B200B96D1CE843F1E7F3
S315080080E038B50C46002100914D49455C2A46214683
S315080080F000A8FFF769FB681C00EBD07004EB600072
S3150800810080B2FFF7C9FF002848BFC043009940B2B4
S31508008110401832BDF0B583B004462546424830F8CB
S315080081201560484909888C4202D23E48285C18B92D
S315080081304FF4E761FFF79DFF39482D5C681C00EB9B
S31508008140D07006EB6007B8B2FFF7A6FF322814D244
S31508008150C1074CBF00214FF47F41ADF8041001223E
S3150800816001A92B4BBFB207EB60002A4F3F88C01B03
S3150800817003EB400002F0CDFA60B131462046FFF726
S31508008180AFFF0090401C00902B467F2200A9204696
S31508008190FFF7B1FEF7BDF8B50027254C2078002873
S315080081A032D11C480588607800281ABF21480688FD
S315080081B02E461E4807783846471E02281DD3012238
S315080081C000A9FFB2B819FFF758FFBDF8000000284C
S315080081D0F1D01B48008807FB006000F040F800203B
S315080081E0ADF80000012200A90948BB195B1BFFF77F
S315080081F04AFF48B102F0DCFA06E03046FFF709FB11
S31508008200FFB20FB9012020703846F2BD0000000009
S3150800821000E00708DCDF0208F4F6002004E502089F
S31508008220F8E40208ECE4020874F30020D8DF020838
S3150800823008FF0020E0DF0208DEDF0208E2DF0208AE
S31508008240DADF0208E6DF0208D4E40208E8DF0208FB
S31508008250ECDF020894E50208E4DF0208201880B281
S31508008260FFF7D7BA73696D2D656570726F6D2D69E5
S315080082706E7465726E616C2E63000000F8B50600B8
S31508008280244C276814D0FCF753F9234D2978226823
S3150800829022F8116037F8021BB142FBD1FCF74EF900
S315080082A0B81E2168401AC0052978000E884200D1F8
S315080082B0FF20F2BD2DE9F8438146184C2668164D75
S315080082C0287806EBC007FCF733F9804608224946AA
S315080082D03846FFF71FF9F88800E00836F18881422A
S315080082E002BF31883A889142F7D171887A889142DB
S315080082F002BFB188BA889142EFD14046FCF71EF911
S315080083002068301A40052978000E884208BFFF20E9
S31508008310BDE8F28368E1002060E100206CE10020FE
S3150800832070B504460D4616468048017819B141884D
S31508008330491C418070BD204602F0A7FA80B1FDF7BE
S31508008340FCFF38B1A078002E14BF40F0010000F001
S31508008350FE00A0702E2229462046BDE8704000E0A7
S3150800836070BDF8B506460C461546701C01F0AEFA07
S3150800837010F0070F1ABF41F649018842002501216E
S31508008380281980B201F037FF07460121002002F0C4
S3150800839059FA3078411C89B2022002F053FA27B9FB
S315080083A062488188491C8180F1BD384601F023FE68
S315080083B022463146FFF7AEF8384601F01CFE2A463B
S315080083C000212018FFF708F9384601F096FFBDE8A6
S315080083D0F14002F0CFBC2DE9FE4301F09DFF804637
S315080083E0524E70880FF25C1548B100900FF2681370
S315080083F08B222946072003F0D8F800207080B18820
S3150800840069B10D2002F01EFAB08800900FF25413DD
S3150800841091222946072003F0C8F80020B080B8F159
S31508008420000F6CD0404601F0E6FD054695F8009031
S31508008430681C01F04BFA10F0070F1BBF41F6490103
S31508008440884200242E24404601F0EBFD08226142B2
S3150800845040190818A0F1080101A8FFF75BF801AF59
S31508008460F878FDF731FC4946FDF735FC044697F9DF
S31508008470020000F166072E48007848B1B068002867
S315080084803DD07BB222464946404600F03AF836E0EF
S31508008490404603F07AFA90B30521404601F09DFF65
S315080084A081460320FEF703FD224E09F007003070CF
S315080084B02148FF2101706C70AF709DF80400E870C8
S315080084C0404603F020FE0328404602D104F06AFF26
S315080084D015E003F009FE00F00500042806D0307800
S315080084E0032803D1404605F0FEFC40B90022414668
S315080084F0124805F0A6FD1248007805F0BFFFBDE852
S31508008500F78330B5A1B014461D46002200924B1CD5
S31508008510DBB2014601A801F01FFF2A46214601A841
S31508008520024B9B68984721B030BD0000ACFE002086
S315080085306DF80020DEFF0020DFFF002012F9002082
S31508008540BCF4002069702D6D61632D7265636569E1
S3150800855076652E6300000000666C616720782575D5
S31508008560000000006D656D207825750038B5044655
S315080085705348002912BF00210178491C01700121C6
S31508008580012002F05FF94F4D2878411C89B203207B
S3150800859002F058F94C4844702846BDE83240FDF7C9
S315080085A0C6BB10B5144688B3402820D0882818BF03
S315080085B089282FD08D2830D08F2832D1434800788B
S315080085C004280DD144B142480221017040F63540D5
S315080085D0BDE8104005F06ABFFDF75AFE31201CE0E1
S315080085E0FDF756FE002C0CBF3120002015E034485C
S315080085F0007838490978884204D200210120BDE86C
S315080086001040B3E7FDF744FE402006E0FDF740FEC4
S31508008610002002E0FDF73CFE8D20BDE8104005F085
S3150800862022BC9A210FF2BC00BDE81040FCF77CBAC8
S3150800863027480078022800D0704780B52648007879
S31508008640012807D003280ED124480078022818BF2D
S315080086507C2808D105F045FFFDF71AFE0020BDE885
S31508008660024005F000BC01BD38B50024FBF760FFE9
S3150800867005461748007810B9FDF7A5FA04462846B6
S31508008680FBF75CFF002C1CBFBDE8314002F0E6B8E2
S3150800869031BDD6210FF24C00FCF746BA38B5104C5E
S315080086A02068216C01EA0005ADB2680705D5206C83
S315080086B020F00400206405F085FF256031BD000028
S315080086C0E5FF00201AFF002080E20020E7E20020F4
S315080086D0E6FF0020D0E30020DEFF0020DFFF0020B9
S315080086E008A000406D61632D656D3235302E63003C
S315080086F00649026812BACA60426812BA8A60826873
S3150800870012BA4A60C06800BA08607047383000403C
S31508008710024980220A60024A04E000BF0030004095
S3150800872010A000400623136007230B6013689B07FD
S31508008730FCD503681BBA8B6243681BBA8B628368D5
S315080087401BBA8B62C3681BBA8B6213685B07FCD5BE
S315080087500A6B12BA02600A6B12BA42600A6B12BA44
S315080087608260096B09BAC160704710B504460846AD
S31508008770FFF7BEFF2046BDE81040C9E7002848BFFE
S315080087804042704781B209B94BF6EF610E4A118033
S31508008790000C08BF4FF6CE2050807047028813049D
S315080087A048BF4A40510001801046704738B5064C0C
S315080087B062212046FFF7F2FF054641F20B01A01C95
S315080087C0FFF7ECFF684032BDF0E10020002181F39D
S315080087D0118870472DE9F04FDFF8244591B061689C
S315080087E01091072808BF032002D0082808BF0220D6
S315080087F0DFF8105529686A6841EA0221AA6841EA41
S31508008800024100916968490703D5E16941F002010F
S31508008810E1612968490703D5E16941F00401E1618D
S315080088200099EA69D140C90703D5E16941F0080111
S31508008830E1610021DFF8C464DFF8CC7431600128F7
S3150800884000F00082C0F0268203281AD004D3042838
S3150800885040F02082616014E0386CC00703D5E069F7
S3150800886040F04000E061386C400703D5E06940F00D
S315080088702000E061386C800703D5E06940F01000FD
S31508008880E061FBF755FEFBF70AFE8DF83C004FF05A
S315080088900009DFF87814DFF878A4C1F580310120E3
S315080088A0090B00FA01F1491ECAF83810090A07D15E
S315080088B0DFF86014097819B1616C41F02001616430
S315080088C0396CDFF85484DFF854240E91796C0D91D5
S315080088D0D8F84C100C91D8F850100B91D8F85410C1
S315080088E00A91D8F858100991DAF800100891DAF8C0
S315080088F004100791DAF814100691DAF82410059195
S31508008900DAF834100491DFF818140968126803922B
S3150800891002222260DFF80C2412688DF80420DFF8A2
S31508008920082412688DF80520DFF8002412688DF8EF
S3150800893006204FF0FF32626200F0B5F9D2040AD57C
S315080089406A68D20707D5E269D20704D5326842F4C5
S3150800895080728146326000F0A6F992040AD56A68E8
S31508008960520607D5E269D20704D5326842F4804236
S315080089708146326000F097F952040ED5009AAB6929
S31508008980DA40D20709D5E269D20706D53268AB695B
S3150800899000FA03F31A438146326000F084F91204A0
S315080089A010D5009AEB69DA40D2070BD5E269D207EF
S315080089B002D4E269120705D53268EB698146984008
S315080089C010433060DA480068C00308D5E06900063D
S315080089D005D5F07840F008004FF00109F070002046
S315080089E06A68D2076A6848BF4FF480505206009AF0
S315080089F0AB6948BF40F40050DA40D207009AEB69E9
S31508008A0048BF40F48040DA40D207E26948BF40F4E4
S31508008A100040D20605D4E269920602D4E2695206FB
S31508008A2001D540F01000E269120648BF40F48030D4
S31508008A3008400290A520FBF729FD0120E063E069C4
S31508008A40A16B11B1616A0142FAD0616A014200F074
S31508008A50CA800020E063F07840F04000F070FEF72E
S31508008A6049FD0498CAF83400072038600F20C8F872
S31508008A70000001F07BFD1098A94960600E983864E3
S31508008A800D9878640C98C8F84C000B98C8F85000F4
S31508008A900A98C8F854000998C8F858000898CAF8F7
S31508008AA000000798CAF804000698CAF81400059842
S31508008AB0CAF82400029808609849039808604FF09D
S31508008AC0FF309C49086097480068307096480068EF
S31508008AD0707096480068B070626AE0691040EA698A
S31508008AE0336801994B4000990B400106490E01F085
S31508008AF0010143EA81230106890E01F0010143EAD7
S31508008B0081030106C90E01F0010101FA02F21A43B6
S31508008B1000F47C7042EA00503060FBF709FDFEF76E
S31508008B20F7FC002020609DF83C0008B1FBF7A1FC8B
S31508008B30F0787B490968C90304D5C0F3C00109B1B7
S31508008B4020212162396C890703D5C10744BF022158
S31508008B50F960396C490704D5C0F3400109B104210D
S31508008B60F960396CC90704D5C0F3800109B1012140
S31508008B70F9603168D8F84C2012F0E00F05D0CA0524
S31508008B8003D56B4B4FF480521A60D8F8502012F078
S31508008B90E00F05D04A0403D5654B4FF400521A601E
S31508008BA0D8F8542012F0E00F08D0AA6921FA02F288
S31508008BB0D20703D55E4B4FF480421A60D8F8582086
S31508008BC012F0E00F07D0EA69D140C90703D5584A21
S31508008BD04FF40041116040F08000F07011B0BDE81C
S31508008BE0F04FFFF7F3BDB9F1000F7FF434AFDAF8B1
S31508008BF018004A49DFF840B140084000CAF8180092
S31508008C004648806840F00400886040F20721BBF8B7
S31508008C100000884202BFBBF802004FF20F018842EB
S31508008C2005D14CF23C30ABF802004FF001090120A7
S31508008C3005F030FDB9F1000F03D04FF20F00ABF885
S31508008C4002000EE7FBF72BFC0446A520FBF71EFCEB
S31508008C50FEF750FCFFF7BAFD384D2E682868400825
S31508008C6040002860FEF74CFC354FD7F8008038687E
S31508008C7020F040003860FEF73FFCC7F800802E6001
S31508008C80FEF73EFC0CB1FBF7F4FB11B0BDE8F04F64
S31508008C90FEF73EBC11B0BDE8F04F40F24A410FF274
S31508008CA0AC00FBF741BF224A1268704711F1010F69
S31508008CB0144A07D0CBB21360C1F307235360C1F33C
S31508008CC00741916000231F490B601368002B04BFFE
S31508008CD05368002B01D192681AB10A6842F0010262
S31508008CE00A600A6842F400720A600A6842F0800262
S31508008CF00A606FE51449D9E700000000ACF30020CC
S31508008D000400004008BC004014A000400000000019
S31508008D10044000409807080814A8004008ED00E041
S31508008D2000E100E008B0004008B2004008B4004086
S31508008D3000E200E080E200E00000002094ED00E0A0
S31508008D40008000402000004000404000736C6565CC
S31508008D50702E630010B5064C207840B908237F2290
S31508008D6004480188201DFCF719FC0120207010BD5D
S31508008D7078F8002040FD0208DFF8E803016C41F4AA
S31508008D80C04141F0090101644FF6FF7101602020DE
S31508008D90DFF8D413086070477CB515461E4610B92F
S31508008DA000F0BAFA76BD012836D113293CBF0FF276
S31508008DB01C40095C08096422504301F00F010B2985
S31508008DC003DA884006E00A2250430A46511ED2B208
S31508008DD00B2AF8DA01460120FCF747F800285FD18C
S31508008DE0300907280CBF00200220012D08BF40F0DB
S31508008DF0180003D0022D08BF40F0080006F00F0146
S31508008E000229DFF86813A8BF40F004008860012033
S31508008E100860FFF7B1FF40E0032840D1FBF732FBBB
S31508008E20DFF84C03018808237F2200A8FCF7B6FB6D
S31508008E3000220020DFF83C1300AC531C045D250912
S31508008E400A2DD2B2B4BF3026372601EB4202751975
S31508008E5055805A1C04F00F050A2DB4BF3025372556
S31508008E6004F00F04DBB22C1901EB4303401C08285D
S31508008E705C80E1DB0FF2383005F0D3FC05F0E6FE46
S31508008E80044605F0B3FC042807D005F0DFFE001BF6
S31508008E9080B2B0F57A7FF4DD01E0002076BD2120AE
S31508008EA076BD38B5040013D1DFF8CC0204686088B3
S31508008EB028B140F2B6210FF2F020FBF735FEA18863
S31508008EC0C9B2A01DFDF79DFF0020A080208031BDFE
S31508008ED0012813D1A5480068012815D1FBF728FBFE
S31508008EE00546A648016841F006010160012000F028
S31508008EF0C6F82846BDE83240FBF720BB032804BF66
S31508008F00BDE8314005F076BE31BD012804D19B4845
S31508008F10016821F006010160704780B50B461146CD
S31508008F2020B91846FDF76DFF002002BD012814D1AF
S31508008F3093488269012A07D0212002BDC2685207D8
S31508008F40FCD513F8012B02600A46511ED2B2002A3C
S31508008F50F4D1C1684906FCD5E6E70328ECD11846E2
S31508008F6005F05AFEE0E710B50446FBF78BFA012C2C
S31508008F7003D1864800684006FBD510BD70B5814A06
S31508008F80814B126804E000F068F81D8800F06CF860
S31508008F900C46611EE4B254B194887D4D2D886D1E31
S31508008FA0AC42F0DBBDE8704023210020BBE070BD79
S31508008FB02DE9F84304467348DFF8CC91DFF8D081F1
S31508008FC06F4F254650F8256014E0B18838F815200B
S31508008FD0521E91421CDA318889198871308839F80D
S31508008FE01510401C90FBF1F201FB12003080B0888E
S31508008FF0401CB080F868800716D5F86810F038016C
S315080090003868E2D0080705D4C80605D5242107E044
S31508009010232105E0272103E088064CBF25210121ED
S31508009020204600F080F8E5E7BDE8F18370B5554ABB
S31508009030554BD26804E000F010F8DD8800F014F80B
S315080090400C46611EE4B23CB194887F2CF3DBBDE884
S3150800905070402321032066E070BD158810F8014B87
S31508009060AD18AC7114887047641C94FBF5F605FBC3
S31508009070164414809488641C94807047704770B5B1
S315080090803D49444A51F820103D4B0FE04C8864187E
S31508009090A4791C604C8832F81050641C94FBF5F6D1
S315080090A005FB16444C808C88641E8C808C8814B111
S315080090B0DC686407EAD470BD37483849C2680A6074
S315080090C002694A6000688860704780B53349274856
S315080090D00A6842614A688261896881600121016083
S315080090E00120FFF749FEBDE802400FF2C40005F073
S315080090F098BB704738B51B4C0FE046F229700542FD
S31508009100256003D0A9B20120FFF752FF41F6D60029
S3150800911005421CBF0120FFF7B2FF2068216C11EA47
S315080091200005EAD131BD30B5164A1D4C52F820204B
S31508009130055D1C4B25B9128823F81020015530BD52
S3150800914033F8103013800155138851888B4205D2A5
S315080091500F4C34F81000401A181800E0581A90807E
S3150800916030BD000008A8004000E100E054C80040F7
S3150800917040FD02081CE20020F4E1002048A8004057
S315080091803CC8004004E200205873000848C8004064
S31508009190D0DF0208507300085CC80040D4F30020F2
S315080091A068F300206CF30020756172742E6300006A
S315080091B0C0E50208D4E5020890E6020804000000AB
S315080091C0A0E60208A4E6020800000000306090C08D
S315080091D0C1C2C394C495C55C96C6AC9798990D0050
S315080091E02DE9F041454C464EDFF8188100202065F0
S315080091F04FF40055356002202060E56000202065A8
S31508009200206D40F0600020650E2000F01DF888F8FB
S3150800921000004FF480470020606537600420206016
S31508009220E76016203849086000206065606D40F0E8
S3150800923060006065162000F007F888F801003348DA
S3150800924005600760BDE8F0810E2802D0162802D016
S3150800925009E02F4800E02F480068800900F0010067
S3150800926080F0010070470020704710B523484FF47E
S315080092700051C160022101600E20FFF7E5FF214C75
S31508009280227801468A4218BF21700DD1501E8041AE
S31508009290C00F20700E20217801F080FA2178481E30
S315080092A08041C00F20702178BDE810400E2001F0E3
S315080092B075BA10B511484FF48041C16004210160A8
S315080092C01620FFF7C1FF0F4C627801468A4218BF85
S315080092D061700DD1501E8041C00F607016206178F4
S315080092E001F05CFA6178481E8041C00F60706178B1
S315080092F0BDE81040162001F051BA000014A800403D
S3150800930080E100E0B4FF002020BC004000E100E05E
S3150800931008B2004008B4004038B5FBF709F904461E
S315080093209E4D287868B99E48002141604170817039
S31508009330A52101700120FDF792FDFDF7B3FD01207F
S3150800934028702046FBF7FAF800F02CF8002032BD0A
S3150800935038B50025FBF7ECF8904C2178022912BFA6
S31508009360012503212170FBF7E9F8D5B98D48016875
S31508009370C90714D58C490A6822F440620A60016854
S3150800938049084900016001680902FCD48748006859
S3150800939010B16420FBF740FD8548002101600120DB
S315080093A0207031BD38B5FBF7C3F804467B4D2878E5
S315080093B0012823D17F48016841F0807101607E4809
S315080093C0012101607D490020FBF74FFD7C48022101
S315080093D001607C48002101607B487C4901607C492A
S315080093E001220A606F497B4A0A6040F20141016521
S315080093F079484FF480310160022028702046BDE884
S315080094003240FBF79BB865480078022801D1012055
S31508009410704700207047D12202704170090A817096
S315080094206E490A78C270501C0870042070472DE9EE
S31508009430F34F81B04C1DE4B2002505F007FC0090FF
S315080094404FF6FF79FFF7DFFFA8B952E001996818D0
S3150800945010F8027C4946384605F0B4FC81465D465C
S31508009460F9B2F00001FA00F040EA0808761C042E6A
S3150800947016D3CAF80080EDB2A54232DA05F0E6FB4B
S315080094800099401A40F2F51180B2884229D24FF06D
S31508009490604ADAF800000128EDD14FF000080026EE
S315080094A0EDB215B95B270125DAE7012D03D19DF841
S315080094B008700225D4E705F1010BE11E8D4208BFAD
S315080094C04F46CCD0A11E8D4208BF4FEA1927C6D0F9
S315080094D0611E8D4208BF5D27C1D0A542B6D10027BF
S315080094E0BEE74FF4C870FBF797FCA54208BF0020FB
S315080094F000D00120BDE8FE8F10B502460C460020BC
S315080095002178052924BF1046FFF791FF0421217011
S3150800951010BD2DE9F843224C6578012D3BDB05F09B
S3150800952095FB80462E462027202E98BF3746DFF823
S31508009530B090C4F804900CE0A07858B9F01B60709D
S31508009540C6B23EB16068381860602027202E98BFE2
