S02A00007365637572652D6170702D626F6F746C6F616465722D6C6F63616C2D73746F726167652E73333723
S31508000000000400207500000881000008810000082F
S31508000010A70B0901000000000302111000400008A8
S31508000020040C00007D0F00083D140008E0060008D7
S31508000030DD08000881090008370A0008E1080008F9
S31508000040E30800084D0B0008E90800081001000045
S31508000050FFFFFFFF05480068202100EA010020B1E4
S315080000600348016842688D46104770472C000040D7
S3150800007000400008FFF7EEFF00F00DF800F042F828
S3150800008005E00000854670474548008870474FF4EC
S31508000090017000F09FB838B54FF20F04414D00F0DB
S315080000A0C5F828B140F2052028806C80012032BDB1
S315080000B03D480068C00615D56888A0421ED1288824
S315080000C040F2022188421CBF40F20621884215D020
S315080000D040F2011188421EBFB0F58A7F40F2111125
S315080000E088420BD0314C208A40F6A721884205D198
S315080000F02068FFF7C7FF6068804700BF002032BD51
S315080001000000000038B5044672B629480168490857
S315080001104900016000F0D0F823480068000910F093
S3150800012001000CBF2349244902E0CD2201F8012B26
S31508000130224A9142F9D32249224A234B03E011F875
S31508000140015B02F8015B9A42F9D32049204A002351
S3150800015001E001F8013B9142FBD340F20521114A27
S3150800016053884FF20F05AB420AD113888B4205D04C
S3150800017030B1180A012818BF022801D1194601E032
S3150800018004B90021064801804CF23C30508000F04A
S315080001906BFA4FF40170BDE8324000F01BB800005E
S315080001A0B40C0020000000202C000040004000088D
S315080001B0FCED00E00000002098000020000400206C
S315080001C0A0190008000400200404002004040020EC
S315080001D0BD0C00200D4930220A600D490A600D4900
S315080001E00A600D4910220A60010A08BF00020B497D
S315080001F008804FF20F004880BFF35F8F0848002140
S315080002000160416007480849016070473020004096
S3150800021030C8004030C0004010E000400000002018
S315080002201C4000400CED00E00400FA050020704771
S3150800023080B500F06EFA0121062000F075FA062056
S3150800024000F0A3FA0121072000F06EFA072000F05B
S315080002508FFA1748016821F01001016001BD0000FE
S31508000260052800D9704710B5DFE800F01721030FFD
S315080002701C17104C2088411E2180C0B9072000F0A9
S3150800028091FA42F21070208010BD072000F07DFA26
S315080002900620BDE8104000F085BA0620BDE81040EB
S315080002A000F066BA0620BDE8104000F06EBA10BD30
S315080002B000BC0040B60C002029E038B5054600F021
S315080002C01BFA7649B0FBF1F44FF4F070B0FBF4F08A
S315080002D02D1A1E2DBCBF4FF40170FFF77BFF704827
S315080002E0072101600021416081606E494FF000726C
S315080002F00A6005FB04F1C91C8908491E416031BD25
S315080003006A48016841F001010160012141606848BD
S31508000310512101607047002070472DE9F04781465A
S3150800032040F2DC58C246634E5D48634F634C5E4DEF
S31508000330296801291DDA0221618039600068C00335
S3150800034048BF00F092F8B86900F00300032864D0AB
S315080003502868002803D5B86940F00200B861484605
S31508000360FFF7D9FF5FEA000A1BD12868002854D591
S3150800037051E04FF6FF756188A94220D102237F22FA
S315080003804F480188A01C00F023FA6088A84204BFE1
S3150800039002206080B869800703D4B86940F002007B
S315080003A0B8610120B07060883860012070700FFA5B
S315080003B08AF42046FFF781FFA0B2BDE8F087B96945
S315080003C08907EAD50068C00348BF00F04EF8B07840
S315080003D008B14046F1E7B86810F00100B9686288CC
S315080003E003D10F2A08D2521C06E0890704D52178C2
S315080003F011B1032A28BF521E207092B2022A38BFB2
S3150800040002226280386861888842CAD1B86900F0D9
S315080004100300032801D0FFF773FF0020CDE710B5CE
S3150800042004462848017869B9C078072818BF0928FA
S3150800043013D0032818BF11280FD013281CBF15285E
S315080004400B280AD02048016841F48071016004E055
S3150800045000F0F2F90620FFF75EFF2046FFF75DFF82
S315080004600028F5D110BD0220D9E70D4800214160CA
S315080004708160016821F0020101600E480021417087
S3150800048008494FF000720A60817801B9704780B553
S31508000490002181700620FFF73EFF01BD90D00300C2
S315080004A010E000E004ED00E0901900081C40004050
S315080004B000800040B80C00200440004000040020E2
S315080004C09C190008960708083840004000787047CD
S315080004D0002101608180C18001817047F8B504461A
S315080004E00D461646002710E0206880302060002060
S315080004F0E08080202081A088401CA080E088411CE4
S31508000500E1800019807A78557F1CBFB2B7420CD2B9
S31508000510E08821898842F1D3802204F10A01206803
S3150800052000F02EFA0028DFD0F2BD0020F2BD002030
S31508000530704710B5044600F0F3F82046BDE81040B1
S3150800054000F05ABB2DE9F043A5B000F03BFB00F0E4
S31508000550E7F800F091FB012100A800F095FB404C5C
S3150800056004F1800500206860A86000F0BAF9002848
S315080005700FBFE8608168E9604088A4F8800000A899
S3150800058000F04AFC070046D1BDF80420BDF8060075
S3150800059000A9401800F20A065FFA82F894F880006B
S315080005A080070FD5E96869B1686808EB00024B1E39
S315080005B022EA030710B1A868B84203D2384600F009
S315080005C0C5FAAF6042463146686800F034FA07005B
S315080005D00FD142462146686800F0D2F9002000E0B3
S315080005E0401C404505DA015D825D9142F8D08327BB
S315080005F006E0686840446860002FC0D01B2FBED054
S315080006000420FFF72DFE0121384600F08DFB384601
S3150800061025B0BDE8F083172FF0D10020F8E770B5B4
S31508000620DAB0044636A8FFF753FF012000904FF4CE
S3150800063002630C4A36A901A800F0A0FC0FF2A00537
S315080006400FF2900600F06CF8002C14BF3246002218
S3150800065001A9284600F0F2FE5028F3D05AB070BD22
S31508000660240C00200404002038B5FFF70DFD0446CD
S31508000670FFF7F9FE40F21115B4F58A7F08D100F0AC
S31508000680A1FA00F0DEFA0028FBD02846FFF7A2FD03
S31508000690FFF7CEFD00F022F918B14FF40170FFF70D
S315080006A099FD00F03DF840F20110844218BFAC42B3
S315080006B009D0B4F58A7F1FBF40F20520844240F274
S315080006C00320844201D1012000E0002000F0E4FE6E
S315080006D0002032BDB5150008F1150008CD04000844
S315080006E0DD0400082F05000819480068C00701D472
S315080006F0184870471848704780B5FFF7F5FF17493F
S31508000700096801B9400802BD80B5FFF7EDFF40084A
S3150800071002BD1348012181604EF6BE21416000E00A
S31508000720104801210160704710B5C20843074CBF45
S315080007300D4B0E4B03EB422200F0030080001368BA
S315080007400F248440A34301FA00F01843106010BD3B
S315080007501C400040001BB70000366E0120400040D8
S31508000760006000400860004004B0004000B000404F
S31508000770C108032908D2C1104902124A012300F010
S31508000780070003FA00F050507047C108032908D241
S31508000790C11049020C4A012300F0070003FA00F0D1
S315080007A050507047C10803290BD2C110074A02EB03
S315080007B041210A68012300F0070003FA00F05040BF
S315080007C00860704714B0004010B000400CB00040FC
S315080007D030B583B0044610467F2808BF0020B1F51F
S315080007E0004F1AD108237F2240F6120100A8FFF70E
S315080007F0EFFF08220FF2380100A800F0B1FE30B969
S3150800080008237F2240F2A27100A8FFF7E1FF082221
S3150800081000A9204600F084FE37BD1A46034D294339
S3150800082000FB0311204600F07BFE37BD00000808D8
S31508000830FFFFFFFFFFFFFFFF70B50646224C256846
S31508000840FFF762FF2149B0FBF1F070432F303021EA
S31508000850B0FBF1F0032809D3616D41F00101616530
S315080008602168491B0903090B8142F9D370BD38B5C4
S315080008700C4620B101280FD0032820D021E0144DC2
S3150800088044B1FFF741FF1349B0FBF1F0401EB0F544
S31508000890005F0CD2286012E04CB1FFF735FF610803
S315080008A001EB4000B0FBF4F0B0F5003F01D3202087
S315080008B032BD094900F001024A604008086000207C
S315080008C032BD212032BD00003820004090D0030000
S315080008D0100004E020A1070068C800400020704707
S315080008E070470FF2C8207047002070478E48018A6B
S315080008F040F6A722914213D1418A01F47F42B2F50C
S31508000900807F0AD1B1F5847F07D3C06DB0F1006F3F
S3150800091003D90021854A101A10E0002100200DE0B5
S315080009208348C0F500204008C10A0C22514398317B
S315080009304A0503D0C90AC90201F5006108187047BB
S315080009407C49C20AB1EBC221400511EB50507047F1
S3150800095070B504460D192846FFF7F2FF0646FFF75D
S31508000960C5FF844203D2A84228BFA54201D200206F
S3150800097070BD7148C06986428041C043C00F70BDD2
S31508000980F8B506460C4615462946FFF7E1FF08B9AD
S315080009908520F2BD3046FFF7D3FF064670051FD007
S315080009A07005400DC0F5006080B22F46854288BFAD
S315080009B007463A463146204600F0B2FDF00AC00224
S315080009C0A0F500663C19ED1B0AE04FF400622046CC
S315080009D000F0A6FDA6F5006604F60004A5F5006578
S315080009E0314640F60100ADB28542EED21DB12A4627
S315080009F0204600F095FD0020F2BD2DE9F843054696
S31508000A008846914600F09CF84C4E37683068400896
S31508000A104000306000F0B4FD4A464146284600F0E2
S31508000A20E7FD0546376000F0ABFDE4B284F31088B5
S31508000A302846BDE8F2832DE9F04107468846154663
S31508000A40002605F0010007F00101084344D12946B4
S31508000A503846FFF77DFF00283ED03846FFF770FF7F
S31508000A60074678051CD07805400DC0F50064A4B289
S31508000A70A542B8BF2C4604EBD470C203120C00F092
S31508000A8034F80646F80AC002A0F50067A0442D1BF4
S31508000A908EB905E0A7F5006708F60008A5F5006514
S31508000AA040F60100ADB2854205D34FF4806200F0EE
S31508000AB01CF80600EED02EB9ADB25DB16A0800F09A
S31508000AC014F8064636B1022E06D0462E08D04B2E0E
S31508000AD004D007E0002006E0852004E0832002E039
S31508000AE0872000E00120BDE8F0814146384684E7CA
S31508000AF02DE9F0410546884600F022F80F4F3E687A
S31508000B00386840084000386000F03AFD41462846FB
S31508000B1000F050FD05463E6000F032FDE4B284F375
S31508000B2010882846BDE8F081004000080000080843
S31508000B300000000000F807080000000894ED00E037
S31508000B40EFF31084012080F31088704770B50446CF
S31508000B500D46680501D0822070BD600501D0812050
S31508000B6070BD89B22046FFF7F3FEC0B12046FFF7F5
S31508000B70E7FE044603E0A4F50064A5F500652DB17B
S31508000B8021460220FFF7B4FF0600F4D0F6B226B1DC
S31508000B90022E04D04B2E04D005E0002070BD85201F
S31508000BA070BD832070BD012070BD000002010F00DA
S31508000BB01600000000080000000000009419000854
S31508000BC00200000080B54FF4E1310120FFF74FFE27
S31508000BD02648022181600121016009210920FFF7C9
S31508000BE0A3FD04210A20BDE80440FFF79DBD204867
S31508000BF000684006FBD570471E49CA685207FCD5EF
S31508000C000860704710B5044603E014F8010BFFF7B7
S31508000C10F3FF20780028F8D110BD10B50446200946
S31508000C200A282CBF37303030C0B2FFF7E5FF04F092
S31508000C300F000A282CBF37303030C0B2BDE810404C
S31508000C40DAE70B48006810F0020018BF0120704769
S31508000C5010B50446FFF7F5FF20B106480068207076
S31508000C60002010BD012010BD0000000054C800403F
S31508000C7048C800403CC8004080B500A8FFF7E8FF18
S31508000C800028FAD001BD000001700122427082706E
S31508000C9001290CBF8021402181800021C18001816A
S31508000CA01F4801600E218162016821F01001016070
S31508000CB00021416341627047F8B504460D46164661
S31508000CC018484FF0FF310160154FFE620020786228
S31508000CD0386840F001003860FFF722FD012C11D179
S31508000CE035B9FFF7AEFF00F0010080F0010002E021
S31508000CF02846FFF7ADFF38B9386840084000386025
S31508000D000020F2BD0120F2BD786AB042E4D3002E7D
S31508000D10E2D038684008400038601620F2BD00006E
S31508000D2000F0004000A8004038B504460D4600F023
S31508000D3009F800F007F82A4621461820BDE8384089
S31508000D40FFF7F7BB2A4621461820FFF7F2BB30B556
S31508000D5083B00446002020814AF6B43200A92078E0
S31508000D60FFF7AAFF08B11C203EBD9DF80000032826
S31508000D7018BF182801D118203EBD042801D1172014
S31508000D803EBD012801D021203EBD002500E06D1C96
S31508000D90EDB2A188091D8D420BDA40F2DD22281931
S31508000DA000F10A012078FFF787FF0028EFD02620F8
S31508000DB03EBD0025002006E00146EDB22819007B5D
S31508000DC000F03CFC6D1CA188EAB28A42F4D3A27AF0
S31508000DD0E37A9B18FF2B01D022203EBD0B191D7B01
S31508000DE0B5EB102F01D023203EBD5B7BC0B28342FA
S31508000DF001D024203EBDA078824207D0401EC0B252
S31508000E00824201D127203EBD25203EBD881C208177
S31508000E100220E08000203EBD38B5044660780128EF
S31508000E2004D028D303285AD01DD324E020780128DB
S31508000E3016D13B2500A8FFF70BFF0028FAD0432060
S31508000E40FFF7DAFE40F2DD2200212078FFF734FFB3
S31508000E5030B12846451EC0B20028F0D11B2032BD4D
S31508000E600220607010E0FFF707FF00F03AF8A0785C
S31508000E70401CA07008E0182032BD2278A078411ED8
S31508000E80C9B20620FFF755FB2046FFF760FF0500AD
S31508000E9018BFFFF7F1FE272DEFD0A8060BD522784D
S31508000EA0A1781520FFF745FB002DEDD10320FFF7AC
S31508000EB0D7F9002032BD680603D4182D18BF1C2D9B
S31508000EC007D121782846FFF72FFF042060702846AF
S31508000ED032BD172DE8D100F004F803206070172002
S31508000EE032BD2278A1780620FFF723BBF8B5044661
S31508000EF00D4616461F4607E03046A047294600F02D
S31508000F00AFFB05467F1E761CBFB2002FF4D12846DC
S31508000F10F2BD38B50C46154605E0014614F8010B36
S31508000F2000F09EFB6D1EADB2002DF6D132BDF8B5B0
S31508000F3007460E4614461D462A46214630683B6833
S31508000F409847070005D12A462146F068FFF7E1FFD2
S31508000F50F060D6F8A8002818C6F8A80096F8A700E2
S31508000F6050B1AC362A462146304600F04DFC2A469A
S31508000F702146304600F0C8FB3846F2BD10B5029C43
S31508000F8084720381426001604FF0FF31C160002125
S31508000F900174A0F8A410802180F8A610002180F81A
S31508000FA0A710C0F8A8102822AC30BDE8104000F001
S31508000FB0D0BA2DE9F84F04468B461E469BF81B709F
S31508000FC0802F28BF8027D0689B49884250D1002EA1
S31508000FD04CD0B06800904FF0FF384FF000090BEB8B
S31508000FE0490A9AF848500FE0FF2D16D0FFF798FBEC
S31508000FF04FF40063E80240F0006241460098FFF7AC
S3150800100075FF8046681CC5B29AF84900A842EBDA13
S3150800101009F10109B9F1060FE1DBDBF844006FEAD3
S315080010200801884224D1A06800BA7A08594673682C
S315080010309847C8B9E06805BAA06802BA3B464FF0B7
S31508001040FF31B068FFF752FFC04385420CD140F626
S31508001050A720ABF81000A06800BA01220BF1100116
S3150800106010307368984708B1422002E0172000E064
S315080010704320BDE8F28F2DE9F44F82B081460D4634
S31508001080D5F804B02889ADF8000005F1140606F174
S31508001090100704235A4600F0CFF9002825D1BBF8DB
S315080010A0000040BA1FFA80F8BBF8020040BA84B2C2
S315080010B0E00748BF462076D4B4F5026FC8BF4E2075
S315080010C071DC002C6ED0DFF874A15FEA080009D045
S315080010D04FF60441B8EB010064D0FF3865D0FE38FE
S315080010E063D0A7E0287C08B151205CE08D2C28BF8E
S315080010F04F2058D22346321D00F09DF9002852D1C0
S31508001100FA7E802A28BF802202F10C00844201BFA1
S31508001110B08840BA00F47F40B0F5007F3ED1F08831
S3150800112040BA4EF25031884202BF388A40F6A721AB
S31508001130884233D1788A00F47F40B0F5807F01BFBA
S31508001140B06800BADAF81C10884227D1BAF8180035
S3150800115040F2032188420BD1788AB0F5847F1DD3EB
S31508001160F86D41051AD13649081AB0F5F02F15D889
S315080011704FF6FF70388206F110014FF0FF30FFF787
S31508001180C8FEF16809BAC943884204BF387E0428F4
S3150800119004D1787E0C2818BF062801D0452002E025
S315080011A0012028740020BDE8FE8F287C08B941205C
S315080011B0F9E7042300F03EF90028F4D1DBF8000033
S315080011C006BA201F84B2DAF81C00864238BF4820C7
S315080011D0E9D3A019796D884228BF4920E3D24FF692
S315080011E0035080450CD1029850B131460220029A2C
S315080011F01268904720B14A20D5E7E01B84B2BE1991
S31508001200002CCFD0BDF800008442B4BF274607465D
S315080012103B4600F00FF90028C5D102980028ECD00B
S315080012207A0859463046029B5B6898470028E4D0FE
S315080012304B20B8E74420B6E7E320BBDE00000008F1
S3150800124000E007082DE9F84304468846154605F1E7
S31508001250AC062F89102C38BF4E202CD304233246D7
S3150800126000F02BF838BB0C23321D00F026F810BB13
S31508001270A4F11001306800BA30608CB221463046BD
S3150800128000F00AFA06E04A466968304600F03CFA79
S31508001290A4EB0904A4B254B1A146BC4288BFB9461E
S315080012A04B466A6800F009F80028ECD003E030469F
S315080012B000F04DFA0020BDE8F2832946404636E69E
S315080012C02DE9FE4F81460C469046666804F1140ADD
S315080012D00AF1100B04F1A405A878832805D14FF666
S315080012E00710AF888221A9700AE00423324600F06D
S315080012F0A3F8002866D1308840BA718849BA8FB2F7
S31508001300F90748BF46205DD4A97880B24FF2097222
S31508001310801A58D04FF4FF72801A3AD0FF382FD06F
S31508001320FF3802D0FF386BD081E080296AD1062FBA
S3150800133023D3062301AA21464846FFF7F8FDE8B954
S31508001340BDF8040040BA00F47F40B0F5007F01BF45
S31508001350BDF8080040BA4EF2503188420DD1BDF8AA
S31508001360060040BA012818BF522007D1BDF806006A
S3150800137040BAA4F8A400002000E04520812154E0EA
S3150800138081293FD1224649463846FFF75BFF82212D
S315080013904BE0822936D1042F2DD30120E870002096
S315080013A06860424621464846FFF765FE18BB00219D
S315080013B0E97069688F421ED3B94239D28322AA706E
S315080013C0791A696034E082291CD104F1AC084046D8
S315080013D000F0BDF92089B842B8BF4F2028DB3B464C
S315080013E03246214600F028F810BBFAB2314640468C
S315080013F000F0D3F908B954201AE00020842114E03B
S31508001400842901D0512013E0042F18BF4C200FD196
S3150800141004233246214600F00FF848B943462246CF
S3150800142059465046FFF7C5FD8521A97000E04420BE
S31508001430BDE8FE8F5A462946484678E570B5054602
S315080014400C4616462089C10701D4802801DA4F20A8
S3150800145070BD00F015F908B9532070BD3246214613
S315080014602846FFF72DFF002818BF172803D08F211D
S3150800147084F8A61070BD94F8A600852806D12068C1
S3150800148069688847172805D1002070BDA07A00280A
S31508001490E4D0502070BD000010B504460020FEF7C9
S315080014A0DFFE24BB0020FFF7BAF850B90120FFF78A
S315080014B0B6F830B90520FEF7D3FE40F20120FEF754
S315080014C089FE0420FEF7CCFE0120FEF7C9FE40F295
S315080014D00320BDE81040FEF77DBE0FF23400FFF78B
S315080014E091FBFFF784FB40F20220FEF773FEFFF73D
S315080014F029F80400F1D00FF22000FFF783FB2046FD
S31508001500FFF78BFB01A0FFF77DFBF0E70D0A000054
S315080015100D0A4F6B0D0A00000D0A455252200000B5
S31508001520814212D21018401E5118491E92B2002A42
S315080015301EBF11F8013900F80139521EF6D170475D
S3150800154011F8013B00F8013B521E92B2002AF7D16E
S315080015507047130003D00A46194600F081B9704750
S3150800156010B500E0521E92B23AB110F8013B11F8DC
S31508001570014BA342F6D0181B10BD002010BD000079
S31508001580BFF35F8FBFF34F8FBFF36F8F70470000B6
S315080015902748018A40F6A772914202BF418A4FF452
S315080015A07F40014204D102298041C043C00F7047E1
S315080015B000207047F8B504460D461C4E01203070D1
S315080015C0FFF7E6FF18B94FF40170FEF703FE184857
S315080015D0876A294644F48070B847002131700FF2B3
S315080015E0540618B9294644F40070B847805DF2BD20
S315080015F02DE9F041044688465600FFF7C9FF18B999
S315080016004FF40170FEF7E6FD0948476A00233246A3
S3150800161041462046B8470FF21C0520B9334600223A
S3150800162041462046B847405DBDE8F081BC0C002025
S3150800163000000808000202024B4B46470A0242EA2B
S3150800164011214840C0F30311484080EA00304101A7
S31508001650C9B20206D20E41EA0221484080B270475A
S315080016600A0A4840C0B208214308C00746BF0348D3
S3150800167058401846491EF7D1504070472083B8EDA8
S3150800168000206049415CFF2901D001207047401CB9
S315080016901028F6DB0020704712B583B00446206890
S315080016A000BA00903A20039901B17A2020740C22DE
S315080016B0211D04F11100FFF733FF03220DF101018B
S315080016C004F11D00FFF72CFF00F03CF80398D0B199
S315080016D0B0F57F4F05D200BA039002220DF10E0134
S315080016E00EE00FF278100088ADF80400039800BAEF
S315080016F00390022201A9204600F006F8042203A955
S31508001700204600F001F81FBDF8B504460D461646FA
S31508001710002714E094F825000019017C7A5D5140F1
S31508001720017494F82500401C84F82500C0B21028DE
S3150800173004D300F007F8002084F825007F1CB74280
S31508001740E8D3F1BD2F4904F1100000F0FAB81FB52F
S31508001750044600A8102100F0FDF894F82500C0F111
S315080017601000C11000EB11710911A0EB011200A9BC
S315080017702046FFF7C9FF1FBD1FB50C4600AA011D6D
S31508001780002000F027F80020015D00AA825C514085
S315080017900155401C1028F7DB1FBD38B504460D4619
S315080017A0102A07D12068216A94F8242002EB011137
S315080017B0884201D0002032BD29462046FFF7DCFFCB
S315080017C0102204F110012846FFF7CAFE401E804188
S315080017D0C00F32BD11B581B0144600BA019002207F
S315080017E020700C22601CFFF79BFE03220DF10501F9
S315080017F004F10D00FFF794FE0249204600F0A1F817
S3150800180013BD0000F8080808F0B585B004460D4673
S315080018101646002100271DE031B900AA211D206ABD
S31508001820401CFFF7D7FF012104F120007A5D0379F8
S315080018300DF1000C13F80C305A407A550279521CF7
S31508001840D2B2102A04D30022216A491C216200213F
S3150800185002717F1CB742DFD305B0F0BDFFFE000062
S3150800186062F30F2262F31F42401810F0030308D0F8
S31508001870C91A1FD3DB0748BF00F8012D28BF20F877
S31508001880022D130030B414461546103928BF20E936
S315080018903C00FAD8490728BF20E90C0048BF40F8A1
S315080018A0042D890028BF20F8022D48BF00F8012D15
S315080018B030BC7047C91818BF00F8012DCB0728BFE0
S315080018C000F8012D704700000649026812BACA607E
S315080018D0426812BA8A60826812BA4A60C06800BA58
S315080018E00860704738300040024980220A60024A80
S315080018F004E000BF0030004010A00040062313603B
S3150800190007230B6013689B07FCD503681BBA8B6219
S3150800191043681BBA8B6283681BBA8B62C3681BBA9F
S315080019208B6213685B07FCD50A6B12BA02600A6BF6
S3150800193012BA42600A6B12BA8260096B09BAC160B0
S31508001940704710B504460846FFF7BEFF2046BDE8B7
S315080019501040C9E7002200F001B8000000B500BF3A
S31508001960130096469446103928BFA0E80C50FAD8BA
S315080019705FEA417C28BF0CC048BF40F8042BC90762
S3150800198028BF20F8022B48BF00F8012B00BD000035
S3150800199000366E01454D333578000000EE0800002C
S309080019A00100FFFF36
S705080000757D
