S01500006170702D626F6F746C6F616465722E73333746
S31508000000000400207500000881000008810000082F
S31508000010A70B0901000000000102111000400008AA
S31508000020040A0000FF0E0008DD110008E0060008BB
S3150800003003090008790A0008DB0A00088109000894
S315080000405F090008510B0008650900081001000047
S31508000050FFFFFFFF05480068202100EA010020B1E4
S315080000600348016842688D46104770472C000040D7
S3150800007000400008FFF7EEFF00F00DF800F042F828
S3150800008005E00000854670474548008870474FF4EC
S31508000090017000F09FB838B54FF20F04414D00F0DB
S315080000A0C5F828B140F2052028806C80012032BDB1
S315080000B03D480068C00615D56888A0421ED1288824
S315080000C040F2022188421CBF40F20621884215D020
S315080000D040F2011188421EBFB0F58A7F40F2111125
S315080000E088420BD0314C208A40F6A721884205D198
S315080000F02068FFF7C7FF6068804700BF002032BD51
S315080001000000000038B5044672B629480168490857
S315080001104900016000F0D0F823480068000910F093
S3150800012001000CBF2349244902E0CD2201F8012B26
S31508000130224A9142F9D32249224A234B03E011F875
S31508000140015B02F8015B9A42F9D32049204A002351
S3150800015001E001F8013B9142FBD340F20521114A27
S3150800016053884FF20F05AB420AD113888B4205D04C
S3150800017030B1180A012818BF022801D1194601E032
S3150800018004B90021064801804CF23C30508000F04A
S315080001906BFA4FF40170BDE8324000F01BB800005E
S315080001A0B40C0020000000202C000040004000088D
S315080001B0FCED00E00000002098000020000400206C
S315080001C0F81300080004002004040020040400209A
S315080001D0BD0C00200D4930220A600D490A600D4900
S315080001E00A600D4910220A60010A08BF00020B497D
S315080001F008804FF20F004880BFF35F8F0848002140
S315080002000160416007480849016070473020004096
S3150800021030C8004030C0004010E000400000002018
S315080002201C4000400CED00E00400FA050020704771
S3150800023080B500F06EFA0121062000F075FA062056
S3150800024000F0A3FA0121072000F06EFA072000F05B
S315080002508FFA1748016821F01001016001BD0000FE
S31508000260052800D9704710B5DFE800F01721030FFD
S315080002701C17104C2088411E2180C0B9072000F0A9
S3150800028091FA42F21070208010BD072000F07DFA26
S315080002900620BDE8104000F085BA0620BDE81040EB
S315080002A000F066BA0620BDE8104000F06EBA10BD30
S315080002B000BC0040B60C002029E038B5054600F021
S315080002C01BFA7649B0FBF1F44FF4F070B0FBF4F08A
S315080002D02D1A1E2DBCBF4FF40170FFF77BFF704827
S315080002E0072101600021416081606E494FF000726C
S315080002F00A6005FB04F1C91C8908491E416031BD25
S315080003006A48016841F001010160012141606848BD
S31508000310512101607047002070472DE9F04781465A
S3150800032040F2DC58C246634E5D48634F634C5E4DEF
S31508000330296801291DDA0221618039600068C00335
S3150800034048BF00F092F8B86900F00300032864D0AB
S315080003502868002803D5B86940F00200B861484605
S31508000360FFF7D9FF5FEA000A1BD12868002854D591
S3150800037051E04FF6FF756188A94220D102237F22FA
S315080003804F480188A01C00F023FA6088A84204BFE1
S3150800039002206080B869800703D4B86940F002007B
S315080003A0B8610120B07060883860012070700FFA5B
S315080003B08AF42046FFF781FFA0B2BDE8F087B96945
S315080003C08907EAD50068C00348BF00F04EF8B07840
S315080003D008B14046F1E7B86810F00100B9686288CC
S315080003E003D10F2A08D2521C06E0890704D52178C2
S315080003F011B1032A28BF521E207092B2022A38BFB2
S3150800040002226280386861888842CAD1B86900F0D9
S315080004100300032801D0FFF773FF0020CDE710B5CE
S3150800042004462848017869B9C078072818BF0928FA
S3150800043013D0032818BF11280FD013281CBF15285E
S315080004400B280AD02048016841F48071016004E055
S3150800045000F0F2F90620FFF75EFF2046FFF75DFF82
S315080004600028F5D110BD0220D9E70D4800214160CA
S315080004708160016821F0020101600E480021417087
S3150800048008494FF000720A60817801B9704780B553
S31508000490002181700620FFF73EFF01BD90D00300C2
S315080004A010E000E004ED00E0E41300081C40004002
S315080004B000800040B80C00200440004000040020E2
S315080004C0F41300089607080838400040007870477B
S315080004D0002101608180C18001817047F8B504461A
S315080004E00D461646002710E0206880302060002060
S315080004F0E08080202081A088401CA080E088411CE4
S31508000500E1800019807A78557F1CBFB2B7420CD2B9
S31508000510E08821898842F1D3802204F10A01206803
S3150800052000F0AAFA0028DFD0F2BD0020F2BD0020B4
S31508000530704710B5044600F0F3F82046BDE81040B1
S3150800054000F02EBB2DE9F043A5B000F00FFB00F03C
S31508000550E7F800F065FB012100A800F069FB404CB4
S3150800056004F1800500206860A86000F0F8F900280A
S315080005700FBFE8608168E9604088A4F8800000A899
S3150800058000F01EFC070046D1BDF80420BDF80600A1
S3150800059000A9401800F20A065FFA82F894F880006B
S315080005A080070FD5E96869B1686808EB00024B1E39
S315080005B022EA030710B1A868B84203D2384600F009
S315080005C0C7FAAF6042463146686800F086FA070007
S315080005D00FD142462146686800F04EFA002000E036
S315080005E0401C404505DA015D825D9142F8D08327BB
S315080005F006E0686840446860002FC0D01B2FBED054
S315080006000420FFF72DFE0121384600F061FB38462D
S3150800061025B0BDE8F083172FF0D10020F8E770B5B4
S31508000620DAB0044636A8FFF753FF012000904FF4CE
S3150800063002630C4A36A901A800F061FC0FF2A00576
S315080006400FF2900600F06CF8002C14BF3246002218
S3150800065001A9284600F0C2FD5028F3D05AB070BD53
S31508000660240C00200404002038B5FFF70DFD0446CD
S31508000670FFF7F9FE40F21115B4F58A7F08D100F0AC
S3150800068075FA00F0B2FA0028FBD02846FFF7A2FD5B
S31508000690FFF7CEFD00F035F918B14FF40170FFF7FA
S315080006A099FD00F03DF840F20110844218BFAC42B3
S315080006B009D0B4F58A7F1FBF40F20520844240F274
S315080006C00320844201D1012000E0002000F0A6FDAD
S315080006D0002032BD5D13000899130008CD040008F8
S315080006E0DD0400082F05000819480068C00701D472
S315080006F0184870471848704780B5FFF7F5FF17493F
S31508000700096801B9400802BD80B5FFF7EDFF40084A
S3150800071002BD1348012181604EF6BE21416000E00A
S31508000720104801210160704710B5C20843074CBF45
S315080007300D4B0E4B03EB422200F0030080001368BA
S315080007400F248440A34301FA00F01843106010BD3B
S315080007501C400040001BB70000366E0120400040D8
S31508000760006000400860004004B0004000B000404F
S31508000770C108032908D2C1104902124A012300F010
S31508000780070003FA00F050507047C108032908D241
S31508000790C11049020C4A012300F0070003FA00F0D1
S315080007A050507047C10803290BD2C110074A02EB03
S315080007B041210A68012300F0070003FA00F05040BF
S315080007C00860704714B0004010B000400CB00040FC
S315080007D030B583B0044610467F2808BF0020B1F51F
S315080007E0004F1AD108237F2240F6120100A8FFF70E
S315080007F0EFFF08220FF2380100A800F06CFD30B9AF
S3150800080008237F2240F2A27100A8FFF7E1FF082221
S3150800081000A9204600F046FD37BD1A46034D294378
S3150800082000FB0311204600F03DFD37BD0000080817
S31508000830FFFFFFFFFFFFFFFF70B50646224C256846
S31508000840FFF762FF2149B0FBF1F070432F303021EA
S31508000850B0FBF1F0032809D3616D41F00101616530
S315080008602168491B0903090B8142F9D370BD38B5C4
S315080008700C4620B101280FD0032820D021E0144DC2
S3150800088044B1FFF741FF1349B0FBF1F0401EB0F544
S31508000890005F0CD2286012E04CB1FFF735FF610803
S315080008A001EB4000B0FBF4F0B0F5003F01D3202087
S315080008B032BD094900F001024A604008086000207C
S315080008C032BD212032BD00003820004090D0030000
S315080008D0100004E020A1070068C800409849086095
S315080008E048680007FCD5086870479549FF200860E6
S315080008F04A681207FCD54A68920748BF0868C0B21A
S31508000900704710B509210020FFF70EFF04210120CA
S31508000910FFF70AFF09210220FFF706FF012103203E
S31508000920FFF702FF87480021C1600161416010217D
S3150800093041600221016044F62060FFF77DFF824C8A
S31508000940082060609F20FFF7C9FFFFF7CEFF082148
S3150800095021601F2801D1002010BD862010BD0FF28E
S31508000960F41070470020704710B5774C0820606077
S31508000970D720FFF7B3FFFFF7B8FF0821216010BDA6
S3150800098080B5FFF7F1FF8028FBD301BDF8B5044613
S315080009900D461646FFF7E8FF8028FBD36A4F082066
S315080009A07860D220FFF79AFF6002000EFFF796FFE5
S315080009B0200A4006000EFFF791FFE0B2FFF78EFF10
S315080009C000F016F800F014F800F012F800F010F82D
S315080009D005E0FFF7A5FEFFF788FF05F8010B30468F
S315080009E0461E80B20028F4D1082038600020F2BDE7
S315080009F0002073E72DE9F843064688469146FFF737
S31508000A00B3FF8028FBD3300A4400F50B4E4FB9F5E7
S31508000A10807F13D2082078605320FFF75FFFE8B283
S31508000A20FFF75CFFE0B2FFF759FFF0B2FFF756FF9A
S31508000A3008203860FFF798FF8028FBD308207860E5
S31508000A408220FFF74BFFE8B2FFF748FFE0B2FFF757
S31508000A5045FFF0B203E0FFF763FE18F8010BFFF756
S31508000A603DFF4846A0F1010980B20028F3D10820CD
S31508000A7038600020BDE8F2832DE9F84304460D46A8
S31508000A801646324884423ABF31198142852012D22D
S31508000A9040F201194FF48078200607D0200A000298
S31508000AA000F58070814203D3071B02E04E4504D24D
S31508000AB037461EB90020BDE8F2834746BAB2294632
S31508000AC02046FFF763FF0028F5D1F61BB8B20444A9
S31508000AD00544B6B24E45F0D2EAE72DE9F843044696
S31508000AE00D461646194884423ABF31198142852077
S31508000AF012D240F201194FF48078200607D0200A56
S31508000B00000200F58070814203D3071B02E04E45C0
S31508000B1004D237461EB90020BDE8F2834746BAB26A
S31508000B2029462046FFF766FF0028F5D1F61BB8B21E
S31508000B3004440544B6B24E45F0D2EAE70000000088
S31508000B403CC0004054C0004010B000400100040002
S31508000B508820704702010000000000000001000024
S31508000B6000000400E81300080100000080B54FF4F7
S31508000B70E1310120FFF77BFE264802218160012131
S31508000B80016009210920FFF7CFFD04210A20BDE8ED
S31508000B900440FFF7C9BD204800684006FBD57047EA
S31508000BA01E49CA685207FCD50860704710B5044646
S31508000BB003E014F8010BFFF7F3FF20780028F8D1BB
S31508000BC010BD10B5044620090A282CBF373030302E
S31508000BD0C0B2FFF7E5FF04F00F000A282CBF373034
S31508000BE03030C0B2BDE81040DAE70B48006810F0B4
S31508000BF0020018BF0120704710B50446FFF7F5FF3D
S31508000C0020B1064800682070002010BD012010BDE4
S31508000C100000000054C8004048C800403CC80040D6
S31508000C2080B500A8FFF7E8FF0028FAD001BD00004C
S31508000C30017001224270827001290CBF8021402177
S31508000C4081800021C18001811F4801600E218162D7
S31508000C50016821F01001016000214163416270477B
S31508000C60F8B504460D46164618484FF0FF310160A0
S31508000C70154FFE6200207862386840F0010038603F
S31508000C80FFF74EFD012C11D135B9FFF7AEFF00F085
S31508000C90010080F0010002E02846FFF7ADFF38B9F1
S31508000CA038684008400038600020F2BD0120F2BDD7
S31508000CB0786AB042E4D3002EE2D038684008400093
S31508000CC038601620F2BD000000F0004000A8004081
S31508000CD038B504460D4600F009F800F007F82A462C
S31508000CE021461820BDE83840FFF723BC2A4621468E
S31508000CF01820FFF71EBC30B583B0044600202081BB
S31508000D004AF6B43200A92078FFF7AAFF08B11C20DA
S31508000D103EBD9DF80000032818BF182801D11820E9
S31508000D203EBD042801D117203EBD012801D021204F
S31508000D303EBD002500E06D1CEDB2A188091D8D425F
S31508000D400BDA40F2DD22281900F10A012078FFF7B4
S31508000D5087FF0028EFD026203EBD0025002006E0AC
S31508000D600146EDB22819007B00F0C4FA6D1CA18873
S31508000D70EAB28A42F4D3A27AE37A9B18FF2B01D00F
S31508000D8022203EBD0B191D7BB5EB102F01D0232069
S31508000D903EBD5B7BC0B2834201D024203EBDA07815
S31508000DA0824207D0401EC0B2824201D127203EBDF2
S31508000DB025203EBD881C20810220E08000203EBD03
S31508000DC038B504466078012804D028D303285AD0B9
S31508000DD01DD324E02078012816D13B2500A8FFF76B
S31508000DE00BFF0028FAD04320FFF7DAFE40F2DD2297
S31508000DF000212078FFF734FF30B12846451EC0B2DF
S31508000E000028F0D11B2032BD0220607010E0FFF7E9
S31508000E1007FF00F03AF8A078401CA07008E01820F8
S31508000E2032BD2278A078411EC9B20620FFF781FBA1
S31508000E302046FFF760FF050018BFFFF7F1FE272DD4
S31508000E40EFD0A8060BD52278A1781520FFF771FBFD
S31508000E50002DEDD10320FFF703FA002032BD680606
S31508000E6003D4182D18BF1C2D07D121782846FFF763
S31508000E702FFF04206070284632BD172DE8D100F0F8
S31508000E8004F803206070172032BD2278A178062066
S31508000E90FFF74FBBF8B504460D4616461F4607E052
S31508000EA03046A047294600F037FA05467F1E761CCD
S31508000EB0BFB2002FF4D12846F2BD38B50C46154608
S31508000EC005E0014614F8010B00F026FA6D1EADB2D6
S31508000ED0002DF6D132BDF8B504460D4616461F4616
S31508000EE03A463146286823689847040005D13A46A9
S31508000EF03146E868FFF7E1FFE8602046F2BD10B525
S31508000F00029C84720381426001604FF0FF31C16028
S31508000F100021017410BD2DE9F84F04468B461E4684
S31508000F209BF81B70802F28BF8027D068A649884267
S31508000F3050D1002E4CD0B06800904FF0FF384FF0DB
S31508000F4000090BEB490A9AF848500FE0FF2D16D016
S31508000F50FFF7E6FB4FF40063E80240F00062414603
S31508000F600098FFF797FF8046681CC5B29AF84900B3
S31508000F70A842EBDA09F10109B9F1060FE1DBDBF862
S31508000F8044006FEA0801884224D1A06800BA7A08AA
S31508000F90594673689847C8B9E06805BAA06802BA9E
S31508000FA03B464FF0FF31B068FFF774FFC0438542F8
S31508000FB00CD140F6A720ABF81000A06800BA0122B1
S31508000FC00BF1100110307368984708B1422002E00F
S31508000FD0172000E04320BDE8F28F2DE9F84F804640
S31508000FE00D469146D5F804A02889ADF8000005F10C
S31508000FF0140606F11007042352464046FFF76BFF16
S31508001000002824D1BAF8000040BA1FFA80FBBAF8C3
S31508001010020040BA84B2E00748BF462075D4B4F54A
S31508001020026FC8BF4E2070DC002C6DD05FEA0B0043
S315080010300AD04FF60441BBEB010000F0AD80FF3843
S3150800104065D0FE3863D0BDE0287C08B151205CE04D
S315080010508D2C28BF4F2058D22346321D00F0BBF8EE
S31508001060002852D1FA7E802A28BF802202F10C007D
S31508001070844201BFB08840BA00F47F40B0F5007FD3
S315080010803ED1F08840BA4EF25031884202BF388AC3
S3150800109040F6A721884202BF788A00F47F40B0F55F
S315080010A0807F2DD1B06800BA4849C969884227D1DE
S315080010B04648008B40F2032188420BD1788AB0F566
S315080010C0847F1DD3F86D41051AD14149081AB0F538
S315080010D0603F15D84FF6FF70388206F110014FF0C1
S315080010E0FF30FFF7EAFEF16809BAC943884204BF30
S315080010F0387E042804D1787E0A2818BF062801D02D
S31508001100452002E0012028740020BDE8F28F287CE3
S31508001110002843D0042300F05DF80028F5D1DAF85A
S31508001120000006BA201F84B22848C069864238BF24
S315080011304820EAD3A019796D884228BF4920E4D20D
S315080011404FF6035083450DD1B9F1000F0AD0314649
S315080011500220D9F80020904720B14A20D5E7E01BA5
S3150800116084B2BE19002CCFD0BDF800008442B4BFAB
S31508001170274607463B4600F02DF80028C5D1B9F1A9
S31508001180000FECD07A0851463046D9F80430984713
S315080011900028E4D04B20B8E7287C08B94120B4E7FA
S315080011A0042C18BF4C20B0D104236A6800F013F849
S315080011B00028AAD14B462A463946304601B0BDE832
S315080011C0F04FA8E64420A0E7E320BBDE00000008B5
S315080011D000E003085246294640467CE670B50446B8
S315080011E00D4616462889C10701D4802803DA4F2000
S315080011F070BDA87A78B9324629462046FFF7EDFE33
S315080012000028F6D0172807D1286861688847172864
S3150800121002D1002070BD502070BD000010B50446F4
S315080012200020FFF71DF824BB0020FFF7F8F950B996
S315080012300120FFF7F4F930B90520FFF711F840F25D
S315080012400120FEF7C7FF0420FFF70AF80120FFF781
S3150800125007F840F20320BDE81040FEF7BBBF0FF2C7
S315080012603400FFF7A3FCFFF796FC40F20220FEF7D6
S31508001270B1FFFFF767F90400F1D00FF22000FFF77E
S3150800128095FC2046FFF79DFC01A0FFF78FFCF0E7D1
S315080012900D0A00000D0A4F6B0D0A00000D0A455293
S315080012A052200000814212D21018401E5118491EC1
S315080012B092B2002A1EBF11F8013900F80139521EF0
S315080012C0F6D1704711F8013B00F8013B521E92B265
S315080012D0002AF7D1704710B500E0521E92B23AB113
S315080012E010F8013B11F8014BA342F6D0181B10BDAC
S315080012F0002010BD0A0242EA11214840C0F303113A
S31508001300484080EA00304101C9B20206D20E41EADD
S315080013100221484080B270470A0A4840C0B20821F4
S315080013204308C00746BF034858401846491EF7D128
S31508001330504070472083B8ED2748018A40F6A772C7
S31508001340914202BF418A4FF47F40014204D10229EB
S315080013508041C043C00F704700207047F8B5044667
S315080013600D461C4E01203070FFF7E6FF18B94FF402
S315080013700170FEF72FFF1848876A294644F48070E3
S31508001380B847002131700FF2540618B9294644F4BB
S315080013900070B847805DF2BD2DE9F04104468846E5
S315080013A05600FFF7C9FF18B94FF40170FEF712FF90
S315080013B00948476A0023324641462046B8470FF295
S315080013C01C0520B93346002241462046B847405DF1
S315080013D0BDE8F081BC0C00200000080800020202EB
S315080013E04B4B464700366E01415434354442303241
S311080013F031440000EE0800000100FFFF79
S705080000757D
